:1000000000000320D101000005830000D182000020
:10001000D1820000D1820000D1820000D182000094
:10002000D1820000D1820000D1820000058300004F
:1000300005830000D18200003D8B0000418B000051
:100040000583000005830000058300000583000090
:100050000583000005830000058300000583000080
:100060000583000005830000058300000583000070
:100070000583000005830000058300000583000060
:100080000583000005830000058300000583000050
:100090000583000005830000058300000583000040
:1000A0000583000005830000058300000583000030
:1000B00005830000058300000583000061AD00009A
:1000C0000583000005830000058300000583000010
:1000D00005830000058300000583000031920000C5
:1000E00005830000058300000583000005830000F0
:1000F00005830000058300000583000005830000E0
:1001000005830000058300000583000005830000CF
:1001100005830000C19900000583000005830000ED
:1001200005830000058300000583000005830000AF
:10013000058300000583000005830000058300009F
:10014000058300000583000005830000058300008F
:10015000058300000583000005830000058300007F
:10016000058300000583000005830000058300006F
:10017000058300000583000005830000058300005F
:10018000058300000583000005830000058300004F
:10019000058300000583000005830000058300003F
:1001A000058300000583000005830000058300002F
:1001B000058300000583000005830000058300001F
:1001C000058300000583000005830000058300000F
:1001D0005C4B4CF2205210B51A804DF628121A8052
:1001E00000BF00BF08F092F8574B4FF030621A6022
:1001F000564A9A60564ADA60564B4FF470021A60BB
:10020000554B564A1A60564B1A78110748BF1A7850
:10021000544944BF42F008021A70534BAA221A7084
:10022000524A534B8B4204D252F8040F43F8040B4A
:10023000F8E7504B504A0021934202D243F8041B86
:10024000FAE74E4A4E48002350F8231042F8231094
:100250000133742BF8D14B4B4B4A802103F8011B1F
:100260009342FBD1494B454A1A60494B8A221A7086
:10027000A3F5805324225A70A0221A709A7992070B
:10028000FCD59A79D406FCD4424A937903F00C0346
:10029000082BFAD1404B60221A70404A1378802B09
:1002A000FCD13C4B00221A7150225A719A79900667
:1002B000FCD59979374A4906FBD5394B394919603C
:1002C0000021596020231370937903F00C030C2B49
:1002D000FAD1354B354A1A60354A364C136813F457
:1002E000807302BF23604FF4A8531360324B334A2C
:1002F0001A6000225A60072243F8042C304AC3F8DF
:100300000C2D62B607F060FF2368DA0705D52D488B
:1003100007F062FC2C4B2D4A1A602D4B1B785B06B4
:1003200009D5294C294B22689A4204D1254807F067
:1003300053FC002323600BF083F907F0EDFF08F076
:10034000B7FAFEE70E20054030800440823F0400EB
:100350000100002B88ED00E0002008E0030000858C
:1003600002D007405C14FF1F00E00740A4650100B5
:100370003007FF1F5C14FF1F101CFF1F0002FF1F30
:100380000000000000E400E064E400E008ED00E0AC
:10039000005006400040064001E0074003E00740EF
:1003A000448004400000070304800440C01007009C
:1003B00010D0034014D0034014E000E0FFE7030036
:1003C0000000202000DD68501CE00340A5C3945AC3
:1003D00000F00740FFFFFFFFFFFFFFFFFFFFFFFFF2
:1003E000FFFFFFFFFFFFFFFFFFFFFFFFFFFFFFFF1D
:1003F000FFFFFFFFFFFFFFFFFFFFFFFFFFFFFFFF0D
:10040000FFFFFFFFFFFFFFFFFFFFFFFFDEF9FFFF23
:1004100010B5054C237833B9044B13B10448AFF33E
:1004200000800123237010BD5C14FF1F000000003A
:10043000E0620100084B10B51BB108490848AFF352
:1004400000800848036803B910BD074B002BFBD0A0
:10045000BDE81040184700BF000000006014FF1FF7
:10046000E06201005C14FF1F0000000010B50446AC
:10047000C83008F025FA04F1B80008F021FA204647
:1004800010BDFFFFF8B51F4D1F4F07F069FE1F4B52
:100490002A681C68092AA0EB04041E460DDC3B6890
:1004A000022293FBF2F39C4203DB3B68B4EB430F65
:1004B00003DD2B6801332B60F8BD07F051FE144AB1
:1004C0003C60136830601C44124B146019680131A1
:1004D00019601968002913DD0F48DFED106A00214B
:1004E0000124047029601960D2ED007A0C4BF8EEFB
:1004F000E77A86EEA77A83ED007A11600470F8BD82
:10050000F8BD00BF8C19FF1FAC19FF1FBC19FF1FDE
:100510009419FF1FB419FF1F8415FF1F0024F4480E
:100520008814FF1F1FB5144C1449684608F02FFAB1
:10053000B0EE0C0A6946204609F04EF8684608F00D
:10054000BFF90121022007F00BFC0A2209212046F5
:100550009FED0B0A09F01CF807F002FE094B02217F
:100560001860072007F01CFC02220749072007F04B
:1005700049FC04B010BD00BF8C14FF1F6415FF1FA1
:10058000CDCC4C3D8815FF1F850400002DE9F041BE
:100590002DED048B7348744D744C84B008F046FF05
:1005A0002B78724E33B907F0DBFD2368C01A704B0D
:1005B0009842F5DD6C4B6F4C6F4D226800271F7021
:1005C0004FF00C0892FBF8F22A6007F0C9FD33687F
:1005D000C01AB0FBF8F0206007F0C2FD3946306069
:1005E000604808F01DFFB5EEC00AF1EE10FAB0EE5B
:1005F000408A04D55B4808F010FF28EE008A5F4B64
:10060000DFED5F7AD3ED008A5E4E5F4F3368554869
:100610003B6078EEE78A022178EE687AB3EE049ABE
:10062000C6ED007A08F0FCFED6ED009A4D48012197
:1006300060EE299A08F0F4FE97ED007AD6ED007A84
:1006400023682968514A77EE877A5B1AB6EE007AFA
:1006500027EE877A07EE903AD2ED006AF8EEE77A55
:1006600020EE260AE7EE276AB4EEC90AF1EE10FA88
:10067000C2ED006A09DCFBEE047AB4EE670AF1EE23
:1006800010FA48BFB0EE670A01E0B0EE490ADFEDAC
:10069000407A34483F4C30EE290A0A2280EE277A0D
:1006A00009219FED3D0A37EE000A08F071FF2D4841
:1006B000F0EE409A08F0B1FE384BD3ED007AB4EE7C
:1006C000670AF1EE10FA0AD00022226083ED000AD8
:1006D00006220521B6EE080A224808F059FF2368D1
:1006E00007EE903AF8EEE77AF4EEC97AF1EE10FAF6
:1006F00004DD062205219FED2A0A0DE0B2EE047A00
:10070000244AF4EEC77A0133F1EE10FA136006DDE5
:1007100006220521BEEE080A124808F039FF1148EA
:1007200008F078FE58B901AA03210E488DED018A20
:10073000CDED028ACDED039A08F052FE0CE018EEE2
:10074000900A12F041FC41EC100B0221154807F011
:1007500073FF144807F01CFF04B0BDEC048BBDE828
:10076000F08100BF8C14FF1F8415FF1F8815FF1F29
:100770009F8601009819FF1FB019FF1F8814FF1FE3
:10078000000048429019FF1FC019FF1FD819FF1F12
:1007900000007A43C419FF1FCDCCCC3D9015FF1F3C
:1007A00000000000DC09FF1F2DE9F0413E4D3F4CE9
:1007B0003F4B404F404EDFF83C8186B00C22009307
:1007C0004EF2E1411023284608F05AFD22463B49EB
:1007D000284600F091F88C2000F094F8054608F0C7
:1007E00087FA374B37491D60374D384608F0A8F86F
:1007F00022462946384600F07FF83449304608F052
:100800009FF822462946304600F076F8304E3149AE
:10081000404608F095F822462946404600F06CF81C
:100820002D49304608F08CF822462946304600F023
:1008300063F8414602A808F0AAF8314602A808F079
:10084000F7F8264E0146304608F0A1F802A808F055
:1008500037F822462946304600F04EF8204902A8D3
:1008600008F06EF8394602A808F0E2F8314608F0C0
:10087000DFF81C491C4E08F0E3F80146304608F04A
:1008800086F802A808F01CF822462946304600F0F7
:1008900033F807F065FC154B186007F061FC144B4A
:1008A000186006B0BDE8F0818C14FF1F0C08FF1F14
:1008B00040420F007415FF1F7814FF1F6D040000E5
:1008C0008C15FF1FF4480100C18800003949010060
:1008D0009C19FF1F53490100914901007C19FF1F1A
:1008E000AC490100B04901006415FF1FBC19FF1F8E
:1008F0008815FF1FC819FF1F0B46014618460AF04E
:100900008BBC00BF10B5002814BF0446012420464C
:100910000AF0BEFE00B110BD00F012F808B1804729
:10092000F5E7042000F070F9024B0360024A034926
:1009300000F030F8BC490100890A0000C8490100F4
:10094000024B1868BFF35F8F704700BFDC19FF1FB1
:10095000012810B51AD8BFF35F8FA1F1280353E81F
:10096000002F013A43E800200028F8D1BFF35F8F41
:100970005AB951F81C3C01F158040BB12046984774
:100980002046BDE8104000F057B910BD51F8140CD6
:1009900000F092F8F8B504460F46164600F0CEFD7A
:1009A000436801252B44436044F8787C44F8746C18
:1009B00044F8805C00F0B4F844F8700C00F0A8F83B
:1009C000472343224FF04E0E104904F8583CA4F13F
:1009D00058052B235527002644F86C0C04F857ECD7
:1009E00044F8501C04F8552C04F8542C04F8533CDB
:1009F00004F8523C04F8567C04F8516C284613F075
:100A000073FD284600F00AFD00F06AF85109000065
:100A100010B500F093FD42680368013242606BB18B
:100A200093F82020472A0BD00022026003F1200413
:100A3000204613F07DFD204600F0F0FC00F050F859
:100A400093F821204E2AEFD193F82220552AEBD19A
:100A500093F82320432AE7D193F82420432AE3D1B3
:100A600093F825202B2ADFD193F826202B2ADBD1DF
:100A700093F82720012AD7D85A6952425A61D5E7FC
:100A800000487047D449010010B5034B0360044689
:100A900000F04EFF204610BDBC49010010B5054BCB
:100AA0000360044600F044FF204600F03FFF20466C
:100AB00010BD00BFBC49010008B5804707F053FCDA
:100AC00000F0ACFC07F04FFC0D46044600F0ECFCD7
:100AD000013501D000F062FE204600F0FFF800BFB3
:100AE00008B5034B1868BFF35F8FFFF7E5FF00BF42
:100AF0001808FF1F08B58047FFF7F2FF08B5034B42
:100B00001868BFF35F8FFFF7F5FF00BF1408FF1FE2
:100B1000024B1868BFF35F8F704700BF1808FF1FB4
:100B2000024B1868BFF35F8F704700BF1408FF1FA8
:100B3000F0B41B4C50F8087C6168A0F10806C9B1FC
:100B4000F519A9421BD04A682AB3954203D322E083
:100B50009D4205D21A4653680C1D1146002BF7D151
:100B600011685518AE4213D040F8043C23685E600B
:100B7000F0BC704740F8041C6660F0BC70470B681E
:100B80004A6840F8042C1F4440F8087C6660EFE790
:100B900039441160ECE7134604340A46E0E700BF2D
:100BA000E019FF1F30B4174C00F10803072B6368EE
:100BB00086BF00F10F0121F007010821EBB11A688F
:100BC000914204D81BE002688A4205D20346586865
:100BD0000028F8D130BC70470433521A072A09D9CB
:100BE0004418456865604250186801601C60083010
:100BF00030BC704742681A60F9E71846EAE71846C1
:100C0000231DEAE7E019FF1F38B500F180052846EB
:100C10000AF03EFD044638B180220021204608F04B
:100C200045F804F1800038BD2846FFF7BBFF0446B5
:100C30000028F1D1FFF754FF064A936880389842A4
:100C400005D9D2681344984201D2FFF771BF0AF068
:100C500027BD00BFE019FF1F38B5084C4FF41E65D3
:100C60002846E5600AF014FDA06020B10023606012
:100C70000560436038BDE060606038BDE019FF1F6B
:100C80000378472B01D00020704743784E2BFAD1D0
:100C90008378552BF7D1C378432BF4D10379432BB9
:100CA000F1D143792B2BEED183792B2BEBD1C0796A
:100CB00001288CBF00200120704700BF10B530B163
:100CC000044600F0ABFB2046FFF7DAFF08B9FFF758
:100CD00007FF54F8140CFFF7EFFE00BF2DE9F04FAB
:100CE00085B00246FFF7CCFF60B152F8188C52F87D
:100CF000145C966A176B546B104600F08FFB4046ED
:100D0000FFF7F8FE104600F089FBFFF7F7FE00F052
:100D100085FBFFF7E5FE00F081FB00F00BFCD0F84F
:100D2000008098F82730012B38D008F178030DF1B6
:100D3000100A4FF000094AF8083D27F0030300931A
:100D4000CB46B3451EDA276807B127445346002235
:100D5000394608F1200000F027FD28BB3B68164902
:100D60001B69019304AA012342F8040D3846019F30
:100D7000B847009B002818BF4FF001090BF1010B89
:100D80001C44DEE7B9F1000F0BD00420FFF73CFF55
:100D90000A4B03600A4A0849FFF7FCFDD8F8003007
:100DA000C5E72846FFF788FEFFF732FE00F07CFB20
:100DB00000F07AFB00F0F2FCA04B0100704B010048
:100DC000351900005028F8B554D000F00F040C2C51
:100DD0004ED8DFE804F007394907174D4D4D4D1F38
:100DE0001B071700154655F8044B44B100F0700678
:100DF000102E18BF0A461444020648BF24681C601F
:100E00002846F8BD154655F8084BEEE7154635F966
:100E1000024BEAE700242746154615F801EB0EF0D1
:100E20007F06BE401EF0800F44EA060407F1070764
:100E3000F3D11F2FD9D81EF0400FD6D04FF0FF3678
:100E400006FA07F73C43D1E700242746154615F874
:100E500001EB0EF07F06BE401EF0800F44EA060450
:100E600007F10707F3D1C0E7154635F8024BBCE799
:100E700007F079FA033222F0030555F8044B1C60A1
:100E80002846F8BDFF2815D008B500F07003202BC8
:100E900012D00AD9402B14D0502B17D0302B07D1A9
:100EA0000846BDE8084013F01FBD7BB1102B0DD0E4
:100EB00007F059FA002070470846BDE8084013F0D3
:100EC0000FBD0846BDE8084013F0FABC002008BD7D
:100ED000F8B50C4615460746002844D013F0F0FC40
:100EE00028602678FF2E04F1010432D039463046BE
:100EF000FFF7C8FF224601462B1D3046FFF762FF71
:100F00000446601C23782B75FF2B29D01023002466
:100F10002B75224610F8011B01F07F039340090650
:100F200044EA030402F10702F4D40444EC600378B9
:100F30006B7500240130224610F8011B01F07F037D
:100F400093401C430B0602F10702F5D404442C61C4
:100F5000F8BD686023782B75FF2B04F10100D5D113
:100F60000023EB60E3E7BBE72DE9F04F00F003045B
:100F700097B00023012C894690460A9321D00ED3C6
:100F8000022C0AD14146484613F086FC002800F0A6
:100F9000D480092017B0BDE8F08F07F0E4F900F025
:100FA000080000F0FF030028ECD116AA404642F8E2
:100FB0002C1D194600920C2212F01EFF01230493EF
:100FC00013E000F0080000F0FF04002800F0B980F2
:100FD00016AA44F0020442F82C1DE4B2009219460D
:100FE0000C224046049412F007FF404613F06EFCBA
:100FF00005900028C6D010AB1A46059906934046C6
:10100000FFF766FF414604469DF85400FFF73AFF9C
:101010000DF13C0B0023129019460F22CDF800B0C1
:10102000404612F0C3FE0F9B149A23F00103944232
:1010300003F1FF3643D20DF1340A0EAF9DF855503F
:1010400000212846FFF71EFF224653460146284648
:10105000FFF7B8FE9DF85540054600212046FFF7F2
:1010600011FF2A463B4601462046FFF7ABFE9DF89E
:101070005540054600212046FFF704FF2A46014659
:101080005B462046FFF79EFE04460020024614F809
:10109000011B01F07F0393400D0640EA030002F1BB
:1010A0000702F4D4109A0D9B13449E4207D30E9A64
:1010B00013449E42C0F0BA80149BA342BED80025C0
:1010C00003950124049BDB0756D4049B190740F1C8
:1010D000A880012C00F09D810DF1340A0EAF16A9F5
:1010E000002341F8289D1A4600914046194612F007
:1010F00083FE002319460122CDF800A040460D953D
:1011000012F07AFE002319460F220097404612F093
:101110004DFE0E9B039A009703F001050023154333
:10112000404619460F220E9512F066FE022C00F082
:10113000F580072017B0BDE8F08F082017B0BDE894
:10114000F08F10AB009306930D22234621464046B4
:10115000D9F8205012F02AFE109B9D4224D016AAE6
:10116000234642F82C9D2146009240460C2212F064
:1011700043FE0223049338E70EAF002319460D22E5
:10118000009740460A9C12F011FE059A0E9BC9F882
:101190002C20039AC9F82440C9F82850C9F83020F7
:1011A000C9F820300620F5E616AA234642F82C9D01
:1011B0002146009240460C2212F01EFED9F8303033
:1011C000039383B3D9F82C30D9F82850059303241E
:1011D0000DF1340A0EAF002D81DA069A05994046CA
:1011E000FFF776FE41469DF85400FFF74BFEAA003C
:1011F00082F00302D243139E1290B358164433B1C7
:101200003246002352F8041F01330029FAD1042288
:10121000C9F82830C9F82C00C9F83460C9F8302062
:101220005DE7012CD4D14846FFF748FD0F9B002B0A
:101230003FF4A8AE119A13440393002800F0D6801F
:10124000149C01380444002B3FF49CAE002C00F0A9
:10125000D180049B13F00803099300F0BD8047225E
:101260004E2389F8002089F801305522432389F85C
:10127000022089F8033046224F2389F8042089F898
:1012800005305222002389F8062089F80730002310
:101290000793CDF8208000252A4614F8011B01F0A1
:1012A0007F039340080645EA030502F10702F4D4E0
:1012B0001F2A05D8490603D5012393405B421D43ED
:1012C00000263246204610F8011B01F07F039340B0
:1012D0001E430B0602F10702F5D41F2A05D8480663
:1012E00003D5012393405B421E43002D3DD03FDDDB
:1012F0009DF85400FF286DD000F00703042B3FF643
:101300004CAE01A252F823F04F1300009B0F0000D7
:10131000491300004F13000027130000484600F057
:101320009BFA072036E6EB005B42139A12991A44A7
:101330003B46FFF747FD0E9999B1B9F1000F09D16E
:10134000002E5ED03444A6E76B005B42EDE7AB00B5
:101350005B42EAE70AAB0022484600F025FA002883
:10136000EED0DDF820800324ACE601230793E7E705
:10137000B9F1000F01D0099B93B16B1CC3EB8373D0
:10138000139A52F82330002BDAD1049BDDF8208029
:10139000DA073FF5F2AE099B002B3CD0FFF7AEFB1E
:1013A00005F10108C8EB8873139A0A9852F82310C4
:1013B0000F9002EB830821B9E7E758F8041F0029D2
:1013C000E3D041445B460022484600F0EDF9002896
:1013D000F3D0B5E70023A8E799F80730012B0CBF3D
:1013E00059F8203C09F158030A9350E7039B002B5E
:1013F0003FF4C8AD049B13F001057FF4C3AD022494
:1014000063E6079BDDF82080002BF3D1BAE500F0FE
:1014100005F8FFF765FB0324DDE600BF38B5044699
:1014200000F08CF822780368472AA4F1200105D047
:10143000002B31D11C460160204638BD62784E2A0F
:10144000F6D1A278552AF3D1E278432AF0D1227955
:10145000432AEDD162792B2AEAD1A2792B2AE7D14E
:10146000E279012AE4D854F80C2C002A11DB01326D
:10147000456844F80C2C8B4205F1FF3242601CBFDA
:1014800044F8103C01602046646A12F087FC204654
:1014900038BDC2F10102EBE7FFF722FB013101D0B9
:1014A00000F07CF9FFF71AFC08B500F043F802469B
:1014B000006800283DD090F82030472B06D000234C
:1014C00013602030BDE8084012F06ABC90F821306B
:1014D0004E2BF4D190F82230552BF0D190F82330D8
:1014E000432BECD190F82430432BE8D190F82530F1
:1014F0002B2BE4D190F826302B2BE0D190F827301D
:10150000012BDCD84369002B05DB013B08D05A1CBA
:101510000DD0436108BD0133FBD101691160F8E7CB
:10152000036913602030BDE8084012F039BCFFF7B2
:10153000D7FA08BD00487047F019FF1F00487047F0
:10154000F019FF1F70B53D4B1A7882B0002A36D1D2
:1015500001241C7000F014F900285CD04068384D5C
:1015600003782A2B02AB4FF0FF320CBF041904465C
:1015700043F8042D00221146204606F08FFA2B680E
:101580000646DB682F48302201210AF049F8019B0A
:101590007BB12B682046D96809F086FE2B682A4863
:1015A000DB68022201210AF03BF8019B8BB1FFF7B7
:1015B0002FFA2B683046D96809F076FEEEE7204B0B
:1015C00022481B681D22DB6801210AF029F806F079
:1015D000CAFE30460AF064F8E9E701290C4627D133
:1015E000FFF71CFF03689B6898472B680646DB687B
:1015F000174821460B220AF013F82B683046D968A9
:1016000009F052FE2B680A20D96809F011FEFFF795
:101610004BFF06F0A8FE0A4B0E481B682146DB680C
:101620002D2209F0FDFFF4E7FFF73EFF00F0B6F8CA
:10163000FFF7F4FEFFF738FFEBE700BFFC19FF1FD1
:10164000D80EFF1F144A0100484A0100F449010066
:101650007C4A01004C4A010010B5034B036004466C
:1016600000F0B0F9204610BD904A010010B5054BBE
:101670000360044600F0A6F9204600F057F9204622
:1016800010BD00BF904A01002DE9F04F81B00E4619
:1016900019461F46914683460A9CDDF82CA0DDF8CA
:1016A00030800D9D00F056F970B1002E2C6085F849
:1016B00004901FDB3444A0450CBF06240124AC7108
:1016C000002001B0BDE8F08F444518D0DBF80800D9
:1016D000D0F800E00D95CDF83080CDF82CA00A941C
:1016E000DEF81C403B464A463146A44601B0BDE800
:1016F000F04F60470236E3D10123AB71E0E751467A
:10170000584600F027F90028E0D0002085F8059021
:1017100001B0BDE8F08F00BF70B582B00D46069CE9
:101720009442064609D0B06806680694346A294691
:10173000A44602B0BDE8704060471946019200938C
:1017400000F008F9009B019A0028ECD0062002B0B6
:1017500070BD00BF2DE9F04107460C4615461E46F8
:1017600000F048F908B1BDE8F081B8680768214683
:10177000BC6933462A46A446BDE8F041604700BF35
:1017800008B5FFF7DBFE006830B190F82730012B79
:1017900004BF00687838006808BD00BF1EB400F0C0
:1017A0008DF81EBC12F0B2FEF0B50278472A83B065
:1017B0000E461F461AD00023254C0193236820466D
:1017C0009B68984780B1019B1B6801930225336891
:1017D000214630461C6901AA0123A04710B1019B94
:1017E0003B60284603B0F0BD0125F0E743784E2B5F
:1017F000E1D18378552BDED1C378432B19D0C37840
:10180000432BD8D10379432BD5D143792B2BD2D17C
:1018100083792B2BCFD1C379012BCCD804D050F8AE
:10182000204C58300190C9E750F8200C50F8784C03
:10183000F8E70379462BE2D143794F2BDFD1837947
:10184000522BDCD1C379002BD9D10193014CB5E7E0
:10185000604B0100084B010010B50446FFF76EFE17
:101860002378472BA4F1200204D0836823BB826035
:10187000012010BD63784E2BF7D1A378552BF4D1FE
:10188000E378432BF1D12379432BEED163792B2BD2
:10189000EBD1A3792B2BE8D1E379012BE5D854F8D0
:1018A000043C0133012B44F8043CE1D1836844F843
:1018B000083C8260012010BDFFF712F908B5FFF760
:1018C0003DFE836883B393F82020472A04D000228A
:1018D000826003F1200008BD93F821204E2AF6D142
:1018E00093F82220552AF2D193F82320432AEED1EF
:1018F00093F82420432AEAD193F825202B2AE6D115
:1019000093F826202B2AE2D193F82720012ADED84B
:10191000DA69013ADA61002ADBD19A698260002231
:101920009A6103F1200008BDFFF7DAF809F0B8BEAC
:10193000704700BF704700BF004870474C4B010024
:1019400010B50446FFF7F2FF204610BD704700BFF8
:1019500000207047814211D008B5406803782A2BD7
:101960000AD049680B782A2B08BF01310AF0BCFC69
:10197000B0FA80F0400908BD002008BD0120704782
:1019800070B5036884B000249E6900941023154646
:10199000029312688DF804406B460394B0479DF89B
:1019A000043003F00603062B03BF009B2B600120CD
:1019B000204604B070BD00BF009890420CBF0620C6
:1019C0000120704710B5034B03600446FFF7BEFFCC
:1019D000204610BDCC4B010010B5054B03600446FA
:1019E000FFF7B4FF2046FFF7A1FF204610BD00BF60
:1019F000CC4B010038B515461C46FFF7ABFF20B1B4
:101A0000082206232560E260237138BDF0B583B05B
:101A10001746089D0A990B9C8D4206460BD0194625
:101A20003046FFF797FF18B1012325602771A37196
:101A3000002003B0F0BD09990193FFF78BFF18B1A7
:101A40000020677103B0F0BD019BE8E72DE9F0418C
:101A500017461C4606460D46FFF77CFF08B9032CC7
:101A600001D9BDE8F0812B683A46314628465B69CA
:101A7000BDE8F041184700BF70B44C1E4B2C2CD869
:101A8000DFE804F03C3C3C3C2B2B2B2B26263C2651
:101A900026262626262626262626262B27272727DD
:101AA000272727273C26262626262B26273D3C2B84
:101AB0003C27273D2B2B2626263C3C3C3C3C263C09
:101AC0003C263C2B2B2626262B2B2B2626263C3C45
:101AD000CAB144698569AC4202DB002070BC704722
:101AE00004EB440506690134AD00446174190CD05F
:101AF00071556260A360204670BC70471AB1002B1C
:101B0000E7D11846EAE71046E8E72046E6E700BFD7
:101B10002DE9F047C368B2F1000A04460F461A786F
:101B200015BF4FF01C084FF019084FF01D094FF07A
:101B30001A0914BF1E261B260D4612E0562A1BD07A
:101B40004B2A22D1236BE160063323633146002305
:101B50001A462046FFF790FF2860A0B1E3681A7884
:101B6000051D722A03F10101E8D1226B013309320C
:101B7000E36022634146EAE7226B01330932E36006
:101B800022634946E3E7BDE8F087BAF1000F01D1CF
:101B9000462A02D02846BDE8F087BD42FAD01D2073
:101BA0001E211C2207E01B2B0BD0192B00D13A70F1
:101BB0000437BD42EED03F683B781A2BF3D1387022
:101BC000F6E73970F4E700BF10B4C3681C78522CF4
:101BD0000A460FD04F2C03D008465DF8044B7047DF
:101BE000016B0331016320210133C3605DF8044BB5
:101BF000002341E7016B023101631F21F4E700BFBD
:101C0000002A4CD070B505460E4614462378013B99
:101C10004B2B2AD8DFE803F03535353E2929262617
:101C20003535353535353535353535353535352970
:101C3000353535353535353535352E2E353529356E
:101C40003535352A3535353529263535353535356A
:101C5000353535353535352929352A2A2A2A293584
:101C600035353535A468002CD0D170BD6468002CA2
:101C7000CCD1FAE762681378052B03D133680133BE
:101C80003360626831462846FFF7BAFFA468002C2B
:101C9000BCD1EAE72B6801332B606268F2E770473A
:101CA0007AB32DE9F0410D460446D0F80011AF1883
:101CB0004FF0000809E00B46BD4201F10101C4F8F4
:101CC0000011E65484F8046119D0FF2915F8016B5E
:101CD000F1D1D4F8083184F8FF80D4F80C212046E3
:101CE0009847D4F820310133C4F820310023012172
:101CF000BD42C4F80011E65484F80461E5D1BDE8A2
:101D0000F081704730B403681A786E2A044616D002
:101D1000A2F1300109291CD80025002001332360DD
:101D200000EB800002EB40001A78A2F13001092993
:101D3000A0F13000F2D905B1404230BC7047591CC7
:101D400001605A78A2F13003092B02D80B46012515
:101D5000E3E70020F1E700BF43698269934214DAA8
:101D600003EB43020169920010B501338C18436103
:101D700008D041238B540C30FFF7C4FF234660602A
:101D8000184610BD2346184610BD0023184670475C
:101D900010B5C3681A785F2A04460DD06E2A0FD09A
:101DA0000C30FFF7AFFF01300AD4E3681A785F2ADE
:101DB00006D10133E36010BD01330020E36010BDA4
:101DC0004FF0FF3010BD00BF38B5C3681A78542AF1
:101DD00001D0002038BD0133C3600446FFF7D8FFAF
:101DE000051EF6DBA26A6369A16901328B42A26219
:101DF000EFDA03EB430221690133920063618B1830
:101E0000E7D0052088545D60184638BD70B504469B
:101E10000C30FFF777FF061E4EDDE56863685B1B3D
:101E20009E422CDCA268AB195207E36004D5AA5D80
:101E3000242A04BF0133E360092E0CDD08221F4968
:101E4000284609F055FF30B92B7A2E2B1AD05F2B7C
:101E500018D0242B16D06369A26993420FDA03EBE2
:101E6000430221690133920063618B1807D035B1B9
:101E70000020885418465D609E60E06270BD0020BE
:101E8000E06270BD6B7A4E2BE5D1236B6269A1696C
:101E900016339E1B8A422663F1DA02EB4203216964
:101EA0009B000132C8186261E9D00025CD54044A74
:101EB000426015238360E3E7002070BD58530100A2
:101EC0006453010038B5C3681A78422A0D4610D110
:101ED00004460133E3602046FFF798FF2A46034695
:101EE0004B212046FFF7C8FDE3681A78422A0546D1
:101EF000EFD0284638BD00BFC2681378532B02D0FC
:101F00000021084670472DE9F041531CC360537807
:101F10008BB1931CC36054785F2C2DD10023026ACF
:101F200093421CD2826AC169013251F82310826245
:101F30000846BDE8F0811C46836803F00803002BC7
:101F400014BF012500250ED04D4B742203F1A801CA
:101F500001E013F81C2F944237D08B42F9D10021B5
:101F60000846BDE8F0810029EED0C3681B78433BEA
:101F7000012B98BF0125E7E7A4F13005EBB2092B4F
:101F800079D800210DE0303B9942E8D8C268147836
:101F9000511C1CB1C16014785F2C14D0A4F1300521
:101FA0001946EDB2A4F1410201EBC103092DD2B2F1
:101FB00004EB8303E7D9192AD1D801EBC10204EB62
:101FC0008203373BE0E70133A9E75C69002C49D085
:101FD000426981698A4243DA02EB4206D0F810E096
:101FE000D3F81880B60001321EEB0607426140D0DC
:101FF0004FF0180C0EF806C03E467C60C7F808800B
:10200000C66245B3DE681C69036B914223440363D7
:1020100024DD02EB42010569890001326B1842613F
:1020200025D018226A5419465E609C60C3681B78EC
:10203000422B7FF47DAF0446FFF744FF00288ED08B
:10204000236A626A934210DAE1695A1C41F823005C
:10205000014622626CE75E689C68D5E70021E5E7EF
:102060000026CDE781694269CBE7014660E7194662
:10207000DCE73E46C4E7A4F14103192B81D95BE7B5
:10208000204C010038B5044629B9C3681A7832B12A
:102090005A1CC2601978682919D0762901D000200D
:1020A00038BD04F10C052846FFF72CFEE3681A78CA
:1020B0005F2AF4D10133E3602846FFF723FEE3688B
:1020C0001A785F2AEBD10133E360012038BD04F1B7
:1020D0000C00FFF717FEF2E7D0F810310246C3B14B
:1020E0005A680B68906870B102782F2A0DD1002BC6
:1020F00004DC09E002782F2A07D143B18068013B54
:102100000028F7D17047704701D000207047406821
:10211000704701211846C2F818117047002941D0B4
:1021200038B505460C4623784B2B27D8DFE803F05B
:102130002E26262626302E2B2B262626262626261B
:1021400026262626262626262E2626262626262627
:10215000262626262626262E262626262E2626260F
:10216000262E2B2626262626262626262626262602
:102170002E2E2626262E2E2E26262E2E6168284628
:10218000FFF7CCFF18B9A468002CCCD1002038BDD3
:10219000211D2846FFF7A0FF0028F7D003782F2B3A
:1021A000F4D138BD00207047F0B55368946801330E
:1021B0000B44A34283B015460E46074613D8EC687D
:1021C0000CB103B0F0BD95E8090032463946184419
:1021D00006F0D2FC2B686A6833449C546B681E443A
:1021E0006E6003B0F0BDD268002AEAD11CB9022BA0
:1021F0004FF0020402D96400A342FCD821462868AB
:1022000009F032FE10B12860AC60D8E70190286870
:1022100009F046FA019B2B6001226B60AB60EA601B
:10222000CFE700BF2DE9F047C5682A7882B00023C8
:102230008A420446019300F0C8810F4601AE23E0B4
:10224000662B5AD0A3F13002092A00F2F881204609
:1022500001F0A8FA0546002849D0E3681B78492B0D
:1022600000F0B4800246C4F8348000232E212046BA
:10227000FFF702FC306000283BD0E5682B78BB42BA
:1022800000F1080600F063814FF00109D4F83480B2
:10229000C4F834902B784C2B70D0542B78D0732BFF
:1022A000CED16B78722B00F03C81702B00F0558101
:1022B000204601F0B5F90546C8B10378312B6CD042
:1022C000322B3ED16B68032B11D8DFE803F08E412F
:1022D0001010742BECD16B786C2BE9D1204600F0F8
:1022E000E1FDE5686B788146002B40F0B381C4F8CE
:1022F0003480002002B0BDE8F0876B78702BD7D116
:10230000AB1CE360AB78542B6BD02046FFF740FD4D
:102310006FF0004320F000429A42E8D00130636938
:10232000A2699342E3DA2269591C03EB430361611A
:1023300012EB8301DBD0062502F823500A464860E1
:1023400091E7332BD3D1E3681A785F2A00F06081DC
:102350004FF00009204600F09DF90346B9F1000F47
:1023600005D0024638212046FFF786FB03462A4661
:1023700036212046FFF780FB024603E0204601F0AD
:102380005FFE0246C4F83480002A7FF46EAFB0E7E7
:102390002046FFF719FD0246F4E7D0F804A0226BAF
:1023A000DAF80830DAF80090B549023B13442363A9
:1023B000484609F099FF002800F0E180DAF80C3077
:1023C000032B94D8DFE803F011955F19204600F045
:1023D00045FB2A46034604212046FFF74DFB0246F3
:1023E000D0E70335E560002099E72A460023352130
:1023F0002046FFF741FB0246C4E7B9F1000F3FF466
:1024000076AFA049484609F06FFF002800F0BC8075
:1024100099F800306E2B7FF46AAF99F80130772B72
:1024200002D0612B7FF463AF5F212046FFF7FAFEF5
:102430008146204600F036FDE3681A78452A824638
:1024400000F0D780702A00F0EB80692A7FF44FAF4C
:102450005B786C2B7FF44BAF204600F01BF90346F2
:1024600052463B212046FFF707FB4A4603463A21E6
:102470002046FFF701FB2A46034639212046FFF795
:10248000FBFA02467EE7B9F1000F3FF430AF6B680C
:102490001B685A78632A00F08A80204600F0FAF818
:1024A00082467949484609F01FFF002879D07749CC
:1024B000484609F019FF28B14846754909F014FF4C
:1024C000002857D1204601F06DF9E3681B78492BAD
:1024D000814600F092804B46524638212046FFF755
:1024E000CBFA2A46034637212046FFF7C5FA0246B3
:1024F00048E7B9F1000F3FF42BAF99F80030702B8B
:1025000002D06D2B7FF424AF99F801209A427FF41A
:102510001FAFE3681A785F2A00F08E804FF0010940
:1025200018E70235E560204600F0BCFC0546204671
:1025300001F038F9E3681B78492B82464ED00346F8
:102540002A4649462046FFF797FA02461AE70198BD
:102550000135E56002B0BDE8F0870235E560204650
:1025600000F098F8002302464A212046FFF784FA3B
:10257000024607E7204600F08DF88146ABE720468B
:1025800000F090FC0346F2E6204600F083F8814616
:10259000204600F07FF88246204600F07BF8034694
:1025A0005EE745212046FFF73DFE814693E71B7815
:1025B000A3F16302012A03D9723B012B3FF66DAFF1
:1025C000204600F06FFC82466BE701351A462E214B
:1025D000C56002B0BDE8F047FFF74EBA204600F0F4
:1025E0003DFA5246034604212046FFF745FA0346CA
:1025F000A6E70133E360002332E7204600F02EFA1D
:102600004A46034604212046FFF736FA814662E730
:102610000133E36045212046FFF704FE0346A6E6AA
:102620005A78692A7FF463AE0233E360452120467D
:10263000FFF7F8FD034613E70133E36088E66F2BED
:1026400016D0692B7FF445AE6B786C2B7FF430AEDF
:102650004FF0000902354521E5602046FFF7E2FD15
:102660004A46034630212046FFF706FA024689E62D
:102670006B786E2B7FF41CAE0235E560E7E500BF9A
:1026800044580100885301007C530100805301002D
:1026900084530100C1680B784C2B6BD0542B6BD04A
:1026A000732B2DE9F041044624D0662B0FD0A3F103
:1026B0003002092A00F29A81204601F073F805469B
:1026C000A8B1E3681B78492B6DD0BDE8F0814B7849
:1026D000702B2FD0204600F0A3FF054638B10378B9
:1026E000312B4BD0322B16D0332B00F0248100201D
:1026F000BDE8F0814B78722B60D0702BEAD10231AB
:10270000C160FFF7C7FF002302464A212046BDE80B
:10271000F041FFF7B1B96B68032BE8D801A252F87A
:1027200023F000BFF1270000F1280000EF26000091
:10273000EF2600008B1CC3608B78542B54D0FFF71E
:1027400027FB6FF0004320F000429A42CFD0421C9A
:102750006369A1698B42CADA03EB43012069013343
:10276000890063614318C2D0062444545A60184655
:10277000BDE8F08101F064BCFFF726BB4768226B1F
:10278000BB683E68B049023B13442363304609F0FE
:10279000ABFD002800F0DB80FB68032BA7D8DFE847
:1027A00003F027BA722F204600F058F92A46034654
:1027B00004212046BDE8F041FFF75EB90231C16057
:1027C00000F070FB0546204600F0ECFFE3681B7844
:1027D000492B064600F0DF8003462A4620460121A9
:1027E000BDE8F041FFF748B90331C1600022AFE70F
:1027F0002A46204600233521BDE8F041FFF73CB9C9
:10280000002E3FF474AF9149304609F06DFD002869
:1028100000F0A18033786E2B7FF469AF7378772B4B
:1028200002D0612B7FF463AF5F212046FFF7FAFCF3
:102830000646204600F036FBE3681978452907462E
:1028400000F0B980702900F0C58069297FF44FAF8E
:102850005B786C2B7FF44BAF2046FFF71BFF0346E2
:102860003A463B212046FFF707F9324603463A2114
:102870002046FFF701F92A46034639212046BDE8E4
:10288000F041FFF7F9B8002E3FF431AF6B681B68D9
:102890005A78632A72D02046FFF7FCFE07466C493F
:1028A000304609F021FD002862D06A49304609F01F
:1028B0001BFD28B13046684909F016FD002875D186
:1028C000204600F06FFFE3681B78492B064676D060
:1028D00033463A4638212046FFF7CEF82A460346CB
:1028E00037212046BDE8F041FFF7C6B80133E36069
:1028F00000262046FFF7CEFE03462EB102463821C1
:102900002046FFF7B9F803462A4620463621BDE89F
:10291000F041FFF7B1B8002EEAD03378702B01D028
:102920006D2BE5D172789A42E2D1E3681A785F2A7A
:10293000DCD00126DDE7E3681A785F2AD8D10133BD
:10294000E36045212046FFF76DFC0346DCE72046A7
:1029500000F0A8FAD7E72046FFF79CFE064620467F
:10296000FFF798FE07462046FFF794FE034677E7F9
:1029700045212046FFF756FC0646A9E71B78A3F140
:102980006302012A02D9723B012B84D8204600F051
:1029900089FA074683E7204600F060F8324603468E
:1029A00004212046FFF768F8034616E72046FFF7A4
:1029B00071FE06468CE70133E360002350E72046B2
:1029C00000F04CF83246034604212046FFF754F845
:1029D00006467DE75A78692A7FF489AE0233E360C0
:1029E00045212046FFF71EFC034639E76F2B14D024
:1029F000692B19D14B786C2B7FF46CAE002502311A
:102A0000E16020464521FFF70DFC2A4603463021B0
:102A10002046BDE8F041FFF72FB84B786E2B7FF4CE
:102A200059AE0231C16047E6742B7FF453AE4B7848
:102A30006C2B7FF44FAE00F035FAE1684B78054619
:102A4000002B3FF454AEDAE74458010088530100EC
:102A50007C5301008053010084530100C1680B784E
:102A6000493B012B57D82DE9F0414A1CC2604B78F5
:102A7000D0F82C80452B82B004464ED002AD002108
:102A800045F8041D0127493B0F2B3BD8DFE803F035
:102A900035353A183A3A3A3A3A3A3A3A3A3A3A08F4
:102AA0000132666BE26067632046FFF7F3FDE3687F
:102AB00066631A78452A2AD0002002B0BDE8F0816A
:102AC000204601F0BDFA064600232F21324620465B
:102AD000002EF1D0FEF7D0FF286000F10805002895
:102AE000EAD0E2681378452BCDD10198C4F82C8048
:102AF0000132E26002B0BDE8F0812046FFF7AEFF90
:102B00000646E1E7204600F0CDF90646DCE7013352
:102B1000E3600646D8E70020704702310023C16019
:102B20001A462F2102B0BDE8F041FEF7A5BF00BF55
:102B30002DE9F043C26813784E3B83B005460C2B59
:102B400069D8DFE803F01B68686868596816686828
:102B50006868070001320021C26000F099FFEB684D
:102B600019784529064600F09C80002003B0BDE896
:102B7000F08300F017FE03B0BDE8F0830132C260BD
:102B800001A90122FEF7C4FF81460028EDD00021F3
:102B90002846FFF719F8EA68B44E147880460027F3
:102BA000002C00F0EE80442C00F0D780A4F130031C
:102BB000DBB21C2B40F2AD80A4F16103DBB2192B18
:102BC00040F2AC80552C00F0E280532C00F0E880FD
:102BD000492C00F0DE80542C00F01981452C00F0C7
:102BE0004B814D2C40F0CD80002F00F0CA80531C4B
:102BF000EB6054781A46D3E75378742B29D0002120
:102C0000FFF77AF9EB681B78492B044647D020463A
:102C100003B0BDE8F08300F0C5FDEB681B78492BDD
:102C20000446F4D10028A0D02B6A6A6A93429CDA49
:102C3000E9695A1C41F8230028462A62FFF70EFF73
:102C40002246034604212846FEF716FF03B0BDE8DE
:102C5000F0834369816902328B42C260C0F2AA806C
:102C60000024284600F09EFD224603460121284606
:102C7000FEF702FF2B6BEA6803332B631378492BB3
:102C80000446C4D100283FF470AF2B6A6A6A9342AD
:102C9000BFF66BAFE9695A1C41F823002A62284647
:102CA000CCE75A1CEA605978732900F098806429AF
:102CB00000F0B1802846FFF73BFF0446002800F0F3
:102CC0008A800378452B00F08680472B00F08380B4
:102CD0004FF0FF37EB681A785F2A00F0B3807B1C57
:102CE00079D06B69AA69934277DA03EB43022969C9
:102CF000013392006B618B1803D0462088549F608B
:102D00005C60324628460221FEF7B6FE03B0BDE8FD
:102D1000F08326FA03F3D9077FF54EAF284600F07B
:102D200041FD4FB3012103463A462846FEF7A4FE73
:102D30000746532C1DD0EA681478452C3FF436AF73
:102D4000FFB12B6A6A6A93421BDAEA6942F8237080
:102D50000133EA682B62147822E7537803F0DF032B
:102D6000542B28460AD000F01DFD002FDAD107466B
:102D7000E1E7EA68147813E70746DAE700F092F82B
:102D8000F3E70020C9F8000003B0BDE8F08328464F
:102D9000E9E7002FF5D02846FFF760FE0421C2E7DF
:102DA00001212846FFF7A8F8002FBBD1EA680746A3
:102DB0001478F5E603EB43010069890001334218FA
:102DC0006B613FF44DAF00234354294C54600323FF
:102DD0009360144645E7234693E7002391E79A1C46
:102DE000EA609A785F2A37D06B69AA699342F4DA6D
:102DF00003EB43022969013392006B618B18ECD01D
:102E000000248C541B4858600E229A6079E72846AB
:102E1000FEF7DAFFA9E70233EB602846FEF7B8FFBA
:102E2000071EFFF6A2AE2846FFF782FE04460028E2
:102E30003FF457AF0378452B3FF453AF472B3FF494
:102E400050AF47E72846013340F80C3FFEF75AFFE2
:102E50000028BFF644AF88E62846033340F80C3F0D
:102E6000FEF750FF0028BFDA7FE600BFFF0308101F
:102E70009C5301008C530100C9F80070002F3FF4EF
:102E800074AEB8F1000F04D0019BC8F80430CDF83F
:102E90000480EB681A78452A7FF467AE0133EB6053
:102EA000019868E62DE9F043C1680B78722B83B076
:102EB000044655D0562B53D04B2B51D0A3F13002A2
:102EC0004A2A00F28A80DFE812F0B200B200B200B3
:102ED000B200B200B200B200B200B200B20088008C
:102EE000880088008800880088008800B800880072
:102EF000E10003018800EF00F500880088008800E9
:102F0000880088007501B2008D019B018800A9012D
:102F1000B7010F02D8018800880088008800B2003D
:102F2000880088008800880088008800EA01EA019B
:102F3000EA01EA01EA01EA01EA01EA01EA01EA0139
:102F40008800EA01EA01EA01EA01880088008800B5
:102F5000EA01EA019800EA01EA01EA01EA01EA016C
:102F6000002201A92046FEF7D3FD0546002834D0F3
:102F7000E3681B78462B204634D0FFF793FF286088
:102F800058B303781F3B012B30D9019A2AB3236A27
:102F9000616A8B4221DAE06940F82320019D591CC7
:102FA0002846216203B0BDE8F0830123656B6363AB
:102FB0002046FFF76FFB656302460023422120464F
:102FC000FEF75AFD0546019038B1E3681A7822B140
:102FD0005A1CE2601B78452B1ED00025284603B002
:102FE000BDE8F08300F034FD2860C9E7019A43682A
:102FF00042602A6801922B60C7E70131E1602046F8
:10300000FEF704FF0023024628212046FEF734FD88
:1030100005460190002DE0D0236A626A9342DCDA13
:10302000E1695A1C41F82350019D2262D6E72046EF
:10303000FFF77EFD05460190ECE7481CE0604B7809
:103040005F2B00F07582303B092B00F27F82034634
:103050000133E3601A78303A092AF9D96269A16923
:103060008A4211DA02EB42012669890001327518A1
:10307000626109D01A1A07D0002777546860AA60E5
:103080001A785F2A00F0C9820025A9E00131E160C9
:103090002046FFF707FF0023024625212046FEF7C2
:1030A000EBFC05460190B5E7204600F0D1FC054653
:1030B0000190AFE70131E1602046FFF7F3FE002306
:1030C000024626212046FEF7D7FC05460190A1E7DF
:1030D0004B1CE3604B78002B3FF47FAF8B1CE3600D
:1030E0004B78463B302B3FF678AF01A252F823F0E5
:1030F000BF340000DB2F0000DB2F0000DB2F0000BF
:10310000DB2F0000DB2F0000DB2F0000DB2F000097
:10311000DB2F0000DB2F0000DB2F0000DB2F000087
:10312000DB2F0000DB2F0000AB2F0000DB2F0000A7
:10313000DB2F0000DB2F0000DB2F0000DB2F000067
:10314000DB2F0000DB2F0000DB2F0000DB2F000057
:10315000DB2F0000DB2F0000DB2F00009534000088
:10316000DB2F0000DB2F000077340000B1330000BC
:1031700085330000DB2F0000593300002D330000A1
:10318000DB2F0000DB2F0000DB2F0000DB2F000017
:103190004F340000DB2F000037340000DB2F00002D
:1031A000DB2F000017340000AB2F0000DB2F0000E6
:1031B000DD3300000131E1602046FFF773FE054674
:1031C00000283FF461AF2046FFF76CFE00283FF473
:1031D0005BAF03462A462B212046FEF74DFC0546F1
:1031E000019517E70131E1602046FFF75BFE002300
:1031F000024624212046FEF73FFC0546019009E7E0
:103200000131E1602046FFF74DFE002302462221F6
:103210002046FEF731FC05460190FBE60131E160F6
:103220002046FFF73FFE0023024623212046FEF7FB
:1032300023FC05460190EDE64B78A3F13002092A04
:1032400005D95F2B03D0413B192B00F28C81002163
:103250002046FEF751FEE36801901B78492B054696
:103260007FF4BCAE2046FFF7F9FB2A460346042153
:103270002046FEF701FC0546B2E70131E160204639
:10328000FEF7C4FD01902046FFF70CFE019B0246AD
:1032900021212046FEF7F0FB05460190BAE6613B8E
:1032A000B74F6269A56903EB83039B0007F1C40074
:1032B000AA42184480F2388102EB4206D4F810E0AA
:1032C000B60001321EEB0605626100F02D81272257
:1032D0003B440EF806206860226BD3F8C8300131F9
:1032E0001344E160236379E62046FEF76DFDE6684E
:1032F00001903378492B05467FF48CAEA36B002BED
:1033000040F0508100283FF468AE236A626A93421D
:10331000BFF663AEE1695A1C41F8230022622046E1
:10332000019DFFF79BFB2A460346A0E76369A2695C
:10333000934280F2F98003EB430122698900013353
:103340005518636100F0F0808E4B272050546B605D
:10335000236B0833236341E66369A269934280F2D9
:10336000E38003EB4301226989000133551863614F
:1033700000F0DA80844B272050546B60236B0433B9
:1033800023632BE66369A269934280F2CD8003EB4D
:1033900043012269890001335518636100F0C4803C
:1033A0007A4B272050546B60236B0933236315E657
:1033B0006369A269934280F2B78003EB43012269FB
:1033C000890001335518636100F0AE80704B2720EF
:1033D00050546B60236B0A332363FFE58B785F2BBC
:1033E00000F0FF802046FEF7B7FC0546002D3FF4B5
:1033F000F7AEE3681A785F2A7FF446AE0133E360E4
:103400002046FFF74FFD2A4603462D212046FEF7B2
:1034100033FB0546E4E66369A269934280F2848047
:1034200003EB4301226989000133551863617BD0A6
:103430002720584B8AE72046FFF734FD0023024639
:103440004A212046FEF718FB05460190E2E5636934
:10345000A269934268DA03EB4301226989000133D0
:103460005518636160D04C4B272050546B60236B20
:1034700011332363B2E56369A269934254DA03EB23
:103480004301226989000133551863614CD027201C
:10349000424B87E76369A2699342BFF69EAD03EB97
:1034A00043022169920001338D1863613FF495ADA9
:1034B00000238B543A4868600423AB608EE563694F
:1034C000A269934280F28480256903EB4300800067
:1034D00001332A182C26636101922E548B78303BDD
:1034E000DBB2092B94BF01230023138173D9154646
:1034F0002046FFF7D7FC019B68605B68002B3FF418
:103500006CAD04F10C00FEF7FDFBE268137843B1EB
:10351000531CE3601378A3F17303B3FA83F35B09DD
:103520001BB2019D6B8159E5002301935B68FFDEAF
:1035300000250130E0602046FFF7B4FC2A46034630
:103540002A212046FEF798FA054649E60123656BD5
:1035500063632046FFF79EF86563054600283FF445
:1035600093ADE3688CE52046FFF7E2FA054601904B
:1035700000283FF432AD0378182B7FF44DAD2DE5D4
:10358000204C0100504F0100284F0100EC4E01007B
:10359000144F01003C4F0100644F0100004F010037
:1035A000A05301002046D4F81490D4F82080A76AD4
:1035B000256BFFF753FAE2681278492A1CD025637D
:1035C000E660C4F81490C4F82080A762019D21E54C
:1035D00000231B70FFDE04F10C00FEF793FB019D3E
:1035E00086E703310123666BE16063632046FFF7E2
:1035F00051F866630546F9E6019B002B3FF4EDACFC
:10360000226A616A8A42BFF6E8ACE569511C45F856
:103610002230019A2162034629E6184689E700BF55
:10362000F8B5C3681E78844626B35A1CC2605A781F
:103630001E78002A59D09A1CC260762E044693F850
:1036400001E044D0632E16D1BEF1760F13D1436B47
:10365000856BB3FA83F35B098363FFF723FCA36BEA
:103660000246002B53D0002334212046FEF704FAF3
:10367000A563F8BDB646294C3D20002204E094BF66
:103680005A1C184682422ED0831A03EBD37302EBE6
:1036900063031901671861580D78B542EFD1497875
:1036A0007145ECD1DCF81430DCF8182093421ADABA
:1036B00003EB4302DCF8101001339200CCF8143015
:1036C0008B1829D0312088545F601846F8BDAEF1C0
:1036D0003005EBB2092BCED8FEF798FB6369A269DF
:1036E0009342014603DB0020F8BD9646C3E703EB97
:1036F000430220690133920063618318F3D00029EB
:10370000F1D0322484545D6099601846F8BD3321AD
:103710002046FEF7B1F9ABE71846F8BD784F010037
:1037200030B5C26883B000230193137843B3452BAF
:1037300026D02E2B24D0044601AD15E04F2B16D0F9
:10374000FFF7B0FB002302462E21C8B12046FEF74A
:1037500093F92860A0B1E268137800F108054BB135
:10376000452B07D02E2B05D0522B2046E6D153787F
:10377000452BE5D1019818B1836823B103B030BD62
:10378000002003B030BD426811782729F6D1526875
:10379000117C0929F2D15168226B521A22634360CD
:1037A000ECE700BFF8B5C2681378A3F1300109292E
:1037B000044620D9A3F16101192925D9A3F14301B8
:1037C00001292CD94C2B00F08980552B33D153780B
:1037D0006C2B32D0742B2ED1531CC3605378742BB6
:1037E0005BD0422B4FF000050CD129462046BDE8A6
:1037F000F840FEF767BBFEF709FBE3681B78054658
:10380000422BF2D02846F8BDFFF70AFF054618B153
:103810000378312B00F0B280E3681B78F0E7C16ACF
:1038200021B1087800286DD018286BD0432B00F008
:10383000C280442B70D00020F8BD531CC360537865
:103840006C2BCED10232C260FFF76AFF0646002819
:1038500000F0DA80E2681378452BC2D10132E260D1
:103860002046FEF795FA002813DB6369A2699342AC
:103870000FDA03EB43022169920001338D18636173
:1038800007D045238B546E60A860236A626A934216
:103890001CDBE36800251B78B2E70232C260FEF74A
:1038A00077FA0028F5DB6369A2699342F1DA03EB4A
:1038B00043022169920001338D186361E9D04723E7
:1038C0008B546860236A626A9342E2DAE26942F8E2
:1038D00023500133E2682362137891E70132C2601A
:1038E000FEF794FA05460028A5D0E26813785F2B0E
:1038F00086D12046013240F80C2FFEF703FA00284B
:103900008ADA98E7206B8B68034423631378432B90
:1039100051D0442B7FF465AF5378303B052B8AD8C8
:1039200001A050F823F000BF7139000041390000B8
:103930006D39000037380000793900007539000012
:1039400002276369A069951C8342E56030DA03EBC6
:1039500043002669800001333518636128D039B3EC
:10396000082333542F71A960937849E70327E8E7C8
:103970000127E6E70527E4E70427E2E74268266B2C
:1039800093681068224933440733236308F0ACFC82
:1039900000287FF441AF2046FEF738FA2A46034656
:1039A00036212046FEF768F8E36805461B7827E7CE
:1039B0009378002524E75378313B042B3FF63BAF47
:1039C000DFE803F01A03201E1C0002276369A069C8
:1039D000951C8342E560EBDA03EB43002669800027
:1039E000013335186361E3D00029E1D00723335454
:1039F0002F71A960937803E70127E7E70527E5E73B
:103A00000427E3E70327E1E7E36805461B78F7E6C9
:103A1000A853010070B5C3681A784A2A04460DD02D
:103A200071B90D462046FFF77BFE78B103462A4662
:103A300020462921BDE87040FEF71EB80133C3605F
:103A40002046FFF72FFA05460028EBD1002070BD75
:103A5000C3681A78462A01D00020704710B55A1C56
:103A6000C2605A78592A04BF0233C3600121044658
:103A7000FFF7D0FF01462046FEF7A6F8E3681A7864
:103A8000452A01D0002010BD0133E36010BD00BF06
:103A90002DE9F047C3681A78472A05463BD0542AD7
:103AA00039D00E46FFF744F8044628B316B1AB6888
:103AB000DB0725D5EB681B7853B3452B28D021466F
:103AC0000B78042BA3F11C0200F01C81C0F01881BC
:103AD000042A00F2158149680029F1D12846FFF730
:103AE00099FF2246034603212846BDE8F047FDF72B
:103AF000C3BFEB681944E9600020BDE8F087646843
:103B00002378A3F11C02042AF9D9022B00F00A81C0
:103B10002046BDE8F087296B01F114022A631A7868
:103B2000542A73D0472AE7D15A1CEA605A78002AEF
:103B3000E2D09A1CEA605A78413A312ADCD801A1D5
:103B400051F822F01F3E0000F93A0000F93A000057
:103B5000F93A0000F93A0000F93A0000F93A000099
:103B6000F93A0000F93A0000F93A0000F93A000089
:103B7000F93A0000F93A0000F93A0000F93A000079
:103B8000F93A0000F93A0000013E0000F93A00005D
:103B9000373E0000F93A0000EB3D0000F93A000022
:103BA000F93A0000F93A0000F93A0000F93A000049
:103BB000F93A0000F93A0000F93A0000F93A000039
:103BC000F93A0000F93A0000F93A0000F93A000029
:103BD000F93A0000F93A0000F93A0000F93A000019
:103BE000F93A0000F93A0000F93A0000F93A000009
:103BF000F93A0000F93A0000F93A0000F93A0000F9
:103C0000F93A0000F93A0000413D00005A1CEA6010
:103C10005A78002A3FF470AF9A1CEA605B78433B05
:103C2000332B3FF669AF01A252F823F02B3F00007F
:103C3000F93A0000F93A0000153F0000F93A000097
:103C4000FF3E0000E93E0000D33E0000F93A0000CC
:103C5000F93A0000F93A0000F93A0000F93A000098
:103C6000F93A0000F93A0000F93A0000BD3E0000C0
:103C7000A33E0000F93A0000893E00009F3F00008B
:103C8000F93A0000F93A0000F93A0000F93A000068
:103C9000F93A0000F93A0000F93A0000F93A000058
:103CA000F93A0000F93A0000F93A00006B3F0000D1
:103CB000F93A0000F93A0000F93A0000F93A000038
:103CC000B53F0000F93A0000F93A0000F93A000067
:103CD000F93A0000F93A0000F93A0000F93A000018
:103CE000F93A0000F93A0000F93A0000F93A000008
:103CF000F93A0000F93A0000633E0000342B0FD17E
:103D00000021EBE64A685AB11378082B03F1FF3122
:103D1000F4D8072BF4D2012902D89268002AF3D1F3
:103D20000121DBE6A26813781C3B042B04D85268FF
:103D300013781C3B042BFAD9A2602046BDE8F0871B
:103D400005F10C00FDF7DEFF01287FF7D5AEEB682B
:103D50001A78002A3FF4D0AE5F1CEF601B785F2B0F
:103D60007FF4CAAE0022461E90464FF040093B78D1
:103D7000002B3FF4C1AE242B00F02F813C460021E4
:103D800004E014F8013F23B1242B02D00131B142E9
:103D9000F7DB6B69A8698342BFF6ABAE286903EB1A
:103DA000430403F1010E10EB8403C5F814E03FF463
:103DB000A0AE00F824805F609960EF680F44761A27
:103DC000EF60002A00F026813F212846FDF754FECF
:103DD000024600283FF490AE002EC8DC284600239F
:103DE0003E21BDE8F047FDF747BE2846FEF7A0FE9E
:103DF0000023024613212846BDE8F047FDF73CBEEC
:103E00002846FEF795FE04462846FDF7A5FF224604
:103E1000034616212846BDE8F047FDF72DBE0021D8
:103E20002846FFF735FE0023024617212846BDE845
:103E3000F047FDF721BE9A7800212846002A00F0BD
:103E4000EB80DA1CEA609B786E2B40F0E580FFF790
:103E50001FFE0023024649212846BDE8F047FDF732
:103E60000BBE76212846FEF70DF900283FF444AE3C
:103E700000212846FFF70CFE0023024610212846A9
:103E8000BDE8F047FDF7F8BD0F3129632846FFF77D
:103E900009F80023024609212846BDE8F047FDF74E
:103EA000EBBD0A3129632846FEF7FCFF00230246DA
:103EB0000A212846BDE8F047FDF7DEBD2846FEF79B
:103EC000F1FF002302460D212846BDE8F047FDF72B
:103ED000D3BD2846FEF7E6FF0023024612212846FE
:103EE000BDE8F047FDF7C8BD2846FEF7DBFF00231D
:103EF00002460C212846BDE8F047FDF7BDBD284627
:103F0000FEF716FE0023024614212846BDE8F047BE
:103F1000FDF7B2BD2846FEF7C5FF002302460E217D
:103F20002846BDE8F047FDF7A7BD2846FEF7BAFFD3
:103F3000044605F10C00FDF7E5FE0028FFF6DCADB8
:103F4000EB681A785F2A7FF4D7AD0133EB6028461F
:103F5000FEF7A8FF2B6B591D29630246234628460E
:103F60000B21BDE8F047FDF787BD00212846FEF78D
:103F700089F800283FF4C0AD00212846FEF782F8FA
:103F800000283FF4B9AD00212846FFF781FD00234A
:103F9000024611212846BDE8F047FDF76DBD2846D1
:103FA000FEF7C6FD0023024615212846BDE8F0476E
:103FB000FDF762BD68212846FEF764F800283FF44B
:103FC0009BAD00212846FFF763FD002302460F2129
:103FD0002846BDE8F047FDF74FBD7B78532B27D02F
:103FE0005F2B23D0242B7FF487AD18466B69A9691A
:103FF0008B421FDA2C6903EB43015F1C14EB810336
:104000006F6117D004F821905860EF680237023EC4
:10401000EF60D6E61A46DFE6FFF73AFD00230246D8
:1040200048212846BDE8F047FDF726BD2E20DDE7F4
:104030002F20DBE7EB680233EB600020BDE8F08760
:10404000F8B5C26813784C2B01D00020F8BD531C82
:10405000C36051785F2905463CD05A2941D0FEF70C
:1040600021FF0028F1D00378272B48D0EE68337861
:104070006E2B4DD03C21452B50D0002BE5D0334644
:1040800001E0002CE1D00133EB601C78452CF8D125
:104090009C1B6B69AA6993422FDA03EB43022F69D9
:1040A0009200013317EB020E6B6126D02EB324B3BE
:1040B0000023BB547346CEF80460CEF80840024695
:1040C0002846FDF7D9FCEB681A78452ABDD10133A3
:1040D000EB60F8BD931CC36092785A2A18BF002089
:1040E00007D10133EB6000212846FFF7D1FCEB68D4
:1040F0001A78452AEBD00020F8BD0023DFE743689B
:104100001A7C002AB2D05A682B6B9B1A2B63ADE73E
:10411000721CEA6073783D211646ACE70024B8E7CC
:104120002DE9F04F044695B0002A00F0C480D0F885
:104130001831002B40F0B78013780F4615464C2BF2
:1041400001F2F381DFE813F0760955095509C70834
:104150008308D409AA09EC09CF075C0835080E08C2
:10416000E707DE05B70582055B051807F106CA06F5
:10417000A3067C0655062E060506B507B507B50746
:10418000B007B007B007B007B007B007B0077E07A9
:104190007E07B007B0073F07E207050599047E04D4
:1041A000DC037E049C039C0379034F032803F1097D
:1041B0000103FD02C7024D007A041A051F041F0403
:1041C0004A044A042304BE02B1025A023302F8012F
:1041D000D101AA01F10984018A025D011101E70000
:1041E000BD00AE683378382B65D16A6853681968AA
:1041F0004878632802F008811178312902F0CE81D5
:104200005368D149186808F06FF8726818B91378C4
:10421000032B02F05B823946204603F049FAD5F8B9
:104220000480CA49D8F80430D3F80090484608F012
:104230005BF80646002842F02480D4F80011FF29DC
:1042400002F021834A1C5B23C4F80021635484F8E4
:104250000431AB6839469A68204602F051FCD4F824
:104260000011FF2902F04C835D234A1CC4F8002191
:10427000635484F804316B681A78312A13D15B686F
:104280009A68012A0FD15B681B783E2B0BD1D4F8BA
:104290000011FF2902F0198429234A1CC4F80021C7
:1042A000635484F8043115B0BDE8F08FB8F1000F05
:1042B00001D0C4F810610123C4F8183115B0BDE86D
:1042C000F08FA34E6A6802F01BFC06F1080AD4F8CE
:1042D00000114FF000090AE00B460131B245C4F865
:1042E000001104F8038084F8048101F07382FF292F
:1042F00016F8018FF0D1D4F8083184F8FF90D4F883
:104300000C2120469847D4F820310133C4F82031DD
:1043100001210023E2E78F4E6A6802F0F1FB06F10B
:10432000050AD4F800114FF000090AE00B460131EC
:10433000B245C4F8001104F8038084F8048101F048
:104340006382FF2916F8018BF0D1D4F8083184F884
:10435000FF90D4F80C2120469847D4F8203101333F
:10436000C4F8203101210023E2E76968FDF7D6FE99
:104370004FF00009002802F0088203782F2B41F04B
:1043800040834368002B01F03C83806809F10109F8
:104390000028F2D16B6800934FF0000B09F1FF3356
:1043A000DA460193C4F81CB1009A3946204602F05F
:1043B000A7FB019B5B4541F3BD80674DD4F800111D
:1043C00005F1020809E00B460131A845C4F80011C7
:1043D000E65484F8046101F0AD80FF2915F8016B03
:1043E000F1D1D4F8083184F8FFA0D4F80C2120468C
:1043F0009847D4F820310133C4F82031012100233B
:10440000E3E7564ED0F8001106F11A0A4FF0000902
:104410000AE00B460131B245C4F8001104F80380EC
:1044200084F8048101F0C882FF2916F8018FF0D1C9
:10443000D4F8083184F8FF90D4F80C21204698472E
:10444000D4F820310133C4F8203101210023E2E700
:10445000434ED0F8001106F10E094FF0000809E0B4
:104460000B460131B145C4F80011E75484F80471DA
:1044700001F0BE80FF2916F8017FF1D1D4F8083190
:1044800084F8FF80D4F80C2120469847D4F82031D6
:104490000133C4F8203101210023E3E7314ED0F885
:1044A000001106F1080A4FF000090AE00B4601313D
:1044B000B245C4F8001104F8038084F8048101F0C7
:1044C000C780FF2916F8018FF0D1D4F8083184F89D
:1044D000FF90D4F80C2120469847D4F820310133BE
:1044E000C4F8203101210023E2E71F4ED0F800116B
:1044F00006F11C0A4FF000090AE00B460131B245F3
:10450000C4F8001104F8038084F8048101F062808B
:10451000FF2916F8018FF0D1D4F8083184F8FF9004
:10452000D4F80C2120469847D4F820310133C4F840
:10453000203101210023E2E70C4ED0F8001106F1F2
:104540001D0A4FF000091EE07C5301006455010074
:104550001F560100AC5301003C55010007550100F6
:104560000F560100FF550100DF550100BF55010046
:104570000B460131B245C4F8001104F8038084F8F9
:10458000048101F02E80FF2916F8018FF0D1D4F8B4
:10459000083184F8FF90D4F80C2120469847D4F8CD
:1045A00020310133C4F8203101210023E2E7CE4E4F
:1045B000D0F8001106F10A0A4FF000090AE00B4694
:1045C0000131B245C4F8001104F8038084F8048175
:1045D00000F0C387FF2916F8018BF0D1D4F8083119
:1045E00084F8FF90D4F80C2120469847D4F8203165
:1045F0000133C4F8203101210023E2E76A68BB4996
:1046000004A807F03BFE04A808F03AF800283FF49D
:104610004AAE04ADD4F800112F184FF0000809E09D
:104620000B460131BD42C4F80011E65484F8046120
:104630003FF439AEFF2915F8016BF1D1D4F80831F8
:1046400084F8FF80D4F80C2120469847D4F8203114
:104650000133C4F8203101210023E3E7A44ED0F850
:10466000001106F1160A4FF000090AE00B4601316D
:10467000B245C4F8001104F8038084F8048101F005
:104680006280FF2916F8018FF0D1D4F8083184F840
:10469000FF90D4F80C2120469847D4F820310133FC
:1046A000C4F8203101210023E2E7D0F800112D7970
:1046B000FF2901F007854B1CC4F80031655484F8CC
:1046C0000451F0E56A6802F01BFAAA6839462046F0
:1046D00002F016FAE7E56E68AD683378312B01F029
:1046E000C082332B41F07484D0F80011FF2901F00F
:1046F000AC874A1C2823C4F80021635484F8043191
:1047000004A97268D4F82431C4F82411204639462B
:1047100005930492FFF704FDD4F80011059BC4F83B
:104720002431FF2901F0808729234A1CC4F8002185
:10473000635484F804312A463946204602F0B8FF13
:10474000B1E56A6802F076FFADE56A4ED0F8001177
:1047500006F1090A4FF000090AE00B460131B245A3
:10476000C4F8001104F8038084F8048101F0668025
:10477000FF2916F8018FF0D1D4F8083184F8FF90A2
:10478000D4F80C2120469847D4F820310133C4F8DE
:10479000203101210023E2E7564ED0F8001106F146
:1047A000090A4FF000090AE00B460131B245C4F88E
:1047B000001104F8038084F8048101F06880FF2967
:1047C00016F8018FF0D1D4F8083184F8FF90D4F8AE
:1047D0000C2120469847D4F820310133C4F8203109
:1047E00001210023E2E7D5F804A0434DDAF8087070
:1047F000D0F8001105F108084FF0000909E00B4658
:104800000131A845C4F80011E65484F8046100F0B1
:10481000A187FF2915F8016FF1D1D4F8083184F888
:10482000FF90D4F80C2120469847D4F8203101336A
:10483000C4F8203101210023E3E76A68AE680AB1B9
:1048400002F05EF9D4F80031FF2B01F007855A1C05
:104850007B25C4F800213946E5543246204684F8C9
:10486000045102F04DF9D4F80011FF2901F006843B
:104870004A1C7D23C4F80021635484F8043112E5F6
:104880006A680AB102F03CF9AB68002B3FF40BAD4B
:10489000D4F80061FD2E01F25C83DFF860804FF0F8
:1048A000000A08F1020B314609E00B460131C3450D
:1048B000C4F80011E65484F8046101F08480FF29F3
:1048C00018F8016BF1D1D4F8083184F8FFA0D4F8BE
:1048D0000C2120469847D4F820310133C4F8203108
:1048E00001210023E3E700BFA0550100C8530100E8
:1048F0000B5501004B5501003F5501003C5501008F
:10490000B5F90A30002B41F013826A68D34B516825
:10491000994201F08F813946204602F0F1F8D4F82F
:104920000031FF2B01F02786591C2022C4F800110A
:10493000E25484F80421B5F90830002B01F02481F9
:10494000C74D4FF00008AF1D09E00B460131BD42D5
:10495000C4F80011E65484F804613FF4A4ACFF29C4
:1049600015F8016BF1D1D4F8083184F8FF80D4F840
:104970000C2120469847D4F820310133C4F8203167
:1049800001210023E3E70123C0F818318BE4B54E81
:10499000D0F8001106F10E0A4FF000090AE00B46AC
:1049A0000131B245C4F8001104F8038084F8048191
:1049B00000F0C286FF2916F8018FF0D1D4F8083133
:1049C00084F8FF90D4F80C2120469847D4F8203181
:1049D0000133C4F8203101210023E2E76A6811782D
:1049E000272901F080810026D4F80011FF2901F069
:1049F00057844A1C2823C4F80021635484F80431E6
:104A00006A683946204602F07BF8D4F80031FF2B63
:104A100001F07F84591C2922C4F80011E25484F863
:104A200004212B783D2B01F0FA82082E01F0A6829A
:104A3000AA683946204602F063F834E40123C0F83E
:104A4000183130E414ABD0F8142143F8402DC0F8ED
:104A50001431AA68D0F81031079300260595069600
:104A600002F04EF8069B23B92A463946204602F04A
:104A700057F8049BC4F8143115E40DF15009D0F82F
:104A800014B149F840BD0022D0F81031CDF800B083
:104A90005946C0F81491059506920793002901F034
:104AA00007864B681B78193B022B01F20186AC4646
:104AB0004FF001080E464D4604E073681B78193B21
:104AC000022B1DD8B3684FEA081E14AA02EB0E0B86
:104AD0009BB9B8F1030F01F2568396E80F00ABF1D2
:104AE000400A8AE80F004BF8405C012309EB0E05F1
:104AF000C4F8145108F10108B3603668002EDCD107
:104B0000DCF8082039462046654601F0F9FF069B8F
:104B1000009AC4F81421002B7FF4C5ABB8F1010F43
:104B20000ED009EB081959F80C2C08F1FF3839465A
:104B3000204601F0F5FFB8F1010FA9F11009F2D1FB
:104B40002A1D3946D4F81431204602F0A3FBFFF7A2
:104B5000AABB8B0601F172806B681BB117F0400392
:104B600001F03A8327F0600705F108023946D4F8CE
:104B70001431204602F06AFCFFF795BBAB681A7847
:104B80003A2A7FF498AB9A6811783B297FF493AB6B
:104B9000D5F804903449D9F80400D3F804800068AB
:104BA0005668956807F0A0FB002801F09D85042257
:104BB0002E492046FDF774F8D8F8043083B1394601
:104BC0004246204602F074FDD4F80011FF2901F09E
:104BD000E78620234A1CC4F80021635484F804317A
:104BE00032463946204601F08BFF002D3FF45BAB87
:104BF0002A463946204602F05BFDFFF754BB1C4EA7
:104C0000D0F8001106F1110A4FF000090AE00B4636
:104C100001315645C4F8001104F8038084F804817A
:104C200000F0CA84FF2916F8018FF0D1D4F80831BA
:104C300084F8FF90D4F80C2120469847D4F820310E
:104C40000133C4F8203101210023E2E7094ED0F8F6
:104C5000001106F1150A4FF0000918E0844D01001B
:104C60002C5501008F550100885301006C5501003F
:104C7000535401004F5401000B460131B245C4F8B2
:104C8000001104F8038084F8048100F08E84FF2969
:104C900016F8018FF0D1D4F8083184F8FF90D4F8D9
:104CA0000C2120469847D4F820310133C4F8203134
:104CB00001210023E2E7DA4ED0F8001106F1100AD4
:104CC0004FF000090AE00B460131B245C4F800116B
:104CD00004F8038084F8048100F06084FF2916F84A
:104CE000018FF0D1D4F8083184F8FF90D4F80C216A
:104CF00020469847D4F820310133C4F820310121EF
:104D00000023E2E7C74ED0F8001106F1120A4FF077
:104D100000090AE00B460131B245C4F8001104F85D
:104D2000038084F8048100F0F985FF2916F8018FCB
:104D3000F0D1D4F8083184F8FF90D4F80C21204643
:104D40009847D4F820310133C4F8203101210023E1
:104D5000E2E7AF686D68002F3FF4A5AAD0F8001114
:104D60002F444FF0000809E00B460131AF42C4F870
:104D70000011E65484F804613FF495AAFF2915F860
:104D8000016BF1D1D4F8083184F8FF80D4F80C21FC
:104D900020469847D4F820310133C4F8203101214E
:104DA0000023E3E7A04ED0F8001106F1110A4FF0FE
:104DB00000090AE00B460131B245C4F8001104F8BD
:104DC000038084F8048100F0B085FF2916F8018F74
:104DD000F0D1D4F8083184F8FF90D4F80C212046A3
:104DE0009847D4F820310133C4F820310121002341
:104DF000E2E78E4ED0F8001106F1150A4FF00009D7
:104E00000AE00B4601315645C4F8001104F803804E
:104E100084F8048100F09085FF2916F8018FF0D105
:104E2000D4F8083184F8FF90D4F80C212046984734
:104E3000D4F820310133C4F8203101210023E2E706
:104E40007B4ED0F8001106F1190A4FF000090AE074
:104E50000B4601315645C4F8001104F8038084F86C
:104E6000048100F09B85FF2916F8018FF0D1D4F85A
:104E7000083184F8FF90D4F80C2120469847D4F8E4
:104E800020310133C4F8203101210023E2E7694ECB
:104E9000D0F8001106F1160A4FF000090AE00B469F
:104EA00001315645C4F8001104F8038084F80481E8
:104EB00000F0BD84FF2916F8018FF0D1D4F8083135
:104EC00084F8FF90D4F80C2120469847D4F820317C
:104ED0000133C4F8203101210023E2E7564ED0F817
:104EE000001106F1130A4FF000090AE00B460131E8
:104EF0005645C4F8001104F8038084F8048100F0DA
:104F00005485FF2916F8018FF0D1D4F8083184F8C0
:104F1000FF90D4F80C2120469847D4F82031013373
:104F2000C4F8203101210023E2E7444ED0F80011FB
:104F300006F10F0A4FF000090AE00B460131564511
:104F4000C4F8001104F8038084F8048100F0188389
:104F5000FF2916F8018FF0D1D4F8083184F8FF90BA
:104F6000D4F80C2120469847D4F820310133C4F8F6
:104F7000203101210023E2E7314ED0F8001106F183
:104F80001A0A4FF000090AE00B4601315645C4F8F1
:104F9000001104F8038084F8048100F01483FF29D1
:104FA00016F8018FF0D1D4F8083184F8FF90D4F8C6
:104FB0000C2120469847D4F820310133C4F8203121
:104FC00001210023E2E711F0040740F05D856A68E3
:104FD00053681568002B3FF466A9D0F8001105EB63
:104FE000030809E00B4601314545C4F80011E654B9
:104FF00084F804613FF457A9FF2915F8016BF1D13A
:10500000D4F8083184F8FF70D4F80C212046984772
:10501000D4F820310133C4F8203101210023E3E723
:105020003B54010027540100F3540100DB540100FC
:10503000BF540100A75401009354010083540100A0
:105040006754010068680378052B00F098864FF0DC
:105050000008232B00F0BA852A789A4200F0B68522
:10506000242B01F0E880D4F81401D4F81021059520
:1050700014AB002143F8400D0691C4F81431079297
:105080006A683946204601F03BFD069B002B00F084
:10509000B184049BC4F81431B8F1000F3FF403A9A4
:1050A000C4F81061FFF7FFB8D0F814014FF0000802
:1050B000DBE7D0F814C1BCF1000F01F0DD836246DC
:1050C000916851B950680078A0F1190EBEF1020F35
:1050D00000F27387834200F074871268002AEFD1D0
:1050E00060469046C1E7D0F80011FF2900F0B5876F
:1050F0004A1C7E23C4F80021635484F804313946E5
:10510000AA68204601F0FCFCFFF7CDB86A6801F000
:10511000F7FCFFF7C8B8DD4ED0F8001106F10D0A14
:105120004FF000090AE00B460131B245C4F8001106
:1051300004F8038084F8048100F0E983FF2916F85D
:10514000018BF0D1D4F8083184F8FF90D4F80C2109
:1051500020469847D4F820310133C4F8203101218A
:105160000023E2E7CA4ED0F8001106F1180A4FF00A
:1051700000090AE00B460131B245C4F8001104F8F9
:10518000038084F8048100F09083FF2916F8018FD2
:10519000F0D1D4F8083184F8FF90D4F80C212046DF
:1051A0009847D4F820310133C4F82031012100237D
:1051B000E2E7B84ED0F8001106F1080A4FF00009F6
:1051C0000AE00B460131B245C4F8001104F803802F
:1051D00084F8048100F06283FF2916F8018FF0D172
:1051E000D4F8083184F8FF90D4F80C212046984771
:1051F000D4F820310133C4F8203101210023E2E743
:10520000A54ED0F8001106F10B0A4FF000090AE094
:105210000B460131B245C4F8001104F8038084F84C
:10522000048100F0B481FF2916F8018BF0D1D4F885
:10523000083184F8FF90D4F80C2120469847D4F820
:1052400020310133C4F8203101210023E2E700239B
:10525000D0F81491D0F84081C0F81431C0F8405112
:105260004A076E6805D533781BB9B268062A01F083
:105270006F8132463946204601F042FC94F80431F1
:105280003C2B00F05886D4F80031FF2B01F02E8023
:10529000591C3C22C4F80011E25484F80421394618
:1052A000AA68204601F02CFC94F804313E2B00F053
:1052B0003486D4F80031FF2B01F00580591C3E22C2
:1052C000C4F80011E25484F80421C4F81491C4F81D
:1052D0004081FEF7E8BF0022D0F81431C0F8142155
:1052E0006E680093002E00F033810DF11009D0F8A4
:1052F00010C1964610464B4631781A60A1F11C0A3F
:10530000BAF1040FC4F814315E609860C3F80CC0A1
:105310001A460EF1010803F1100340F2128104292C
:1053200001F0FD81022936D1D6F808B09BF8003093
:10533000462B01F0B8829BF800301C3B042B2AD886
:10534000B8F1040F00F004812B4609EB0E1EB246A3
:105350005D4666469B46A446744603E0B8F1040FDA
:1053600001F08E8294E80F0004F1100E8EE80F0019
:10537000234600221C615D609A60DE60CCF814E177
:105380006D682B781C3B042B744608F10108E5D9A5
:10539000564664465D46AA683946204601F0B0FB91
:1053A0003378042B02D1029BC4F8103109EB0819A1
:1053B00045462026B84659F8087C013D87B9D4F8FF
:1053C0000011FF2901F037824B1CC4F8003159F855
:1053D0000C2C66542046414684F8046101F0A0FB81
:1053E000A9F11009002DE6D1009BC4F81431FEF795
:1053F0005ABF6A6801F084FB17F0040900F0688561
:10540000D4F80011FF2901F048804A1C2E23C4F86B
:105410000021635484F80431D5F8088098F80030EE
:10542000462B00F0608642463946204601F068FB74
:10543000FEF739BF11F0040740F05083AB686D6888
:10544000002B3EF430AFD0F8001105EB030809E063
:105450000B460131A845C4F80011E65484F80461F4
:105460003EF421AFFF2915F8016BF1D1D4F80831D2
:1054700084F8FF70D4F80C2120469847D4F82031E6
:105480000133C4F8203101210023E3E7185401005F
:10549000F3530100E7530100DC5301006F68002F54
:1054A00000F09983D54DD0F8001105F106094FF0B1
:1054B000000809E00B4601314D45C4F80011E654DF
:1054C00084F8046100F0A582FF2915F8016BF1D181
:1054D000D4F8083184F8FF80D4F80C21204698478E
:1054E000D4F820310133C4F8203101210023E3E74F
:1054F000291DFCF7F1FD00283EF4DDAE03782F2BCB
:1055000000F06B85D4F810512B68C4F810310246B6
:105510003946204601F0F4FAC4F81051FEF7C3BE34
:10552000AA6801F0EDFAFEF7BEBE0123C0F81831FB
:10553000FEF7B9BE0BF1010BCB457EF433AFFEF79E
:10554000B2BE7668C6461EB1BEF1040F7FF4D4AE7B
:105550000123C4F81831FEF7A6BE39466A68204612
:1055600001F0CEFAD4F80011FF2900F023864A1C7E
:105570002923C4F80021635484F80431FEF793BE54
:105580006A683946204601F0BBFAFEF78CBE6A68AD
:105590003946204601F0B4FAFEF785BE6A683946FE
:1055A000204601F0ADFAFEF77EBE6A683946204615
:1055B00001F0A6FAFEF777BE6A683946204601F088
:1055C0009FFAFEF770BE6A683946204601F098FAE5
:1055D000FEF769BE6A683946204601F091FAFEF787
:1055E00062BE6A683946204601F08AFAFEF75BBE61
:1055F0006A688349013204A806F040FE04A807F057
:105600003FF8002800F08A8004ADD4F800112F186C
:105610004FF0000808E00B460131BD42C4F800110C
:10562000E65484F804617BD0FF2915F8016BF2D1B0
:10563000D4F8083184F8FF80D4F80C21204698472C
:10564000D4F820310133C4F8203101210023E4E7EC
:105650006C4E6A683946204601F052FA06F102099A
:10566000D4F800114FF0000808E00B460131B145B5
:10567000C4F80011E75484F8047113D0FF2916F818
:10568000017BF2D1D4F8083184F8FF80D4F80C21E2
:1056900020469847D4F820310133C4F82031012145
:1056A0000023E4E7AA685649013204A806F0E6FDA3
:1056B00004A806F0E5FF18B304ADD4F800112F18C4
:1056C0004FF0000808E00B460131AF42C4F800116A
:1056D000E65484F8046115D0FF2915F8016BF2D166
:1056E000D4F8083184F8FF80D4F80C21204698477C
:1056F000D4F820310133C4F8203101210023E4E73C
:10570000D4F80011FF2900F0CB844A1C7D23C4F893
:105710000021635484F80431FEF7C5BDD4F80011AC
:10572000FF2900F01E854A1C7D23C4F80021635424
:1057300084F80431FEF7B7BD6A683946204601F0A7
:10574000DFF9FEF7B0BD6A683946204601F0D8F9A6
:10575000FEF7A9BDDAF804502B78613B192B0BD862
:10576000FF2900F0948720234A1CC4F800216354C9
:1057700084F80431DAF80450EB1913F8013C202BBB
:1057800008BF07F1FF37002F3EF48DADD4F80011AC
:105790002F444FF0000809E00B460131AF42C4F836
:1057A0000011E65484F804613EF47DADFF2915F83C
:1057B000016BF1D1D4F8083184F8FF80D4F80C21C2
:1057C00020469847D4F820310133C4F82031012114
:1057D0000023E3E73946AA68204601F091F9D4F89E
:1057E0000011FF2900F027844A1C5D23C4F8002122
:1057F000635484F80431FEF756BD00BFB85501006C
:10580000C85301000C5601003946AA68204601F031
:1058100077F9D4F80011FF2900F0BA844A1C5D23FF
:10582000C4F80021635484F80431FEF73CBD6A6873
:105830003946204601F064F9FEF735BDD4F8402121
:105840003AB114ABD4F8101143F8481D0392C4F8D0
:1058500010316B681A78042A00F0F08204A81A4606
:10586000D4F82451C4F82401394620460493059500
:10587000FEF756FCD4F84031059AC4F82421002BD9
:105880003EF411AD029BC4F81031FEF70CBDAA68BE
:105890003946204601F034F9FEF705BD6A683946FD
:1058A000204601F02DF9FEF7FEBCCE4E6A6839465F
:1058B000204601F025F906F1040AD4F800114FF052
:1058C000000909E00B4601315645C4F8001104F8FF
:1058D000038084F8048113D0FF2916F8018BF1D1DD
:1058E000D4F8083184F8FF90D4F80C21204698476A
:1058F000D4F820310133C4F8203101210023E3E73B
:10590000AA683946204601F0FBF8FEF7CCBC6A686D
:105910003946204601F0F4F8FEF7C5BC6A683946FE
:10592000204601F0EDF8FEF7BEBC6A683946204615
:1059300001F0E6F8FEF7B7BCAB4EAA683946204640
:1059400001F0DEF806F1050AD4F800114FF0000965
:1059500009E00B4601315645C4F8001104F80380F4
:1059600084F8048113D0FF2916F8018BF1D1D4F803
:10597000083184F8FF90D4F80C2120469847D4F8D9
:1059800020310133C4F8203101210023E3E76A68A4
:105990003946204601F0B4F8FEF785BC6A683946FE
:1059A000204601F0ADF8FEF77EBC6A683946204615
:1059B00001F0A6F8FEF777BC6A683946204601F088
:1059C0009FF8FEF770BCAA68D4F820510E46204616
:1059D000394601F095F8D4F820319D427EF463AC4D
:1059E000D4F80031B3427EF45EAC023EC4F80061EC
:1059F000FEF759BC2A463946204601F091F8FFF7D8
:105A000048BB6B680093B9F1000F7EF4C5ACFEF79C
:105A10004ABC3A4604A8754906F030FC04A806F0D2
:105A20002FFE18B304ADD4F800112F184FF0000862
:105A300008E00B460131BD42C4F80011E65484F879
:105A4000046115D0FF2915F8016BF2D1D4F80831A3
:105A500084F8FF80D4F80C2120469847D4F82031F0
:105A60000133C4F8203101210023E4E7D4F8001108
:105A7000FF2900F069844A1C7D23C4F80021635487
:105A800084F80431FEF70FBC6B68DF689D68002F57
:105A90003EF409ACD0F800112F444FF0000809E0A3
:105AA0000B460131AF42C4F80011E65484F804619A
:105AB0003EF4F9ABFF2915F8016BF1D1D4F80831A8
:105AC00084F8FF80D4F80C2120469847D4F8203180
:105AD0000133C4F8203101210023E3E76E68AF6889
