:1000000000000320D1010000490C0000150C000085
:10001000150C0000150C0000150C0000150C00005C
:10002000150C0000150C0000150C0000490C000018
:10003000490C0000150C0000651200006912000058
:10004000490C0000490C0000490C0000490C00005C
:10005000490C0000490C0000490C0000490C00004C
:10006000490C0000490C0000490C0000490C00003C
:10007000490C0000490C0000490C0000490C00002C
:10008000490C0000490C0000490C0000490C00001C
:10009000490C0000490C0000490C0000490C00000C
:1000A000490C0000490C0000490C0000490C0000FC
:1000B000490C0000490C0000490C0000190B00001D
:1000C000490C0000490C0000490C0000490C0000DC
:1000D000490C0000490C0000490C0000490C0000CC
:1000E000490C0000490C0000490C0000490C0000BC
:1000F000490C0000490C0000490C0000490C0000AC
:10010000490C0000490C0000490C0000490C00009B
:10011000490C000055140000490C0000490C000077
:10012000490C0000490C0000490C0000490C00007B
:10013000490C0000490C0000490C0000490C00006B
:10014000490C0000490C0000490C0000490C00005B
:10015000490C0000490C0000490C0000490C00004B
:10016000490C0000490C0000490C0000490C00003B
:10017000490C0000490C0000490C0000490C00002B
:10018000490C0000490C0000490C0000490C00001B
:10019000490C0000490C0000490C0000490C00000B
:1001A000490C0000490C0000490C0000490C0000FB
:1001B000490C0000490C0000490C0000490C0000EB
:1001C000490C0000490C0000490C0000490C0000DB
:1001D0005C4B4CF2205210B51A804DF628121A8052
:1001E00000BF00BF00F034FD574B4FF030621A6083
:1001F000564A9A60564ADA60564B4FF470021A60BB
:10020000554B564A1A60564B1A78110748BF1A7850
:10021000544944BF42F008021A70534BAA221A7084
:10022000524A534B8B4204D252F8040F43F8040B4A
:10023000F8E7504B504A0021934202D243F8041B86
:10024000FAE74E4A4E48002350F8231042F8231094
:100250000133742BF8D14B4B4B4A802103F8011B1F
:100260009342FBD1494B454A1A60494B8A221A7086
:10027000A3F5805324225A70A0221A709A7992070B
:10028000FCD59A79D406FCD4424A937903F00C0346
:10029000082BFAD1404B60221A70404A1378802B09
:1002A000FCD13C4B00221A7150225A719A79900667
:1002B000FCD59979374A4906FBD5394B394919603C
:1002C0000021596020231370937903F00C030C2B49
:1002D000FAD1354B354A1A60354A364C136813F457
:1002E000807302BF23604FF4A8531360324B334A2C
:1002F0001A6000225A60072243F8042C304AC3F8DF
:100300000C2D62B601F080FF2368DA0705D52D4871
:1003100001F0E4FE2C4B2D4A1A602D4B1B785B0636
:1003200009D5294C294B22689A4204D1254801F06D
:10033000D5FE0023236002F0ADF800F08FFC00F042
:10034000E3FEFEE70E20054030800440823F0400BB
:100350000100002B88ED00E0002008E0030000858C
:1003600002D007404410FF1F00E00740FC310000AE
:100370003007FF1F4410FF1F7012FF1F0002FF1FF6
:100380000000000000E400E064E400E008ED00E0AC
:10039000005006400040064001E0074003E00740EF
:1003A000448004400000070304800440C01007009C
:1003B00010D0034014D0034014E000E0FFE7030036
:1003C0000000202000DD68501CE00340A5C3945AC3
:1003D00000F00740FFFFFFFFFFFFFFFFFFFFFFFFF2
:1003E000FFFFFFFFFFFFFFFFFFFFFFFFFFFFFFFF1D
:1003F000FFFFFFFFFFFFFFFFFFFFFFFFFFFFFFFF0D
:10040000FFFFFFFFFFFFFFFFFFFFFFFFDEF9FFFF23
:1004100010B5054C237833B9044B13B10448AFF33E
:1004200000800123237010BD4410FF1F0000000056
:1004300000320000084B10B51BB108490848AFF363
:1004400000800848036803B910BD074B002BFBD0A0
:10045000BDE81040184700BF000000004810FF1F13
:10046000003200004410FF1F0000000008B500F03B
:10047000A1FC002804DD00F05BFCC0B200F00CFA27
:1004800000F0D4FA002804DD00F0E0FAC0B200F079
:1004900029FD0C21034800F0B3FC0348BDE80840E7
:1004A00000F0A2BDF42E00003807FF1F01490248EA
:1004B00000F042BE40420F004C07FF1F2A4A13685B
:1004C00043F480631360294A00231370284A137091
:1004D000284A1370284A1370284A1370284B1B7837
:1004E000152B06D01B2B08D05BB940F21332254BDD
:1004F00006E040F21332244B02E0244B40F2133268
:100500001A60234B1B78052B07D01A2B09D0012B1F
:100510000BD14FF451721F4B06E04FF451721E4B3A
:1005200002E01E4B4FF451721A601F281C4B98BFFB
:100530002020C0F344321A70C0F347125A7000F002
:100540001F000422022198729A70D9745A75882269
:100550001A743C22DA70134B40221A70A3F21F3334
:100560004FF000421A60704734800440E710FF1FCC
:100570006510FF1FF010FF1FE810FF1F6410FF1F22
:10058000A610FF1F40A0044018C004403C90044047
:100590003007FF1F44A004401CC0044038900440B2
:1005A00000A006401FE400E0184B9A7802F0EC012E
:1005B00000F003020A43410748BF42F010029A705C
:1005C000124900F00F02042A02BF8A7942F0400269
:1005D0008A715A79C30602F0EF020C4B48BF42F011
:1005E00010025A719A79810602F0EF0248BF42F078
:1005F00010029A71C305054906D54B780A78DBB21B
:1006000042F020020A704B70704700BF00A0064005
:10061000254B1B685B0510B500D410BD234C237817
:1006200003F0FF0213B100F003FDF8E7204B4FF099
:10063000004119601F4BDA701F4B1B78152B06D039
:100640001B2B08D05BB940F203121C4B06E040F2B2
:1006500003121B4B02E01B4B40F203121A601A4BB1
:100660001B7803F07F03052B07D01A2B09D0012B31
:100670000BD140F20312154B06E040F20312144B6B
:1006800002E0144B40F203121A600A4B1A79124A24
:10069000DB7900231370114A1370114B1B680BB1E7
:1006A00001221A7010BD00BF348004406410FF1F87
:1006B00080E100E000A00640A610FF1F40A004401B
:1006C00018C004403C9004403007FF1F44A0044081
:1006D0001CC0044038900440E710FF1F6510FF1F46
:1006E0006010FF1F0A4A38B50446137803F0FF056F
:1006F000002BFAD10121204601F020FD2946204699
:1007000001F0FCFC034B53F83420034B1A6038BD56
:100710006410FF1F8C2F0000EC10FF1F10B509B1F3
:1007200040F08000194A1378984214462DD0184A98
:100730001268520528D503F07F03052B06D01A2B2B
:1007400007D0012B08D10022124B04E00022124BEB
:1007500001E0124B00221A60002900F07F0214BF52
:1007600060234423052A07D01A2A09D0012A0BD175
:1007700043F44073074A06E043F44073064A02E03C
:10078000064A43F440731360207010BD3007FF1F0A
:100790003480044044A004401CC00440389004400D
:1007A000144A1378834223D01349096849051ED59A
:1007B000152B05D01B2B06D043B910490B6005E063
:1007C00000210F4B01E00F4B00211960152806D0C6
:1007D0001B2808D058B940F21331084B06E040F20C
:1007E0001331074B02E0074B40F2133119601070D0
:1007F000704700BFA610FF1F3480044040A0044093
:1008000018C004403C90044038B50D4B1B6813F4ED
:1008100080634FF0000410D03F280A4D0AD80A4BDD
:10082000012153F830302B6001F088FC2B681C70DC
:10083000012038BD2C60204638BD184638BD00BFA9
:10084000348004406010FF1F8C2F00000E4B1B688B
:1008500013F4806316D012280C4B03D140F20231FE
:100860000B4A04E0142809D10A4A40F2023111600F
:100870005A7B42F001025A73012070475A7B02F002
:10088000FE025A73002070473480044000A00640E6
:100890000CA0044014C004402DE9F8431F4B1B6812
:1008A0005A05064637D51E4B1B680BB101221A703C
:1008B0001C4DDFF880902C781B4F0134402C28BF52
:1008C0000024C84699F80030A34219D100F0DEF99F
:1008D000402810DC3B791B06F4D599F80030134A08
:1008E0000133402B28BF0023D25CDBB2D2B2FA71B5
:1008F00088F80030E6E7FF28E4DD00F099FBE1E747
:100900000A4BF6B21E550A4B01221A70064BE4B28E
:10091000BC222C70DA70BDE8F88300BF348004403C
:10092000EC10FF1FF010FF1F00A006406610FF1F15
:100930006410FF1FE810FF1F2DE9F84F264B1B68BE
:100940005A050646884645D5244B1B680BB1012243
:100950001A70234FB246B94606EB08039A4536D2C1
:100960003C78204BDFF87CB01B780134402C28BF4A
:1009700000249C420AD01C4B1AF8011B19551B4B32
:100980000121E4B2197089F80040E5E7184DBC2355
:10099000EB7000F07BF9402810DC2B791B0611D599
:1009A0009BF80030104A0133402B28BF0023D05C55
:1009B000DBB2C0B2E8718BF8003003E0FF2801DD44
:1009C00000F036FB9BF800309C42E2D0D3E7084BA6
:1009D000BC22DA70BDE8F88F34800440EC10FF1FB1
:1009E000F010FF1FE810FF1F6610FF1F6410FF1FAD
:1009F00000A0064010B5034C237813B100F018FB9B
:100A0000FAE710BD6410FF1F064B1878064B1A78E2
:100A1000C0B2D3B298422CBF3F3303F1FF33181A50
:100A2000704700BFF010FF1FE810FF1F054B18783C
:100A3000054B1A78C0B2D3B2984238BF4030C01AC2
:100A4000704700BFE710FF1F6510FF1F10B5104B68
:100A5000104C1B782278D9B2D2B2914214D0531CD8
:100A6000402B28BF00230C4AD05CDAB222700B4A1C
:100A70001268C0B252B18B4288BF4031CB1A1A2BD8
:100A800004DC0023137010BD4FF0FF3010BD00BF19
:100A9000E710FF1F6510FF1FA710FF1F6010FF1F4B
:100AA000084B1A78084B1B78DBB29A4207D0013307
:100AB000402B28BF0023054AD05CC0B270474FF0DE
:100AC000FF307047E710FF1F6510FF1FA710FF1FC3
:100AD0000C4B1B685B0514D50B4BDA7802F0CB028C
:100AE000DA7040225A74DA7842F03402DA70074B36
:100AF000074A1B78DBB21370064B1B680BB1002250
:100B00001A7070473480044000A006406510FF1F33
:100B1000E710FF1F6010FF1FF0B534490B7913F089
:100B2000300F2FD072B68B7D03F0FF0423B9CB7941
:100B300040234B7462B625E062B62D482D4A0378F7
:100B400012782D4FDBB2D2B20546581C4028CE7920
:100B500028BF00209042F6B21CBF3E540346601EE0
:100B600010F0FF04F1D1D9B229702449096849B1C4
:100B7000934236BFC2F140029B1A9B18272BC4BF79
:100B800001230B70194AD178C9B20D061ED513790D
:100B90001C061BD51A4B1B481D7803781A4EEDB264
:100BA000DBB2AB420AD00133402B28BF00231479BB
:100BB000F45CE4B2D471147D072CF2D9DBB203707B
:100BC0000A4B1A79100644BF7C22DA7049060CD50C
:100BD000064B1A79520608D50C4A002111700C4AAE
:100BE000126802B111703C22DA70F0BD00A006401C
:100BF000E710FF1F6510FF1FA710FF1F6010FF1FEA
:100C0000F010FF1FE810FF1F6610FF1F6410FF1F8A
:100C1000EC10FF1F08B50B4D2C462B68580301D56F
:100C200000F018FC2368590501D5FFF775FF23680C
:100C30001A0501D500F008F82368DB04EDD500F0B3
:100C400003F8EAE73480044008B5FFF7E3FFFFFF4D
:100C5000014B10221A807047002005407047FFFFAB
:100C6000094908B50B6868B16A461844A2F50052F4
:100C7000904206D301F008FC0C2303604FF0FF30D4
:100C800008BD0860184608BD3407FF1FEFF3138046
:100C9000A8B9EFF31082A2B9EFF3058323B10F2BAC
:100CA00005D9084A985C03E04FF4807000E01046D4
:100CB000EFF311832BB1984228BF184670474FF0CD
:100CC000FF307047F0E300E0094B1A78802A0DD11D
:100CD000084A0949116002F5573202F2BD3200217B
:100CE00011701A78802AFCD00120704700207047CC
:100CF00003E007404480044000001713094B1A78B2
:100D0000012A0DD102F1804202F5FC22602111700E
:100D10001A78802AFCD1044B044A1A6001207047DB
:100D20000020704703E007404480044000000703B0
:100D300010B5104C23686BB1206843885A1C0344DB
:100D40001C7A03889A4212D301F0A6F9094B0022BB
:100D50001A600DE0084B1B7813B94FF0FF3010BD3F
:100D6000032000F09DFA20600028E5D1F5E74280DD
:100D7000204610BDFC10FF1F1412FF1F10B50B4CB6
:100D8000236813B122686AB902E0094B1B7813B9D2
:100D90004FF0FF3010BD032000F082FA20600028E1
:100DA000F0D1F5E753881344187A10BDFC10FF1FEB
:100DB0001412FF1F044B9888044B1A681AB1138849
:100DC00052889B1A184470476412FF1FFC10FF1FC3
:100DD00010B5094B1B786BB1084C206818B101F0B5
:100DE0005BF900232360032000F05AFA10B101F0F0
:100DF00053F9F8E710BD00BF1412FF1FFC10FF1FCE
:100E00002DE9F84F314DDFF8D490012382460C468E
:100E10002B700E464F46002E53D0D9F800303BBB06
:100E2000DFF8BC80DFF8ACB0294B1B7803F0FF0182
:100E30000BB9297015E0042000F050FA072807D8F4
:100E400001232B7001F00AF9386088B91F4B187024
:100E5000B8F1010802D09BF8003033B11D4B0122DC
:100E60001A704FF0FF30BDE8F88F00F0E1F8DBE7D3
:100E7000184B0021197039684B88C3F14000B0420B
:100E800028BF304603EB000E0B44A1F802E0361AEF
:100E900007330AEB0008C24504D01AF8010B03F827
:100EA000010FF8E74B883F2B06D940230B80042025
:100EB00000F08EFA00233B60074B05221A70C246F1
:100EC000A9E72E702046BDE8F88F00BFF210FF1F83
:100ED0001412FF1FF810FF1FF110FF1FF410FF1F67
:100EE0007DD2010007B502AB012103F8010D1846C0
:100EF000FFF786FF03B05DF804FBFFFF38B50E4C2B
:100F00000E4D012323702B687BB90D4B1B7813B951
:100F10000020207038BD042000F0E0F90728F7D841
:100F200001F09CF828600028F2D02B685888002334
:100F30002370C0F1400038BDF210FF1FF410FF1FF6
:100F40001412FF1F2DE9F041114B1B78F3B1114F23
:100F5000114B3C68114D01261E7098464CB100267D
:100F600063882E7021462380042000F031FA3E6011
:100F700009E001F073F8014620B104202C7000F064
:100F800027FA00E02E70002388F80030BDE8F081D9
:100F90001412FF1FF410FF1FF210FF1FF110FF1FAC
:100FA00038B50E4B1B7803F0FF05ABB90C4C21682C
:100FB00031B14B880B80042000F00AFA256038BD5F
:100FC00001F04CF8014620B10420BDE8384000F0A3
:100FD000FFB9044B01221A7038BD00BFF210FF1F89
:100FE000F410FF1FF110FF1F07B5064B1B88ADF86B
:100FF0000430036802225B6801A9984703B05DF8DA
:1010000004FB00BF012F0000FFF7E2BEFFF7B6BEF2
:10101000FFF78EBEFFF7CEBEFFF794BFFFF76EBFA0
:1010200008461146FFF7ECBE0846FFF75BBFFFFF1F
:101030002DE9F8432C4C2378002B52D02B4D2A78E5
:10104000002A4ED10122D9072A700BD5FFF7B2FE34
:1010500008B101F017FA264B1B781BB1237823F057
:101060000103237023789A0714D5DFF89480DFF802
:101070009490002698F80020F3B29A420AD959F8C1
:1010800023703B6838461B69984708B13B6998470D
:101090000136EFE700232B7023785B0721D5154934
:1010A0000B68F3B1EFF30583DBB9EFF3108272B68F
:1010B000086810B1104C25781DB192B962B6BDE830
:1010C000F8830123237043690B600BB19D6101E03C
:1010D0000A490B6002B962B60025457783689847D4
:1010E0002570BDE8F88300BF4807FF1F0111FF1FEF
:1010F0000408FF1F1011FF1F1411FF1F0C11FF1F09
:101100003011FF1F1811FF1F08B5FFF7CFF9FFF7C8
:10111000ADF9FFF78DFFFAE70368C9B21B681847FE
:101120000368C9B21B6818470368C9B21B6818472F
:101130000368C9B21B6818474B0810B5044603F191
:10114000F45000F59020B0FBF1F0FFF7B7F9044B35
:101150001B7823B92046BDE8104000F08DB810BDC3
:101160000508FF1F08B50846FFF796FB012008BDDC
:1011700008B50846FFF790FB012008BD38B50846C2
:101180000D4601F09DFC044601462846FFF7D4FBBE
:10119000204638BD10B5084614461146FFF7CCFB73
:1011A000204610BDFFF794BC08B50846FFF74EFB7C
:1011B000003018BF012008BD08B50846FFF724FB22
:1011C000003018BF012008BD08461146FFF7A6BA37
:1011D0000846FFF7E5BA0846FFF784BAFFF718BAE2
:1011E00010B54B0803F1F450144600F59020B0FB05
:1011F000F1F0FFF763F92046BDE81040FFF7D4B9DE
:10120000FFF74EBCFFF722BCFFF710BCFFF7F2BBA5
:10121000FFF7FABBEFF3108072B6B0FA80F0400926
:10122000704700B162B67047F8B50C4E0C4F002500
:10123000FFF7F0FF346802466CB1636933600BB1AD
:101240009D6100E03B601046FFF7EBFF6577A36808
:1012500020469847ECE7FFF7E4FFF8BD0411FF1FB5
:101260000811FF1FFFF7E0BF024A13680133136044
:10127000704700BF1C12FF1F064A1378591C1170DB
:10128000054A42F82300054A137843F0020313701D
:10129000704700BF3011FF1F1811FF1F4807FF1FC5
:1012A000431E032B14D872B60A4951F8230068B1C3
:1012B00070B4094C058834F81320466841F823605F
:1012C000521B24F8132062B670BC704762B6704798
:1012D000002070478C11FF1F6412FF1F0138032884
:1012E0000BD872B6074B53F8203043B100205B682F
:1012F0000130002BFBD162B67047002070471846C2
:10130000F9E700BFE011FF1F30B472B62B4A137823
:101310001D0706D52A4B196A002936D0996A00297B
:1013200041D053781C0706D5254B196C00293ED0B7
:10133000996C002939D09378190705D5204B196E7F
:10134000002936D0996E89B1D3781B0707D51C4B7D
:10135000D3F880207AB3D3F8882011213AB162B64D
:10136000184B00221A7030BC00F096BE0D21154CAF
:10137000154D227843F8315003EBC1030830013A90
:101380005860227062B630BC704704220D4C0F4D7D
:10139000217843F8325003EBC20308304A1E5860EC
:1013A000227062B6EFE70521E1E70921DFE70822B5
:1013B000ECE70C22EAE71022E8E700BF8C310000DE
:1013C0000000FF1F0912FF1FC800400088004000F6
:1013D000431E032B1DD81B4A400140F0100030B4BF
:1013E000104472B6184CE25C032A1BD8DFE802F006
:1013F0000212151703220D88E25410F0080F14BFD3
:10140000C823882343EA054308310360416062B67C
:1014100030BC704708300222EDE70522EBE70830C8
:101420000422E8E7094A52F8230038B1084A52F882
:101430002300416042F8231062B6E9E742F8231026
:10144000034AF7E70000FF1F1812FF1FE011FF1FFC
:10145000F011FF1F2DE9F04FB74CB84E87B046E0B2
:10146000B74F4FEA930B07EBCB08013DD8F80410B8
:1014700003F00803EDB2A1F1080003F0FF0C002B0C
:1014800040F0138157F83B301B0C1FFA83FE21F804
:1014900008EC002B00F00081AA4B21F806CC53F891
:1014A000252041F804CC002A00F07E81DFF8D4A288
:1014B0005AF825305860DFF8D0924AF8250039F8FC
:1014C00015309E4429F815E000F0C8FD002800F012
:1014D00064819D499D4B18F0080F00F1080018BF6A
:1014E0000B46C8F8040047F83B30082323702578E2
:1014F000EDB269071AD5964B1B78ABB195490A78BE
:1015000002F0FF032AB1013BDBB20B70002B00F0AD
:10151000258591490A7802F0FF032AB1013BDBB22D
:101520000B70002B00F036810423237005F00803B4
:1015300003F0FF02002B00F0E7803378DBB21D09D7
:101540008ED19B087E4D55F8332005EBC301C2F3C5
:101550008302013A49680C2A00F28F80DFE802F02A
:1015600091918D8D8D8D8D8D4D8D8D8D07000868A0
:10157000DFF8F8E14A68DFF814B2784FCEF80420BB
:10158000CEF8000082B240F281600021DFF8B8910D
:1015900045F833904FF0010C8242CBF800102961DE
:1015A000A96187F800C0DFF8989100F20281B2F5D6
:1015B000D06F80F0A583B2F5817F00F08C8300F2BC
:1015C000A082802A00F00E83822A40F04483BEF875
:1015D000043003F07F03042B00F23D83604A61482E
:1015E0009B001A440170417013789B0740F1A78358
:1015F00080F800C04FF0020CF9E2DFF890B1DBF8A0
:10160000003083B3DFF888A1544F574ABAF800106E
:1016100097F800E0107840298C4640F0020928BF76
:101620004FF0400CBEF1000F8EF0010E87F800E085
:10163000CCEB01010CBF8827C82705EBC90E89B286
:1016400080F0010047EA0C47CEF80430AAF80010F9
:1016500045F839706344107019B9BCF1400F18BFD8
:101660000023CBF80030414B1A88B2F5A06F04D1AB
:101670003F4A9978117000225A703E4A0123137034
:1016800033E73A4A178842F22100874200F00C8281
:101690002D4A45F83320F0E72B492C4B18F0080F62
:1016A00018BF0B4647F83B301FE700F0F5FC324807
:1016B000324A50F82510002900F0C2814B6812F818
:1016C00005C040F8253001F10803C8F80430BCF12A
:1016D000030F05D8DFE80CF0120F15020423535551
:1016E00018F0080F0A880CBF8823C82343EA024376
:1016F00047F83B30F9E602235355F1E703235355EE
:10170000EEE705235355EBE7E80700F12F822906A2
:1017100000F15E82AA0706D5194A0749137802200C
:10172000DBB213700870EB0602D5034B10221A705F
:1017300007B0BDE8F08F00BF802007409020074031
:101740000000FF1F8C11FF1FC800400088004000F0
:101750001412FF1F9D11FF1FF110FF1F9C11FF1F8F
:10176000C02007400C12FF1F0812FF1F0012FF1FAE
:101770009820074094200740E011FF1F1812FF1F18
:10178000882007403811FF1F6412FF1F3411FF1F0C
:101790004811FF1FFFF704FCC6E6B14A47F83B00BB
:1017A000137801331370A0E643F82500DFF8E8A2B0
:1017B00081E642F221039A4200F03E8100F2BD81AF
:1017C000B2F5086F00F03282B2F5106F40F043823C
:1017D000A44AD9F820309EF8021011701A0600F1C0
:1017E0005B83AB6AA04A1B0600F151832B6B9E4AB8
:1017F000180600F14783AB6B9B4A190600F13D8345
:101800002B6C994A1B0600F13383AB6C964A180681
:1018100000F129832B6D944A190600F11F83AB6DEB
:10182000914A1B0600F115832B6E8F4A180600F1B2
:101830004883AB6E8C4A190600F13E832B6F8A4AAF
:101840001B0600F13483AB6F874A180600F12A8328
:10185000D5F88030844A190600F13E83D5F88830E7
:10186000814A1B0600F13283D5F890307E4A180673
:1018700000F1E982D5F898307B4A190600F1DD8243
:1018800000230393794B0293794B0193794B059392
:10189000DFF804A2784BDFF804920493029B1868E7
:1018A00030B1D0F8048000F0F7FB40460028F8D1B2
:1018B000019B1868029B1A4600231360039B1A467B
:1018C00000234AF8223030B1D0F8048000F0E4FB65
:1018D00040460028F8D1019A049B114600220A6074
:1018E000059A1B781146002241F8042B039A0591B2
:1018F000023B4FF0000129F81210032B09D8DFE852
:1019000013F06201040062010400049B4FF0010225
:101910001A70029A039B04320292019A04320192D5
:10192000049A01330132042B03930492B6D1DFF8F9
:101930007091DFF82CA199F80030504A00218AF804
:10194000001013701B0700F1678299F801304C4AB0
:10195000DFF81481137018074FF000022A63AA639E
:1019600000F1468299F80230464ADFF8FC80137095
:1019700019074FF000022A65AA6500F1FA81424A70
:1019800099F80330137000222A67AA671A07DFF854
:10199000D89000F1D7813B780293002283F00103B5
:1019A0000193C5F89020C5F898200021029B03916F
:1019B0008A4689460846354A92F800E04EF0020C05
:1019C00005EBCC08002BC8F804000CBF8820C82009
:1019D00040EA0A0A9DF8043045F83CA08EF0010068
:1019E0003B701070DFF880C0DFF8B880DFF89CA093
:1019F000002940F03781B9F1400F1DD140F00200BD
:101A000005EBC005039B6B60019DDFF85CC0002DFA
:101A100040F040810D0445F088084CF830809DF876
:101A200008503D7082F800E00B44402904D10021A9
:101A3000174ACBF800301180164A012313701CE6B8
:101A4000535D032B00F2408101A151F823F000BF48
:101A5000EB140000EB140000BB1B0000C11B0000D6
:101A60000912FF1F1412FF1F0000FF1F8C11FF1F20
:101A7000E011FF1FF011FF1F1812FF1FC4200740C5
:101A8000C8200740CC200740D02007400812FF1F85
:101A90004811FF1F942007403811FF1F6412FF1FD9
:101AA0008C3100009C11FF1F928892B9BB4A0F78BD
:101AB0004878177050708F78C8789770D070106819
:101AC0000F79177186284F7989795771917100F0D4
:101AD000B280B34AB34F1178387881F0010E0028F4
:101AE00041F0020182F800E00CBF8822C82245F8CC
:101AF000312005EBC10180F00100002238704A60FE
:101B0000C6E540F202339A4240F09980BEF80420C4
:101B100002F07F02042A00F29E80BEF80230002B01
:101B200040F09980A049019392001144CDF808C07B
:101B30000A7842F002020A7037E742F221239A4201
:101B400040F08580BEF80430002B40F0F480DFF8D0
:101B500098929648964A9EF80210D9F800E0C0F88C
:101B600000E00193CDF808C011701EE7914B924838
:101B70008B491A614FF0020E80F800E08A4F0A701C
:101B80008E49196099608E4E8E4D8F4C9A610D2151
:101B90003970FF213170DFF854E2297022708B4DCB
:101BA0008B4A8EF800109F27012406F8047C5D60A4
:101BB0000470DA6007B0BDE8F08F0023535594E459
:101BC0000123535591E4049B4FF000021A70A0E6E4
:101BD00075497C4B80220D2008701A70AA077FF58A
:101BE000A2AD99E57B484FF0020C01704170BEF840
:101BF0000630634580F0B381694A92F800E04EF008
:101C0000020C05EBCC01402B994628BF4FF0400950
:101C1000486000EB09010391C9EB03010023019324
:101C200001234FEA094A0293C820D1E66A4B69486A
:101C30001B780370DBE7694A0F21117049E7B2F5A1
:101C4000A06F08D10023019301230293ADE642F275
:101C500021339A42F6D0544B0F221A70564A012370
:101C600013700AE540297FF6C9AE40F002000CEB84
:101C7000C002019B039D5560CBB19DF80830584AC6
:101C800088F800302B4640398AF800E040334CF8A1
:101C90003020CDE69DF808303B700D04039B82F8A0
:101CA00000E045F0C8050B444CF83050BDE69DF807
:101CB000083088F80030039B404A8AF800E0403939
:101CC00040334CF83020B3E618F0080F0CBF022365
:101CD0000323535509E4BEF8042002F07F02042ACE
:101CE000B9D8BEF80230002BB5D12F49019392002C
:101CF0001144CDF808C00A7822F002020A7054E6B6
:101D0000384B58680028A6D0BEF80210BEF804C0B0
:101D100003E00C33586800289DD01A888A42F8D115
:101D20005A886245F5D1090A03290CBF90F800C012
:101D3000B3F808C05BE70191CDF808C035E64FF075
:101D4000020C54E700F08AF9002800F0F080083017
:101D50001A4BC9F88400C9F8803000F07FF90028D8
:101D600000F0DD8008301E4BC5F88C00C5F88830C7
:101D700011E600F073F9002800F0E88008300F4BFE
:101D8000C8F86400C8F8603000F068F9002800F076
:101D9000D6800830124BE866AB66F0E55812FF1F9C
:101DA0000812FF1F9C11FF1FC02007406012FF1F79
:101DB0000011FF1F0000FF1F942007408800400013
:101DC0008820074080200740982007404C11FF1FC3
:101DD000A011FF1F0C12FF1F1412FF1F9D11FF1FE8
:101DE000C8004000903100001C12FF1F8C200740EB
:101DF00000F034F9002800F08A800830614BC8F800
:101E00004400C8F8403000F029F9002878D00830A4
:101E10005D4BE864AB64A5E500F020F9002868D0CC
:101E20000830584B68622B6200F018F9002859D02E
:101E30000830554BE862AB6287E5D2F89C00083861
:101E400000F02AF91CE5D2F89400083800F024F9D3
:101E500010E5D06D083800F01FF9E5E4506D083842
:101E600000F01AF9DBE4D06C083800F015F9D1E481
:101E7000506C083800F010F9C7E4D06B083800F057
:101E80000BF9BDE4506B083800F006F9B3E4D06AF2
:101E9000083800F001F9A9E4D9F82400083800F066
:101EA000FBF89EE4D06F083800F0F6F8D0E4506FED
:101EB000083800F0F1F8C6E4D06E083800F0ECF80D
:101EC000BCE4506E083800F0E7F8B2E4D2F88C00B9
:101ED000083800F0E1F8C7E4D2F88400083800F0D0
:101EE000DBF8BBE49AF80030A86201338AF80030CE
:101EF0002BE59AF80030286201338AF8003093E726
:101F00009AF80030A86401338AF800302AE59AF87C
:101F10000030C8F8400001338AF8003073E79AF8BF
:101F20000030C5F8880001338AF8003033E59AF8AC
:101F30000030C9F8800001338AF800300DE79AF8C4
:101F40000030A86601338AF8003018E59AF80030AE
:101F5000C8F8600001338AF8003015E700BEBCF114
:101F6000400FE14628BF4FF0400900EB09030393FF
:101F7000002301930123C9EB0C014FEA094A0293A4
:101F800019E500BF88004000C80040002DE9F0417D
:101F9000274C00F0DDF9002204F1A00023461A606E
:101FA0005A60083383424FF00001F8D12148224A99
:101FB0000368DFF89CE0214E214D224FDFF894C0EA
:101FC000DFF8948043F480230360136843F0407388
:101FD000136003238EF80030A023337002F5C9226A
:101FE000C4F3072300F528302B708030C4F3074377
:101FF00010323B70240EFF230470134D8CF8003018
:10200000124888F800301370012306F8AC3C4FF4F6
:1020100000140EF8441C7026102107F82C3C2E707A
:10202000046082F8F810AEF1440EBDE8F08100BF04
:102030000000FF1F3480044000D8004040210740CA
:102040009C200740B020074035E400E004E100E0B8
:1020500044210740802007408820074010B572B611
:102060000B480268B2FA82F10B2902DD62B6002049
:1020700010BD4FF00043CB4022EA0302026062B67B
:10208000044C48234B43E0180022E250426010BD4C
:102090006007FF1FD003FF1F0C4B4822C31AB3FB7E
:1020A000F2F30B2B11D80A4A127822B1094A12789E
:1020B0000AB1FFF729B972B607494FF0004222FA78
:1020C00003F30A681A430A6062B67047D003FF1F21
:1020D0000912FF1F1412FF1F6007FF1F044B054961
:1020E00000221A600A60044A106010221A607047C9
:1020F00014D0034004D0034000D003403F2810B563
:1021000018D80D4B53F8302092F880423CB101238F
:1021100011B182F8803010BD82F8003110BD03EBA0
:10212000C0035B681A6811B142F0030201E022F0BB
:1021300002021A6010BD00BF8C2F00003F2810B5AE
:102140002BD8164A02EBC00301295B68144601D064
:1021500004290FD154F83020012082F880024FF476
:10216000A2721A601A6804290CBF42F0200222F001
:10217000200211E052F83000002280F8802211B9CC
:102180004FF4807208E0022902D140F2031203E00A
:10219000032908BF4FF481721A6010BD8C2F000014
:1021A00072B60B4A0B4B1B6810680B4A126862B67A
:1021B000520102D5322B88BF01304FF47A72C3F539
:1021C000793303F2FF33504300EB1320704700BF15
:1021D0001C12FF1F18E000E004ED00E038B50446D3
:1021E000FFF7DEFF054624B938BD013C0AD005F5EE
:1021F0007A75FFF7D5FF401BB0F57A7FF5D2FEF771
:1022000017FFF6E738BDFFFF374B38494FF0006244
:1022100070B51A604FF080521A604FF000521A6089
:102220004FF080421A604FF000421A60304B314D3F
:10223000314C324E00224FF6FF701A60586028234E
:102240000B608B600B618B610B628B620B638B632A
:10225000103101F501212B6023600B608B600B6155
:102260008B610B628B620921316006F58056043662
:1022700032607060B360336146F8041C06F5FE26D8
:1022800032607060B360336146F8041C06F5805616
:10229000326070601A482B6023600160A0F5E12075
:1022A000A0F2D470016841F40071016050F8281C5C
:1022B00041F0007140F8281C12490A60124A47F6A2
:1022C000FF7111605360D360104B08221A6000F058
:1022D0007DF81920FFF782FFFFF758FE40F2131038
:1022E000BDE87040FFF77ABF04E100E00C800340D6
:1022F000048003400C900B4014900B40008003407E
:1023000000900B4004900C4008900C4000900C4052
:1023100030B503460020B3FBF2F402FB1433092B63
:1023200094BF30333733DBB20B5423460CB101304A
:10233000F1E70A1823465470C41AA34206DACC5CAB
:102340001578CD5402F801490133F5E7084630BD50
:1023500030B585B072B6FEF7B7FC154B1549702243
:102360001A70154A116080221A701A781206FCD56C
:10237000124B1C68FEF7C2FC62B6114B9C429CBF1C
:102380000A235C4301AD0A2229462046FFF7C0FF1D
:102390000C4A0023E95C21B101330A2B22F8021B0D
:1023A000F8D1094A01335B00137005B030BD00BF9E
:1023B0000000024000000741040002400C000240FF
:1023C0007F969800EE07FF1FEC07FF1F10B5204B0C
:1023D0002048214960221A70E1225A701F4B204A7E
:1023E0001C78204B082C01D1212402E00A2C03D1B7
:1023F00039240460132005E00C2C0CBF35245D2427
:1024000004601220086014601860174B17491B788D
:10241000174A03B101230B601360164B164A197853
:10242000164B012901D880210BE0042901D8842111
:1024300007E0082901D8852103E0102994BF8621EF
:102440008721116019600E4B01221A7010BD00BF68
:102450000040074008B003400CB003400208FF1FD3
:1024600008B00B400CB00B402112FF1F20B00340FE
:1024700020B00B400308FF1F24B0034024B00B40E2
:102480002012FF1F70477047014B1868704700BF4C
:10249000300CFF1F70B50F4E0F4D761BB61018BFD6
:1024A000002405D0013455F8043B9847A642F9D1E1
:1024B0000A4E0B4D761B00F097FEB61018BF002495
:1024C00006D0013455F8043B9847A642F9D170BDB7
:1024D00070BD00BFF4310000F4310000FC31000099
:1024E000F4310000024B0146186800F003B800BF49
:1024F000300CFF1F2DE9F04F01F10B05162D83B0B5
:10250000064640F29F8035F0070500F1BF80A942E2
:1025100000F2BC8000F0A6FAB5F5FC7FC0F09C820A
:102520006B0A00F0BA80042B00F28381A80900F145
:10253000390E4FEA4E033830C44F07EB8303A3F143
:1025400008015C68A14207D1ACE0002A80F2AC80AF
:10255000E468A14200F0A680636823F003035A1BDD
:102560000F2AF2DDB9493C6901F1080E744500F00B
:10257000B381636823F003035A1B0F2A00F3998188
:10258000002AC1F814E0C1F810E080F29E80B3F593
:10259000007F80F06781DB0803F1010C01229B10B2
:1025A00002FA03F34A6851F83C80C4F8088001EB52
:1025B000CC091A43A9F10803E3604A6041F83C40A2
:1025C000C8F80C40831001249C40944200F28A8099
:1025D000144206D120F003006400144200F104000C
:1025E000FAD007EBC009CC468046DCF80C108C45CD
:1025F00007D173E1002A80F28181C9688C4500F01F
:102600006D814B6823F003035A1B0F2AF2DD0C4641
:10261000D1F80CC054F8088F4B1945F001054D60F6
:1026200042F00101C8F80CC03046CCF808807B614C
:102630003B61C3F80CE0C3F808E059609A5000F021
:1026400013FA1FE0102921D800F00CFA10250623F8
:1026500002207E4F07EB8303A3F108025C689442DB
:1026600000F045816368E168A56823F00303234413
:1026700030465A68E96042F001028D605A6000F00D
:10268000F3F90834204603B0BDE8F08F00240C2392
:102690002046336003B0BDE8F08F80234FF0400E3A
:1026A0003F2049E770465DE72344E1685A68A56822
:1026B00042F00102E96030468D605A6000F0D4F9C2
:1026C0000834204603B0BDE8F08F234430465A68F2
:1026D00042F001025A6000F0C7F90834204603B006
:1026E000BDE8F08FBC68636823F00308A84504D3F5
:1026F000C5EB08030F2B00F38C80554BDFF860917E
:102700001A68D9F8003001332A4404EB080A00F0B3
:10271000608102F580520F3222F47F6222F00F02B4
:1027200011463046019200F0A1F9B0F1FF3F834617
:10273000019A00F05881824500F2FC80454B1968EF
:10274000DA451144196000F05381D9F80000DFF830
:1027500010E101301BBFCAEB0B0A5144CEF800B0A8
:1027600019601BF0070100F01781C1F10800C1F5E5
:102770008051834408315A44C2F30B02C2EB010971
:1027800049463046019300F071F9431C019B00F06B
:102790003F81CBEB00024A4442F001021968C7F8BE
:1027A00008B04944BC42CBF804201960DFF8A4907B
:1027B00016D0B8F10F0F40F2FD806268A8F10C034B
:1027C00023F00703E01802F001024FF0050E1A4350
:1027D0000F2B6260C0F804E0C0F808E000F21C8132
:1027E0001D4BBC681A68914288BF19601B4B1A6860
:1027F0009142626888BF196022F003029542A2EB01
:10280000050301D80F2B04DC304600F02DF900241D
:1028100038E7621943F0010345F001056560304671
:10282000BA60536000F020F90834204603B0BDE8D8
:10283000F08F142B71D9542B00F2A480280B00F1D7
:102840006F0E4FEA4E036E3076E600BF340CFF1F6A
:102850002C12FF1F3012FF1F2812FF1F2412FF1F10
:102860004010FF1F5A0A042A5ED9142A00F2B380CE
:1028700002F15C0149005B3207EB810C57F8211033
:10288000DFF8DC81ACF1080C8C4500F088804A68E8
:1028900022F00302934202D289688C45F7D1D1F825
:1028A0000CC07A68C4F80CC0A160CCF80840CC60B9
:1028B00088E6631942F0010745F00105656030467E
:1028C0004B610B61C3F80CE0C3F808E05F609A50FD
:1028D000083400F0C9F8D5E64A6873E608F1010843
:1028E00018F0030F0CF1080C7FF47FAE30E0DC68C9
:1028F000A34208BF02303FF435AEB3E60B440C46AA
:102900005A68C96854F8085F42F001025A603046BC
:10291000E9608D6000F0A8F8B4E603F15C0E03F105
:102920005B004FEA4E0307E69A0902F139014900BC
:102930003832A1E7BC424A4B3FF400AF9C68626862
:1029400022F003025AE759F80839994540F082808D
:1029500010F0030F00F1FF30F5D17B6823EA040388
:102960007B6064009C423FF6BDAE002C3FF4BAAEE3
:102970001C4240467FF435AE64001C4200F1040066
:10298000FAD02EE6B3F5AA7F18D8E80B00F1780E3E
:102990004FEA4E037730CFE54FF48051EBE601214B
:1029A000D8F80430921001FA02F21A43C8F8042051
:1029B000614677E70123CBF8043025E740F2545213
:1029C000934220D8A80C00F17D0E4FEA4E037C30D4
:1029D000B2E51032A4E6542A26D81A0B02F16F0190
:1029E00049006E3248E7BC68626822F0030205E7DE
:1029F000CAF30B0000287FF4A8AE4244BB6842F043
:102A000001025A60ECE6FE234FF07F0E7E2093E534
:102A100001224FF00009C1E604F10801304600F040
:102A20002FF9D9F80010DBE6B2F5AA7F05D8DA0B4A
:102A300002F17801490077321EE740F254518A4290
:102A400005D89A0C02F17D0149007C3214E7FE2181
:102A50007E2211E77B6884E7E808431C5B00F8E509
:102A6000340CFF1F704700BF704700BF38B5074CDC
:102A70000023054608462360FEF7F2F8431C00D009
:102A800038BD2368002BFBD02B6038BD6C12FF1FB4
:102A9000FFFFFFFFFFFFFFFFFFFFFFFFFFFFFFFF46
:102AA000FFFFFFFFFFFFFFFFFFFFFFFFFFFFFFFF36
:102AB000FFFFFFFFFFFFFFFFFFFFFFFFFFFFFFFF26
:102AC00090F800F06DE9024520F007016FF0000C6E
:102AD00010F0070491F820F040F049804FF0000416
:102AE0006FF00700D1E9002391F840F000F10800F1
:102AF00082FA4CF2A4FA8CF283FA4CF3A2FA8CF329
:102B00004BBBD1E9022382FA4CF200F10800A4FA8F
:102B10008CF283FA4CF3A2FA8CF3E3B9D1E90423E3
:102B200082FA4CF200F10800A4FA8CF283FA4CF31A
:102B3000A2FA8CF37BB9D1E9062301F1200182FAD4
:102B40004CF200F10800A4FA8CF283FA4CF3A2FADA
:102B50008CF3002BC6D0002A04BF04301A4612BAE8
:102B6000B2FA82F2FDE8024500EBD2007047D1E9EB
:102B7000002304F00305C4F100004FEAC50514F07A
:102B8000040F91F840F00CFA05F562EA05021CBF4B
:102B900063EA050362464FF00004A9E7024B13B154
:102BA000024800F005B8704700000000BD2B00008F
:102BB000002301461A46184600F04AB938B5074DB9
:102BC000074C2C1BA41005D0013C55F8043D984738
:102BD000002CF9D1BDE8384000F010BB0000000027
:102BE00000000000F8B5234F0C460646FFF73AFFF9
:102BF000BB685D6825F00305291B01F6EF7121F420
:102C00007F6121F00F01A1F58054B4F5805F07DBEF
:102C100000213046FFF72AFFBB682B44984204D0BE
:102C20003046FFF721FF0020F8BD61423046FFF734
:102C30001DFF01300DD0104BBA6819682D1B45F0EF
:102C400001053046091B55601960FFF70DFF012093
:102C5000F8BD00213046FFF709FFBA68831A0F2B31
:102C6000DEDD064C0449246843F00103001B536079
:102C70000860D5E7340CFF1F3012FF1F4010FF1F04
:102C8000002945D02DE9F0410D468046FFF7EAFEC8
:102C900055F8047C6A4927F00103A5F10804E218FD
:102CA0008E685068B24220F0030062D0FE07506088
:102CB0000BD455F8087CE41B01F1080EA568754596
:102CC0003B446FD0E768EF60BD6015186D68ED0795
:102CD00042D543F001026260E350B3F5007F18D2A1
:102CE000DB085A1C4D6851F83270A76001209B1018
:102CF00000FA03F301EBC2001D430838E0604D60A9
:102D000041F83240FC604046BDE8F041FFF7ACBE00
:102D100070475A0A042A53D89A0902F139077F00EA
:102D200002F1380501EB870051F8272044490838A3
:102D300090424DD0516821F003018B4202D292683B
:102D40009042F7D1D068E060A2608460D4604046D1
:102D5000BDE8F041FFF788BE95683A4FBD42034495
:102D60003FD0D068E86043F0010285606260E350C4
:102D7000B3E7FF07034407D455F8082CA41A1344FB
:102D8000A068E268C26090602F4A126843F00100B8
:102D9000934260608C60B6D32C4B40461968FFF7B5
:102DA00021FFB0E711184968C90744D49168D26877
:102DB000CA60034443F0010091606060E350A2E701
:102DC000142A17D802F15C077F0002F15B05A9E71E
:102DD000AA104B68012505FA02F213434B60024624
:102DE000B1E743F001024C610C61E560A5606260EF
:102DF000E35088E7542A06D81A0B02F16F077F00C8
:102E000002F16E058EE7B2F5AA7F06D8DA0B02F161
:102E100078077F0002F1770584E740F25450824240
:102E200006D89A0C02F17D077F0002F17C0579E754
:102E3000FE277E2576E743F001026260E35062E7F9
:102E4000340CFF1F3C0CFF1F3C10FF1F2C12FF1FF8
:102E50002DE9F047254C2568D5F8484106468846B7
:102E600092469946C4B360681F2817DC431C76B1AC
:102E700004EB80050122C5F888A0D4F888118240AF
:102E80001143022EC4F88811C5F808911ED00230F3
:102E9000636044F820800020BDE8F087144B03B342
:102EA0004FF4C870FFF71EFB0446D0B1D5F8483187
:102EB000002780E88800C5F8484138460123C4F857
:102EC0008871C4F88C71002EE1D0D1E7D4F88C1150
:102ED0000A43C4F88C21DAE705F5A674C5F8484121
:102EE000C1E74FF0FF30BDE8F08700BFE4310000DC
:102EF000E524000048656C6C6F2050657465722194
:102F0000000D0AFF00000000000000002910000072
:102F1000211000001D100000191000001510000005
:102F2000111000000D10000009100000000000004A
:102F30000000000071110000951100001112000046
:102F40000D1200000912000005120000011200001D
:102F500039110000E1110000DD110000D71100005F
:102F6000D1110000C9110000B9110000A911000021
:102F7000A511000019110000211100002911000005
:102F8000311100007D110000651100004008FE4372
:102F900040A004404408FE4344A004400018FE43FF
:102FA00000C004403000FE43309004403400FE4333
:102FB000349004401C18FE431CC004401018FE430B
:102FC00010C004400818FE4308C004400C18FE431B
:102FD0000CC004400C10FE430CB004401010FE4323
:102FE00010B004401810FE4318B004401C10FE43FB
:102FF0001CB004401410FE4314B004400418FE43F7
:1030000004C004400010FE4300B004400008FE432A
:1030100000A004400408FE4304A004400C08FE4342
:103020000CA004400808FE4308A004401418FE4306
:1030300014C004401818FE4318C004400410FE4396
:1030400004B004400810FE4308B004406820FE436A
:1030500068D004401400FE43149004403800FE433E
:10306000389004403C00FE433C9004404000FE4346
:10307000409004404808FE4348A004404C08FE43EA
:103080004CA004402808FE4328A004402C08FE431E
:103090002CA004406020FE4360D004406420FE4326
:1030A00064D004402010FE4320B004402410FE43AE
:1030B00024B004402810FE4328B004402C10FE43E6
:1030C0002CB004404400FE43449004407000FE4392
:1030D000709004407400FE43749004406800FE4306
:1030E000689004405008FE4350A004405808FE4336
:1030F00058A004405C08FE435CA004405408FE4312
:1031000054A004402018FE4320C004402418FE436D
:1031100024C004401008FE4310A004401408FE43DD
:1031200014A004403818FE4338C004403418FE434D
:1031300034C004403018FE4330C004403C18FE4305
:103140003CC004402C18FE432CC004402820FE4301
:1031500028D004402C20FE432CD004400020FE4305
:1031600000D004400420FE4304D004400820FE4365
:1031700008D004400C20FE430CD004401020FE4335
:1031800010D004401420FE4314D00440001519153B
:10319000000100006407FF1F120000000002000091
:1031A0008E07FF1F4300000000030000E807FF1F19
:1031B00000000000010309047607FF1F0000000063
:1031C00002030904D207FF1F0000000003030904E3
:1031D000EC07FF1F000000000000000000000000DE
:1031E000000000000808FF1FF8B500BFF8BC08BCCD
:0C31F0009E4670479D2B00003504000037
:0431FC00F8B500BF63
:10320000010000007012FF1F0C2F000000000000E2
:10321000E80300000000000001000000342F00005F
:1032200000000000E8030000000000008724000008
:10323000FFFFFFFF1201100102000040C0168304CF
:1032400077020102030118035400650065006E0057
:10325000730079006400750069006E006F00090258
:103260004300020100C03209040000010202010013
:10327000052400100105240101010424020605248F
:103280000600010705820310004009040100020A3C
:10329000000000070503024000000705840240000B
:1032A0000000160355005300420020005300650043
:1032B0007200690061006C00040309040C03000043
:1032C00000000000000000000000000000000000FE
:1032D00000000A040101000000000000F40AFF1FC2
:1032E0005C0BFF1FC40BFF1F00000000000000006C
:1032F00000000000000000000000000000000000CE
:1033000000000000000000000000000000000000BD
:1033100000000000000000000000000000000000AD
:10332000000000000000000000000000000000009D
:10333000000000000000000000000000000000008D
:10334000000000000000000000000000000000007D
:10335000000000000000000000000000000000006D
:10336000000000000000000000000000000000005D
:10337000000000000000000000000000000000004D
:1033800001000000000000000E33CDAB34126DE6EA
:10339000ECDE05000B000000000000000000000053
:1033A000000000000000000000000000000000001D
:1033B000000000000000000000000000000000000D
:1033C00000000000000000000000000000000000FD
:1033D00000000000000000000000000000000000ED
:103700000808FF1F0000000000000000340CFF1F2D
:10371000340CFF1F3C0CFF1F3C0CFF1F440CFF1F11
:10372000440CFF1F4C0CFF1F4C0CFF1F540CFF1FC1
:10373000540CFF1F5C0CFF1F5C0CFF1F640CFF1F71
:10374000640CFF1F6C0CFF1F6C0CFF1F740CFF1F21
:10375000740CFF1F7C0CFF1F7C0CFF1F840CFF1FD1
:10376000840CFF1F8C0CFF1F8C0CFF1F940CFF1F81
:10377000940CFF1F9C0CFF1F9C0CFF1FA40CFF1F31
:10378000A40CFF1FAC0CFF1FAC0CFF1FB40CFF1FE1
:10379000B40CFF1FBC0CFF1FBC0CFF1FC40CFF1F91
:1037A000C40CFF1FCC0CFF1FCC0CFF1FD40CFF1F41
:1037B000D40CFF1FDC0CFF1FDC0CFF1FE40CFF1FF1
:1037C000E40CFF1FEC0CFF1FEC0CFF1FF40CFF1FA1
:1037D000F40CFF1FFC0CFF1FFC0CFF1F040DFF1F50
:1037E000040DFF1F0C0DFF1F0C0DFF1F140DFF1FFD
:1037F000140DFF1F1C0DFF1F1C0DFF1F240DFF1FAD
:10380000240DFF1F2C0DFF1F2C0DFF1F340DFF1F5C
:10381000340DFF1F3C0DFF1F3C0DFF1F440DFF1F0C
:10382000440DFF1F4C0DFF1F4C0DFF1F540DFF1FBC
:10383000540DFF1F5C0DFF1F5C0DFF1F640DFF1F6C
:10384000640DFF1F6C0DFF1F6C0DFF1F740DFF1F1C
:10385000740DFF1F7C0DFF1F7C0DFF1F840DFF1FCC
:10386000840DFF1F8C0DFF1F8C0DFF1F940DFF1F7C
:10387000940DFF1F9C0DFF1F9C0DFF1FA40DFF1F2C
:10388000A40DFF1FAC0DFF1FAC0DFF1FB40DFF1FDC
:10389000B40DFF1FBC0DFF1FBC0DFF1FC40DFF1F8C
:1038A000C40DFF1FCC0DFF1FCC0DFF1FD40DFF1F3C
:1038B000D40DFF1FDC0DFF1FDC0DFF1FE40DFF1FEC
:1038C000E40DFF1FEC0DFF1FEC0DFF1FF40DFF1F9C
:1038D000F40DFF1FFC0DFF1FFC0DFF1F040EFF1F4B
:1038E000040EFF1F0C0EFF1F0C0EFF1F140EFF1FF8
:1038F000140EFF1F1C0EFF1F1C0EFF1F240EFF1FA8
:10390000240EFF1F2C0EFF1F2C0EFF1F340EFF1F57
:10391000340EFF1F3C0EFF1F3C0EFF1F440EFF1F07
:10392000440EFF1F4C0EFF1F4C0EFF1F540EFF1FB7
:10393000540EFF1F5C0EFF1F5C0EFF1F640EFF1F67
:10394000640EFF1F6C0EFF1F6C0EFF1F740EFF1F17
:10395000740EFF1F7C0EFF1F7C0EFF1F840EFF1FC7
:10396000840EFF1F8C0EFF1F8C0EFF1F940EFF1F77
:10397000940EFF1F9C0EFF1F9C0EFF1FA40EFF1F27
:10398000A40EFF1FAC0EFF1FAC0EFF1FB40EFF1FD7
:10399000B40EFF1FBC0EFF1FBC0EFF1FC40EFF1F87
:1039A000C40EFF1FCC0EFF1FCC0EFF1FD40EFF1F37
:1039B000D40EFF1FDC0EFF1FDC0EFF1FE40EFF1FE7
:1039C000E40EFF1FEC0EFF1FEC0EFF1FF40EFF1F97
:1039D000F40EFF1FFC0EFF1FFC0EFF1F040FFF1F46
:1039E000040FFF1F0C0FFF1F0C0FFF1F140FFF1FF3
:1039F000140FFF1F1C0FFF1F1C0FFF1F240FFF1FA3
:103A0000240FFF1F2C0FFF1F2C0FFF1F340FFF1F52
:103A1000340FFF1F3C0FFF1F3C0FFF1F440FFF1F02
:103A2000440FFF1F4C0FFF1F4C0FFF1F540FFF1FB2
:103A3000540FFF1F5C0FFF1F5C0FFF1F640FFF1F62
:103A4000640FFF1F6C0FFF1F6C0FFF1F740FFF1F12
:103A5000740FFF1F7C0FFF1F7C0FFF1F840FFF1FC2
:103A6000840FFF1F8C0FFF1F8C0FFF1F940FFF1F72
:103A7000940FFF1F9C0FFF1F9C0FFF1FA40FFF1F22
:103A8000A40FFF1FAC0FFF1FAC0FFF1FB40FFF1FD2
:103A9000B40FFF1FBC0FFF1FBC0FFF1FC40FFF1F82
:103AA000C40FFF1FCC0FFF1FCC0FFF1FD40FFF1F32
:103AB000D40FFF1FDC0FFF1FDC0FFF1FE40FFF1FE2
:103AC000E40FFF1FEC0FFF1FEC0FFF1FF40FFF1F92
:103AD000F40FFF1FFC0FFF1FFC0FFF1F0410FF1F41
:103AE0000410FF1F0C10FF1F0C10FF1F1410FF1FEE
:103AF0001410FF1F1C10FF1F1C10FF1F2410FF1F9E
:103B00002410FF1F2C10FF1F2C10FF1F00000200AD
:043B1000FFFFFFFFB5
:00000001FF
