:1000000000000320D1010000419500000D95000083
:100010000D9500000D9500000D9500000D95000058
:100020000D9500000D9500000D9500004195000014
:10003000419500000D950000D59A0000D99A000066
:100040004195000041950000419500004195000058
:100050004195000041950000419500004195000048
:100060004195000041950000419500004195000038
:100070004195000041950000419500004195000028
:100080004195000041950000419500004195000018
:100090004195000041950000419500004195000008
:1000A00041950000419500004195000041950000F8
:1000B0004195000041950000419500004DBE0000B3
:1000C00041950000419500004195000041950000D8
:1000D000419500004195000041950000CDA200002F
:1000E00041950000419500004195000041950000B8
:1000F00041950000419500004195000041950000A8
:100100004195000041950000419500004195000097
:1001100041950000ADAA0000419500004195000006
:100120004195000041950000419500004195000077
:100130004195000041950000419500004195000067
:100140004195000041950000419500004195000057
:100150004195000041950000419500004195000047
:100160004195000041950000419500004195000037
:100170004195000041950000419500004195000027
:100180004195000041950000419500004195000017
:100190004195000041950000419500004195000007
:1001A00041950000419500004195000041950000F7
:1001B00041950000419500004195000041950000E7
:1001C00041950000419500004195000041950000D7
:1001D0005C4B4CF2205210B51A804DF628121A8052
:1001E00000BF00BF09F0B0F9574B4FF030621A6002
:1001F000564A9A60564ADA60564B4FF470021A60BB
:10020000554B564A1A60564B1A78110748BF1A7850
:10021000544944BF42F008021A70534BAA221A7084
:10022000524A534B8B4204D252F8040F43F8040B4A
:10023000F8E7504B504A0021934202D243F8041B86
:10024000FAE74E4A4E48002350F8231042F8231094
:100250000133742BF8D14B4B4B4A802103F8011B1F
:100260009342FBD1494B454A1A60494B8A221A7086
:10027000A3F5805324225A70A0221A709A7992070B
:10028000FCD59A79D406FCD4424A937903F00C0346
:10029000082BFAD1404B60221A70404A1378802B09
:1002A000FCD13C4B00221A7150225A719A79900667
:1002B000FCD59979374A4906FBD5394B394919603C
:1002C0000021596020231370937903F00C030C2B49
:1002D000FAD1354B354A1A60354A364C136813F457
:1002E000807302BF23604FF4A8531360324B334A2C
:1002F0001A6000225A60072243F8042C304AC3F8DF
:100300000C2D62B609F07EF82368DA0705D52D4872
:1003100008F0D0FD2C4B2D4A1A602D4B1B785B0644
:1003200009D5294C294B22689A4204D1254808F066
:10033000C1FD002323600CF007F909F00BF909F067
:1003400083FAFEE70E20054030800440823F04001F
:100350000100002B88ED00E0002008E0030000858C
:1003600002D00740BC11FF1F00E00740FC740100F1
:100370003007FF1FBC11FF1FD015FF1F0002FF1F1A
:100380000000000000E400E064E400E008ED00E0AC
:10039000005006400040064001E0074003E00740EF
:1003A000448004400000070304800440C01007009C
:1003B00010D0034014D0034014E000E0FFE7030036
:1003C0000000202000DD68501CE00340A5C3945AC3
:1003D00000F00740FFFFFFFFFFFFFFFFFFFFFFFFF2
:1003E000FFFFFFFFFFFFFFFFFFFFFFFFFFFFFFFF1D
:1003F000FFFFFFFFFFFFFFFFFFFFFFFFFFFFFFFF0D
:10040000FFFFFFFFFFFFFFFFFFFFFFFFDEF9FFFF23
:1004100010B5054C237833B9044B13B10448AFF33E
:1004200000800123237010BDBC11FF1F00000000DD
:1004300038720100084B10B51BB108490848AFF3EA
:1004400000800848036803B910BD074B002BFBD0A0
:10045000BDE81040184700BF00000000C011FF1F9A
:1004600038720100BC11FF1F0000000010B50446E7
:10047000C83009F0F1F904F1B80009F0EDF92046AF
:1004800010BDFFFF1FB5144C1449684609F04BFA24
:10049000B7EE000A694620460AF048F9684609F0B6
:1004A000DBF901222046042109F0A6FF01210220E8
:1004B00008F0C4FD0A4B0B4A1A600B4B4CF2503249
:1004C00020461A600AF07CF8084B094A83ED000ABE
:1004D000084B1A6004B010BDF811FF1F9013FF1FE6
:1004E000DC11FF1F17B751393C07FF1FD811FF1F41
:1004F000000048433807FF1F00B52DED028B002197
:1005000083B02E480AF057F801212C48B0EE408AFB
:100510000AF051F82A4A2B49136891ED007A07EE48
:10052000903AF8EEE77A67EE877A27EE800AF7EEE0
:10053000007AB4EEE70AF1EE10FAB5EEC08ACCBF4D
:1005400000230133F1EE10FA13601CDDDFED1E7A9B
:1005500060EE277A17EE900A13F01AFC41EC100BAC
:1005600000F08AF953EC102B18EE100ACDE90023A5
:1005700013F00EFCDDE9002313F05EFC13F054FFD2
:1005800000EE100A15E0F6EE007AB4EEE70A0F4B23
:100590009FED0F0A93ED007ADFED0E7AF1EE10FA7F
:1005A000C8BFB1EE488A28EE000AA7EE270A83EDFD
:1005B000000A03B0BDEC028B5DF804FBF811FF1FCD
:1005C000E412FF1FDC11FF1FDB0FC940D012FF1F19
:1005D0000AD7A33B52B87E3F70B52DED0A8B504829
:1005E000504C86B009F0F0FF08F0D8FE4E4A94ED6A
:1005F000007A1368C01AC0F1C80007EE900AF8EE3E
:10060000E77A1546F4EEC77AF1EE10FAD8BFB0EEED
:10061000677A84ED007A08F0C1FE2B68C01AC728FB
:10062000F9DD08F0BBFE404BDFED40AA1860FFF794
:1006300063FF0221B0EE409A3948DFED3D8A9FED1D
:100640003DAA9FED3DBA3D4D09F0B5FF89EE2A7AEE
:100650003B4B4220B6EE008AF2EE047AF0EE486A96
:10066000E7EE676A93ED007A66EE877AB0EE40CAED
:10067000FDEEE77AF0EE68BA17EE901A08F030FD5A
:1006800010221121264809F021FF30EE480A0921E5
:10069000E0EE0ABA2248B0EE4B0AACEE2B0A0AF0A2
:1006A00017F8F0EE409AB0EE4B0A0521ACEE6B0A5B
:1006B0001B480AF00DF82B680133042B2B602ADD50
:1006C000174809F075FF064628BB1022114614484A
:1006D00009F0FCFE30EE480A79EEC89AE0EE2A8A6C
:1006E00005220F210E48CDED018ACDED049A09F0C7
:1006F000EDFE30EE480A01AA20EE0A0A052108485C
:100700008DED029A8DED030A8DED059A09F036FF05
:100710000C4B2E60236006B0BDEC0A8B70BD00BF91
:10072000F811FF1F3807FF1FE011FF1F560EC940C9
:1007300000000000EC517B42CDCCCC3EE411FF1F09
:10074000D811FF1F000048432DE9F041374D384CC8
:10075000384B3949394FDFF81881394E86B00C22B1
:1007600000932846102309F0D7FD22463549284634
:1007700001F056FA8C2001F059FA054609F084FA86
:10078000314B32491D60324D384609F0A5F82246FA
:100790002946384601F044FA2E49404609F09CF8B3
:1007A00022462946404601F03BFA2B49304609F0E3
:1007B00093F822462946304601F032FA414602A813
:1007C00009F0B1F8314602A809F0FEF8234E0146BF
:1007D000304609F0A8F802A809F03EF8224629465A
:1007E000304601F01DFA1E4902A809F075F8394695
:1007F00002A809F0E9F8314609F0E6F819491A4E5D
:1008000009F0EAF80146304609F08DF802A809F02F
:1008100023F822462946304601F002FA08F0BEFDD0
:10082000124B186006B0BDE8F08100BFF811FF1F41
:100830003007FF1F40420F0087930300EC12FF1F99
:10084000D412FF1F6D0400008C13FF1FBC56010063
:10085000599800000257010036570100E811FF1FA8
:100860005F570100635701009013FF1FE011FF1F46
:100870007C13FF1FFFFFFFFF00B551EC100B2C4A4C
:1008800021F00043934285B027DD2A4A934209DDD7
:1008900010EE102A0B4613F01BF941EC100B05B0BB
:1008A0005DF804FB684600F047F800F003000128FB
:1008B00027D002281DD068B39DED021B9DED000BD3
:1008C00000F062FA53EC102B10EE100A03F1004115
:1008D00041EC100B05B05DF804FB00209FED121BEE
:1008E00000F0A6FF51EC100B41EC100B05B05DF8C9
:1008F00004FB01209DED021B9DED000B00F098FF15
:10090000E0E79DED021B9DED000B00F03DFA51EC80
:10091000100BC2E701209DED021B9DED000B00F0C6
:1009200087FF51EC100BB8E700000000000000004A
:10093000FB21E93FFFFFEF7F2DE9F04F53EC102B38
:10094000974923F0004B8B458FB040F38780954942
:100950008B451C46824629DC002C194610EE100AF5
:1009600085A3D3E9002340F3A58113F0B1F88E4BA2
:100970009B4504460D4600F0878081A3D3E9002300
:1009800013F0A6F802460B46CAE900232046294682
:1009900013F09EF87AA3D3E9002313F099F8012508
:1009A000CAE9020128460FB0BDE8F08F7F498B45A8
:1009B00040F387807E498B455BDC4FEA2B55A5F2DF
:1009C0001645ABEB05571046394610EE106A13F08A
:1009D000E3FC13F0CBF98046894642464B4630464D
:1009E0003946CDE9088913F073F80022714B13F0F2
:1009F00023FA8946804613F0CFFC13F0B7F9064678
:100A00000F4632463B4640464946CDE90A6713F059
:100A10005FF80022674B13F00FFA00220023CDE9A4
:100A20000C0113F071FC002800F0708100233046A7
:100A30003946002213F068FC002814BF012302236A
:100A40005D4A0192022100912A46514608A800F011
:100A5000DFFA002CC0F24C81054606E080ED000B69
:100A600000250024C0E90245002528460FB0BDE856
:100A7000F08F10EE100A194613F02AF80025CAE983
:100A80000201CAE90001F0E73FA3D3E9002313F014
:100A90001FF83FA3D3E900230D46044613F018F8CE
:100AA00002460B46CAE900232946204613F010F8F7
:100AB00037A3D3E9002313F00BF80125CAE902019B
:100AC000D3E700F07FFF57EC106B10EE100A32A353
:100AD000D3E90023394613F0AFF90022374B12F067
:100AE000F9FF13F059FC054613F040F922A3D3E9AE
:100AF0000023CDE9040113F09FF902460B4630466E
:100B0000394612F0E5FF1EA3D3E90023804689464B
:100B1000DDE9040113F090F91F2DCDE9020151DC4C
:100B2000274B6A1E53F822309B454BD002460B469A
:100B30004046494612F0CCFF06460F46CAE9006718
:100B400032463B464046494612F0C2FFDDE90223E9
:100B500012F0BEFF002CCAE9020186DA07F1004458
:100B600001F100436D42CAF80060CAF80440CAF8B7
:100B70000800CAF80C3078E700004054FB21F93F28
:100B80003163621A61B4D03D0000601A61B4D03D97
:100B90007370032E8A19A33B83C8C96D305FE43F8D
:100BA000FB21E93F7BD90240FB21F93FFB21394181
:100BB000FFFFEF7F00007041E85701000000E03FB9
:100BC00068570100DDE902234046494612F080FFE4
:100BD0004FEA2B5BC1F30A53C3EB0B0306460F46E8
:100BE000102BCAE90067ABDD5DA3D3E90023DDE983
:100BF000040113F021F906460F4602460B46404613
:100C0000494612F065FFCDE9060102460B46404613
:100C1000494612F05DFF32463B4612F059FF52A39F
:100C2000D3E9002306460F46DDE9040113F004F979
:100C300032463B4612F04CFF0B46CDE9020102461C
:100C4000DDE9060112F044FFC1F30A53C3EB0B0BBD
:100C500006460F46BBF1310FCAE9006776DD45A3B2
:100C6000D3E90023DDE9040113F0E6F806460F4658
:100C700002460B46DDE9060112F02AFF02460B464A
:100C800080468946DDE9060112F022FF32463B46E6
:100C900012F01EFF39A3D3E9002306460F46DDE913
:100CA000040113F0C9F832463B4612F011FFCDE9BA
:100CB00002013BE712F00EFF2D4B9B4504460D460B
:100CC00026D025A3D3E9002312F004FF02460B46E9
:100CD000CAE900232946204612F0FAFE1EA3D3E9F2
:100CE000002312F0F7FE4FF0FF35CAE90201BCE61F
:100CF000DAF80420DAF80C3002F1004203F1004384
:100D00004542CAF80420CAF80C30AEE6032397E641
:100D100013A3D3E9002312F0DDFE13A3D3E90023CC
:100D20000D46044612F0D6FE02460B46CAE90023E1
:100D30002946204612F0CCFE0BA3D3E9002312F083
:100D4000C9FE4FF0FF35CAE902018EE6DDE90689EA
:100D5000F6E600BFAFF300803163621A61B4D03DA4
:100D60000000601A61B4D03D7370032E8A19A33B52
:100D7000FB21F93F0000002E8A19A33BC149202521
:100D80009A837B39FFFFFFFF2DE9F04F57EC106B83
:100D90002DED028BB0EE418AF0EE618A27F000491A
:100DA000B9F1795F83B072DA10EE100A394613F0A8
:100DB000F3FA002800F0F68032463B4630463946CA
:100DC00013F03AF87CA3D3E9002304460D4613F050
:100DD00033F87BA3D3E9002312F07CFE22462B4696
:100DE00013F02AF878A3D3E9002312F071FE22460B
:100DF0002B4613F021F876A3D3E9002312F06AFE04
:100E000022462B4613F018F873A3D3E9002312F0FF
:100E10005FFE22462B4613F00FF871A3D3E900239F
:100E200012F058FE22462B4613F006F882468B46F7
:100E30000022714B2046294612F0FEFF52468046A2
:100E400089465B462046294612F0F6FF53EC182BE4
:100E500004460D463046394612F0EEFF02460B4678
:100E60002046294612F034FE02460B4640464946CB
:100E700012F02EFE02460B460020604912F028FEBA
:100E800041EC100B03B0BDEC028BBDE8F08F10EE0F
:100E9000102A10EE100A3B46394612F0CDFF46A349
:100EA000D3E9002304460D4612F0C6FF44A3D3E95C
:100EB000002312F00FFE22462B4612F0BDFF42A384
:100EC000D3E9002312F004FE22462B4612F0B4FFB1
:100ED0003FA3D3E9002312F0FDFD22462B4612F07A
:100EE000ABFF3DA3D3E9002312F0F2FD22462B46CF
:100EF00012F0A2FF3AA3D3E9002312F0EBFD2B4638
:100F0000224612F099FF3E4B994582468B468FDD73
:100F10003C4B99453DDC0022A9F5001300203749E0
:100F20009046994612F0D4FDCDE900010022324BE3
:100F30002046294612F080FF42464B4612F0C8FD7B
:100F40005246804689465B462046294612F074FF89
:100F500053EC182B04460D463046394612F06CFF10
:100F600002460B462046294612F0B2FD02460B46C9
:100F70004046494612F0ACFD02460B46DDE9000151
:100F800012F0A6FD41EC100B03B0BDEC028BBDE8E6
:100F9000F08F9FED157B4FF000088DED007BDFF8A3
:100FA0006890C3E79FED120B03B0BDEC028BBDE868
:100FB000F08F00BFAFF30080D43888BEE9FAA8BD37
:100FC000C4B1B4BD9EEE213EAD529C804F7E923E98
:100FD0009015CB19A001FA3E7751C1166CC1563F4E
:100FE0004C5555555555A53F000000000000E73F02
:100FF000000000000000F03F0000E03F0000F03F74
:101000003233D33F0000E93F0000D23FFFFFFFFF34
:101010002DE9F04FADF51B7D814CA49E814D54F818
:10102000264007942646D41E85FB0475E417C4EBBE
:10103000A50424EAE4741D460A93631CA3EB83030E
:10104000013D02EBC30306932B460B940095651BF1
:10105000F4180390089116D42C44013422AEA59FB5
:1010600008E057F8250012F081FE0135A542E6E8B8
:10107000020108D0002DF4DA013500200021A5423C
:10108000E6E80201F6D1079B002BC0F2C283079B62
:10109000039ADDF800A003F1010B0A9B0DF5E4793A
:1010A000DB00049309EBCB0B02EB0308009B002B46
:1010B000C0F2928122AB03EBCA05039C08350026DF
:1010C000002775E90223F4E8020112F0B5FE02469A
:1010D0000B463046394612F0FDFC444506460F46A5
:1010E000EFD1E9E80267D9450AF1010ADED1079993
:1010F0000498039C049101F18043023B9B0020442F
:101100001A1D83460EA8024403440D920C93049AC0
:101110009AA901EBC203002A53E9284529DD0DF500
:10112000E47A0AEBC2080DF1340900223E4B204656
:10113000294612F081FE13F02FF912F017FE00225B
:101140003A4B06460F4612F077FE02460B46204603
:10115000294612F0BDFC13F01FF978E9022349F883
:10116000040F3946304612F0B5FCD04504460D4612
:10117000DBD1DDF8189045EC104B484600F0BCFC84
:1011800055EC104B00224FF07F5310EE100A294609
:1011900012F052FE41EC100B00F01EFC002251EC4C
:1011A000100B234B12F048FE02460B462046294600
:1011B00012F08EFC0D46044613F0EEF8804612F055
:1011C000D5FD0B4602462946204612F081FC4B46CF
:1011D000002B06460F4640F3E580049A0EA9013A1B
:1011E000C9F1180351F8225045FA03F101FA03F34B
:1011F0000EA8EB1A40F82230C9F11705884443FACB
:1012000005F5002D41DD049B002B08F1010840F39A
:10121000C982002214460DA90498AE4612E000BF10
:10122000F0580100ABAAAA2A0000703E00007041ED
:1012300000002040C3F180750BB10D600124013224
:1012400090420DDD51F8043F002CF3D0C3F1FF13A1
:10125000013203F57F4390420B604FF00104F1DC53
:101260007546069B002B0EDD012B00F0A380022BA0
:1012700009D1049B5A1E0EAB0EA953F82230C3F3BA
:10128000150341F82230022D74D00022002330468D
:10129000394613F039F8002800F04982049A079B78
:1012A000501E834210DC02F18043013B0EAA0D9CCC
:1012B00002EB8303002253F80419A34242EA01021D
:1012C000F9D1002A40F0A480079B0EAA013B52F8F6
:1012D0002330002B40F064820C9A012352F8041949
:1012E00001330029FAD0049AD31802F1010A9A4571
:1012F00009933CDC0B9B0A9A09990AEB0309049BAE
:10130000984690448B1809F18049A59A09F1FF3954
:1013100002EB890922AA02EBC303049372AB02EB2E
:10132000C80803EBCA0A59F8040F12F01FFD009B0E
:10133000002BE8E802014FF000064FF0000711DB38
:10134000039C454675E90223F4E8020112F074FD9E
:1013500002460B463046394612F0BCFB5C45064659
:101360000F46EFD1049B9845EAE80267DBD1099B61
:101370000493CCE632463B460020B34912F0A8FB6A
:1013800006460F46002C80D006989FEDAB0B00F070
:10139000B3FB3046394653EC102B12F099FB06464E
:1013A0000F4672E711D1049B0EAA013B52F823505D
:1013B000ED1526E7049B5A1E0EAB0EA953F82230FA
:1013C000C3F3160341F822305DE700229F4B12F071
:1013D000B9FF58B9054658E700260027E9E8026733
:1013E000D9450AF1010A7FF461AE80E6049B002B27
:1013F00008F10108C8BF02253FF70BAF32463B4654
:101400000020914912F064FB022506460F463CE796
:101410000EA9CDF8248051F8203006990090183993
:101420000246039506916BB900F18043013B0EA87B
:1014300000EB830353F80409013A18390028F9D066
:101440000092069106989FED7C0B00F055FB009BE7
:10145000002B55EC104BC0F2C181DA000DF5E47899
:101460000EA901EB830608EB020B069204360BF182
:10147000080756F8040D12F079FC22462B4612F0AC
:10148000DBFC002267E90201714B2046294612F07D
:10149000D3FC474504460D46EBD14AACDDF81C9021
:1014A00004944FF0000AB9F1000FC0F22B81DFF86D
:1014B000A4815D4662A3D3E900230026002700240F
:1014C00003E0A24510DBF8E80223F5E8020112F080
:1014D000B3FC02460B463046394612F0FBFA0134A3
:1014E000A14506460F46ECDA049B03EBCA03ABF1B9
:1014F000080BC3E9006770AB9B450AF1010AD2D122
:10150000A49B049C032B00F28D80DFE813F0DD0028
:10151000A500A5000400009B002B40F35C81009B0C
:1015200003F1005B069B0BF1FF3BE2184FEACB0394
:10153000D2E9008903F10802103304EB020AE5182E
:101540003AED027B42464B4651EC170B8DED047B86
:1015500012F0C0FA06460F4602460B46DDE90401CA
:1015600012F0B6FA4B46424612F0B4FA65E90201AF
:101570004CAB9D42B046B946CAE90067E0D1009B3A
:10158000012B40F32881069B234493ED007B4FEA17
:10159000CB0B0BF1100A8DED007BA2440BF1080B75
:1015A00004EB0B05D0460DF59C7BCDF810A075E93A
:1015B000029ADDE900014A46534612F08BFA0646CC
:1015C0000F4602460B464846514612F081FADDE9C5
:1015D000002312F07FFA68E90201C345CDE90067F4
:1015E000C5E90067E3D1DDF810A0002000217AE909
:1015F000022312F06FFAD345F9D1039B002B00F0C0
:10160000D3806268E368089F2568A4683D6002F1A2
:10161000004203F1004301F100417A60FB60BC60CD
:1016200038617961099B03F007000DF51B7DBDE86A
:10163000F08F00BFAFF30080000000000000F03F1B
:1016400000000040FB21F93F0000F03F0000E03FB8
:101650000000703E08590100069D08352544002011
:10166000002175E9022312F035FAA542F9D1039B56
:10167000002B4AD0089E024601F1004386E80C0088
:101680000B460246D4E9000112F022FA009B002B1F
:101690000DDD4CAD0124F5E8022312F01BFA009B8E
:1016A0000134A342F7DA039B002B00F0A78001F17D
:1016B000004308990246C1E90223099B03F0070091
:1016C0000DF51B7DBDE8F08F069B009D08330020C3
:1016D00000211C4474E90223013D12F0FBF96B1C4C
:1016E000F8D1039B0246002B00F08E8001F10043ED
:1016F0000899C1E90023099B03F007000DF51B7D44
:10170000BDE8F08F00260027EEE6089B0246C3E9FD
:1017100000010B46D4E9000112F0DAF9009C002C1C
:1017200002460B46B5DC0899C1E90223C5E7069BD2
:101730000395584247EC106BCDF8248000F0DCF99B
:1017400055EC104B0022384B10EE100A294612F0CF
:10175000F9FD002834D00022344B2046294612F0EF
:101760006BFB12F019FE064612F000FB00222E4B16
:1017700012F062FB02460B462046294612F0A8F9F9
:1017800012F00AFE0499069B0A46183301320693AA
:101790000B460EA9009241F8230041F8226051E661
:1017A0000123A0E500245CE5D4E90067D4E9022325
:1017B000089DC5E90401C5E90067C5E9022331E7D1
:1017C0002946204612F0E8FD049A00920EA941F83D
:1017D000220037E64AAC002000210EE7A49B032B31
:1017E0003FF620AF01A252F823F000BF23180000FB
:1017F0001B1800001B180000D51700000B460899A5
:101800000246C1E9022358E70B460899C1E90023C3
:1018100071E70A9BDB00049369E4002000214AACD5
:1018200025E7002000215CE7000070410000703EC9
:101830002DE9F04F55EC104B2DED028BB0EE418AA7
:10184000F0EE618A25F00043B3F1795F83B0824600
:1018500007DA10EE100A294612F09EFD002800F06B
:101860008E8022462B462046294612F0E5FA06468F
:101870000F4602460B462046294612F0DDFA47A3E2
:10188000D3E90023804689463046394612F0D4FA1F
:1018900044A3D3E9002312F01BF932463B4612F071
:1018A000CBFA42A3D3E9002312F014F932463B46A7
:1018B00012F0C2FA3FA3D3E9002312F009F932462D
:1018C0003B4612F0B9FA3DA3D3E9002312F002F926
:1018D000CDE90001BAF1000F37D000222E4B51ECB8
:1018E000180B12F0A9FADDE9002382468B46404628
:1018F000494612F0A1FA02460B465046594612F0EC
:10190000E7F832463B4612F097FA53EC182B12F0E8
:10191000DFF81FA3D3E9002306460F464046494699
:1019200012F08AFA02460B463046394612F0D2F8D7
:1019300002460B462046294612F0CAF841EC100B2D
:1019400003B0BDEC028BBDE8F08F02460B4630467B
:10195000394612F071FA0EA3D3E9002312F0B8F859
:1019600042464B4612F068FA22462B4612F0B2F875
:1019700041EC100B03B0BDEC028BBDE8F08F45ECE1
:10198000104B03B0BDEC028BBDE8F08FAFF30080CD
:10199000495555555555C53F0000E03F7CD5CF5AB8
:1019A0003AD9E53DEB9C2B8AE6E55A3E7DFEB157E0
:1019B000E31DC73ED561C119A0012A3FA6F8101149
:1019C0001111813F53EC102B23F0004343EC102BFB
:1019D000704700BFFFFFFFFF51EC100BC1F30A532C
:1019E0002DE9F041A3F2FF35132D0C460F4610EE02
:1019F000106A1DDC002D43DB3D4B43FA05F801EA7C
:101A00000803034319D038A3D3E9002312F062F886
:101A10000022002312F0A0FC20B1002C49DB27EAB1
:101A2000080400262346324643EC102BBDE8F08123
:101A3000332D06DDB5F5806F32D041EC100BBDE8DB
:101A4000F081A3F213434FF0FF3828FA03F810EAAD
:101A5000080FF2D024A3D3E9002312F03BF80022B0
:101A6000002312F079FC0028DCD0002C27DB3C4658
:101A700026EA08062346324643EC102BBDE8F081E7
:101A800019A3D3E9002312F025F80022002312F055
:101A900063FC0028C6D0002C1CDB00263446C1E7BE
:101AA00010EE102A0B4612F015F841EC100BBDE8B1
:101AB000F0814FF4801343FA05F52F44AFE7142D5E
:101AC00010D00123C5F1340503FA05F5AE1928BF7E
:101AD000FF18CCE724F00042064B324318BF1C46E7
:101AE00000269FE70137C2E79C7500883CE4377EFB
:101AF000FFFF0F000000F0BF53EC102B70B5C3F3D5
:101B00000A541946054614BB23F0004111432AD05C
:101B100019460022384B394E10EE100A12F08CF99B
:101B2000B54202460B461FDBC1F30A54363C2C4437
:101B300040F2FE7084421FDC002C2DDD21F0FF41BD
:101B400021F4E00141EA045343EC102B70BD40F254
:101B5000FF708442EBD110EE100A194611F0BAFF63
:101B600041EC100B70BD70BD1FA3D3E9002312F030
:101B700063F941EC100B70BD43EC112B9FED1C0B76
:101B800000F040F81AA3D3E9002351EC100B12F037
:101B900053F941EC100B70BD14F1350F13DA4CF210
:101BA00050318D4243EC112BE8DC9FED0F0B00F020
:101BB00029F80DA3D3E9002351EC100B12F03CF9E6
:101BC00041EC100B70BD21F0FF4121F4E0013634EF
:101BD00041EA0453104619460022094B12F02CF931
:101BE00041EC100B70BD00BF59F3F8C21F6EA50188
:101BF0009C7500883CE4377E00005043B03CFFFFFA
:101C00000000903C53EC102B11EE900A23F00041A1
:101C100000F0004041EA000343EC102B704700BF86
:101C20000B46014618460AF07BBA00BF10B50028E3
:101C300014BF0446012420460AF0AEFC00B110BDDA
:101C400000F012F808B18047F5E7042000F070F9C1
:101C5000024B0360024A034900F030F84859010082
:101C6000B11D000054590100024B1868BFF35F8F8B
:101C7000704700BFA013FF1F012810B51AD8BFF38B
:101C80005F8FA1F1280353E8002F013A43E80020B9
:101C90000028F8D1BFF35F8F5AB951F81C3C01F10D
:101CA00058040BB1204698472046BDE8104000F08C
:101CB00057B910BD51F8140C00F092F8F8B504466D
:101CC0000F46164600F0CEFD436801252B444360C5
:101CD00044F8787C44F8746C44F8805C00F0B4F804
:101CE00044F8700C00F0A8F8472343224FF04E0E42
:101CF000104904F8583CA4F158052B235527002619
:101D000044F86C0C04F857EC44F8501C04F8552CBB
:101D100004F8542C04F8533C04F8523C04F8567C64
:101D200004F8516C284613F0C3FA284600F00AFD67
:101D300000F06AF8791C000010B500F093FD4268CD
:101D40000368013242606BB193F82020472A0BD020
:101D50000022026003F12004204613F0CDFA204651
:101D600000F0F0FC00F050F893F821204E2AEFD15B
:101D700093F82220552AEBD193F82320432AE7D168
:101D800093F82420432AE3D193F825202B2ADFD18E
:101D900093F826202B2ADBD193F82720012AD7D8C5
:101DA0005A6952425A61D5E70048704760590100AC
:101DB00010B5034B0360044600F04EFF204610BDF3
:101DC0004859010010B5054B0360044600F044FF7C
:101DD000204600F03FFF204610BD00BF48590100DB
:101DE00008B5804707F0DDFB00F0ACFC07F0D9FB3D
:101DF0000D46044600F0ECFC013501D000F062FE17
:101E0000204600F0FFF800BF08B5034B1868BFF389
:101E10005F8FFFF7E5FF00BF4407FF1F08B580474E
:101E2000FFF7F2FF08B5034B1868BFF35F8FFFF7AA
:101E3000F5FF00BF4007FF1F024B1868BFF35F8F1D
:101E4000704700BF4407FF1F024B1868BFF35F8F46
:101E5000704700BF4007FF1FF0B41B4C50F8087CD0
:101E60006168A0F10806C9B1F519A9421BD04A68FA
:101E70002AB3954203D322E09D4205D21A46536805
:101E80000C1D1146002BF7D111685518AE4213D026
:101E900040F8043C23685E60F0BC704740F8041CC6
:101EA0006660F0BC70470B684A6840F8042C1F4419
:101EB00040F8087C6660EFE739441160ECE71346B0
:101EC00004340A46E0E700BFA413FF1F30B4174CE8
:101ED00000F10803072B636886BF00F10F0121F0B2
:101EE00007010821EBB11A68914204D81BE002688F
:101EF0008A4205D2034658680028F8D130BC7047A2
:101F00000433521A072A09D94418456865604250BB
:101F1000186801601C60083030BC704742681A6065
:101F2000F9E71846EAE71846231DEAE7A413FF1F5E
:101F300038B500F1800528460AF02EFB044638B17A
:101F400080220021204607F07DFE04F1800038BD8C
:101F50002846FFF7BBFF04460028F1D1FFF754FFE6
:101F6000064A93688038984205D9D268134498424B
:101F700001D2FFF771BF0AF017BB00BFA413FF1F08
:101F800038B5084C4FF41E652846E5600AF004FB9E
:101F9000A06020B1002360600560436038BDE06050
:101FA000606038BDA413FF1F0378472B01D00020C9
:101FB000704743784E2BFAD18378552BF7D1C378ED
:101FC000432BF4D10379432BF1D143792B2BEED161
:101FD00083792B2BEBD1C07901288CBF0020012005
:101FE000704700BF10B530B1044600F0ABFB20468F
:101FF000FFF7DAFF08B9FFF707FF54F8140CFFF7F3
:10200000EFFE00BF2DE9F04F85B00246FFF7CCFF91
:1020100060B152F8188C52F8145C966A176B546BC6
:10202000104600F08FFB4046FFF7F8FE104600F028
:1020300089FBFFF7F7FE00F085FBFFF7E5FE00F0F8
:1020400081FB00F00BFCD0F8008098F82730012BC2
:1020500038D008F178030DF1100A4FF000094AF862
:10206000083D27F003030093CB46B3451EDA2768EB
:1020700007B1274453460022394608F1200000F0FA
:1020800027FD28BB3B6816491B69019304AA01235D
:1020900042F8040D3846019FB847009B002818BF3E
:1020A0004FF001090BF1010B1C44DEE7B9F1000F01
:1020B0000BD00420FFF73CFF0A4B03600A4A084993
:1020C000FFF7FCFDD8F80030C5E72846FFF788FE8B
:1020D000FFF732FE00F07CFB00F07AFB00F0F2FC30
:1020E0002C5B0100FC5A01005D2C00005028F8B563
:1020F00054D000F00F040C2C4ED8DFE804F0073960
:102100004907174D4D4D4D1F1B071700154655F834
:10211000044B44B100F07006102E18BF0A46144458
:10212000020648BF24681C602846F8BD154655F8CD
:10213000084BEEE7154635F9024BEAE7002427463F
:10214000154615F801EB0EF07F06BE401EF0800F1D
:1021500044EA060407F10707F3D11F2FD9D81EF070
:10216000400FD6D04FF0FF3606FA07F73C43D1E7D1
:1021700000242746154615F801EB0EF07F06BE40F9
:102180001EF0800F44EA060407F10707F3D1C0E709
:10219000154635F8024BBCE707F003FA033222F08C
:1021A000030555F8044B1C602846F8BDFF2815D0E0
:1021B00008B500F07003202B12D00AD9402B14D0A0
:1021C000502B17D0302B07D10846BDE8084013F03C
:1021D0006FBA7BB1102B0DD007F0E3F900207047E8
:1021E0000846BDE8084013F05FBA0846BDE808405D
:1021F00013F04ABA002008BDF8B50C46154607464C
:10220000002844D013F040FA28602678FF2E04F10D
:10221000010432D039463046FFF7C8FF2246014656
:102220002B1D3046FFF762FF0446601C23782B7598
:10223000FF2B29D0102300242B75224610F8011BF8
:1022400001F07F039340090644EA030402F1070208
:10225000F4D40444EC6003786B750024013022460A
:1022600010F8011B01F07F0393401C430B0602F1A1
:102270000702F5D404442C61F8BD686023782B75FF
:10228000FF2B04F10100D5D10023EB60E3E7BBE7AE
:102290002DE9F04F00F0030497B00023012C89468C
:1022A00090460A9321D00ED3022C0AD141464846CB
:1022B00013F0D6F9002800F0D480092017B0BDE84B
:1022C000F08F07F06EF900F0080000F0FF0300281F
:1022D000ECD116AA404642F82C1D194600920C2259
:1022E00012F06EFC0123049313E000F0080000F0EC
:1022F000FF04002800F0B98016AA44F0020442F856
:102300002C1DE4B2009219460C224046049412F0AF
:1023100057FC404613F0BEF905900028C6D010AB1C
:102320001A46059906934046FFF766FF4146044664
:102330009DF85400FFF73AFF0DF13C0B002312907B
:1023400019460F22CDF800B0404612F013FC0F9B47
:10235000149A23F00103944203F1FF3643D20DF1A6
:10236000340A0EAF9DF8555000212846FFF71EFF96
:102370002246534601462846FFF7B8FE9DF85540D1
:10238000054600212046FFF711FF2A463B4601463D
:102390002046FFF7ABFE9DF855400546002120463C
:1023A000FFF704FF2A4601465B462046FFF79EFEE4
:1023B00004460020024614F8011B01F07F039340FD
:1023C0000D0640EA030002F10702F4D4109A0D9BB7
:1023D00013449E4207D30E9A13449E42C0F0BA8023
:1023E000149BA342BED8002503950124049BDB0760
:1023F00056D4049B190740F1A880012C00F09D8160
:102400000DF1340A0EAF16A9002341F8289D1A4693
:1024100000914046194612F0D3FB002319460122D1
:10242000CDF800A040460D9512F0CAFB00231946D6
:102430000F220097404612F09DFB0E9B039A0097D7
:1024400003F0010500231543404619460F220E955F
:1024500012F0B6FB022C00F0F580072017B0BDE8A3
:10246000F08F082017B0BDE8F08F10AB00930693F3
:102470000D22234621464046D9F8205012F07AFB1F
:10248000109B9D4224D016AA234642F82C9D21463B
:10249000009240460C2212F093FB0223049338E78B
:1024A0000EAF002319460D22009740460A9C12F0F9
:1024B00061FB059A0E9BC9F82C20039AC9F82440A9
:1024C000C9F82850C9F83020C9F820300620F5E6B0
:1024D00016AA234642F82C9D2146009240460C2223
:1024E00012F06EFBD9F83030039383B3D9F82C3057
:1024F000D9F82850059303240DF1340A0EAF002DAE
:1025000081DA069A05994046FFF776FE41469DF826
:102510005400FFF74BFEAA0082F00302D243139E41
:102520001290B358164433B13246002352F8041FB8
:1025300001330029FAD10422C9F82830C9F82C0047
:10254000C9F83460C9F830205DE7012CD4D1484681
:10255000FFF748FD0F9B002B3FF4A8AE119A1344E0
:102560000393002800F0D680149C01380444002B0B
:102570003FF49CAE002C00F0D180049B13F00803C4
:10258000099300F0BD8047224E2389F8002089F886
:1025900001305522432389F8022089F8033046226E
:1025A0004F2389F8042089F805305222002389F846
:1025B000062089F8073000230793CDF820800025F6
:1025C0002A4614F8011B01F07F039340080645EAF0
:1025D000030502F10702F4D41F2A05D8490603D5E2
:1025E000012393405B421D4300263246204610F8EB
:1025F000011B01F07F0393401E430B0602F107020B
:10260000F5D41F2A05D8480603D5012393405B4221
:102610001E43002D3DD03FDD9DF85400FF286DD0B6
:1026200000F00703042B3FF64CAE01A252F823F052
:1026300077260000C32200007126000077260000E4
:102640004F260000484600F09BFA072036E6EB00D4
:102650005B42139A12991A443B46FFF747FD0E99C5
:1026600099B1B9F1000F09D1002E5ED03444A6E72C
:102670006B005B42EDE7AB005B42EAE70AAB00228E
:10268000484600F025FA0028EED0DDF8208003242B
:10269000ACE601230793E7E7B9F1000F01D0099BEE
:1026A00093B16B1CC3EB8373139A52F82330002B46
:1026B000DAD1049BDDF82080DA073FF5F2AE099B02
:1026C000002B3CD0FFF7AEFB05F10108C8EB887387
:1026D000139A0A9852F823100F9002EB830821B93D
:1026E000E7E758F8041F0029E3D041445B46002285
:1026F000484600F0EDF90028F3D0B5E70023A8E73D
:1027000099F80730012B0CBF59F8203C09F1580308
:102710000A9350E7039B002B3FF4C8AD049B13F0D2
:1027200001057FF4C3AD022463E6079BDDF820803A
:10273000002BF3D1BAE500F005F8FFF765FB0324A1
:10274000DDE600BF38B5044600F08CF82278036857
:10275000472AA4F1200105D0002B31D11C4601608D
:10276000204638BD62784E2AF6D1A278552AF3D198
:10277000E278432AF0D12279432AEDD162792B2ADB
:10278000EAD1A2792B2AE7D1E279012AE4D854F8D8
:102790000C2C002A11DB0132456844F80C2C8B42CA
:1027A00005F1FF3242601CBF44F8103C0160204636
:1027B000646A12F0D7F9204638BDC2F10102EBE796
:1027C000FFF722FB013101D000F07CF9FFF71AFC82
:1027D00008B500F043F80246006800283DD090F8A4
:1027E0002030472B06D0002313602030BDE808407E
:1027F00012F0BAB990F821304E2BF4D190F8223073
:10280000552BF0D190F82330432BECD190F82430A5
:10281000432BE8D190F825302B2BE4D190F82630CB
:102820002B2BE0D190F82730012BDCD84369002B0B
:1028300005DB013B08D05A1C0DD0436108BD0133B4
:10284000FBD101691160F8E7036913602030BDE82E
:10285000084012F089B9FFF7D7FA08BD0048704761
:10286000B413FF1F00487047B413FF1F70B53D4BF2
:102870001A7882B0002A36D101241C7000F014F9B5
:1028800000285CD04068384D03782A2B02AB4FF00B
:10289000FF320CBF0419044643F8042D00221146F0
:1028A000204606F08FFA2B680646DB682F48302258
:1028B000012109F039FE019B7BB12B682046D968C4
:1028C00009F076FC2B682A48DB680222012109F016
:1028D0002BFE019B8BB1FFF72FFA2B683046D9688E
:1028E00009F066FCEEE7204B22481B681D22DB68DE
:1028F000012109F019FE06F054FE304609F054FE9D
:10290000E9E701290C4627D1FFF71CFF03689B6804
:1029100098472B680646DB68174821460B2209F0CA
:1029200003FE2B683046D96809F042FC2B680A2068
:10293000D96809F001FCFFF74BFF06F032FE0A4BA5
:102940000E481B682146DB682D2209F0EDFDF4E7F7
:10295000FFF73EFF00F0B6F8FFF7F4FEFFF738FF91
:10296000EBE700BFC013FF1F380CFF1FA059010089
:10297000D459010080590100085A0100D8590100BA
:1029800010B5034B0360044600F0B0F9204610BDBB
:102990001C5A010010B5054B0360044600F0A6F96F
:1029A000204600F057F9204610BD00BF1C5A010018
:1029B0002DE9F04F81B00E4619461F4691468346D9
:1029C0000A9CDDF82CA0DDF830800D9D00F056F952
:1029D00070B1002E2C6085F804901FDB3444A045B4
:1029E0000CBF06240124AC71002001B0BDE8F08FBB
:1029F000444518D0DBF80800D0F800E00D95CDF87C
:102A00003080CDF82CA00A94DEF81C403B464A46A4
:102A10003146A44601B0BDE8F04F60470236E3D12D
:102A20000123AB71E0E75146584600F027F9002832
:102A3000E0D0002085F8059001B0BDE8F08F00BF20
:102A400070B582B00D46069C9442064609D0B06827
:102A500006680694346A2946A44602B0BDE8704070
:102A6000604719460192009300F008F9009B019A13
:102A70000028ECD0062002B070BD00BF2DE9F04167
:102A800007460C4615461E4600F048F908B1BDE859
:102A9000F081B86807682146BC6933462A46A446D7
:102AA000BDE8F041604700BF08B5FFF7DBFE0068F6
:102AB00030B190F82730012B04BF006878380068E7
:102AC00008BD00BF1EB400F08DF81EBC12F002FC61
:102AD000F0B50278472A83B00E461F461AD000236D
:102AE000254C0193236820469B68984780B1019B41
:102AF0001B68019302253368214630461C6901AAF0
:102B00000123A04710B1019B3B60284603B0F0BDF4
:102B10000125F0E743784E2BE1D18378552BDED1A8
:102B2000C378432B19D0C378432BD8D10379432BD7
:102B3000D5D143792B2BD2D183792B2BCFD1C3790C
:102B4000012BCCD804D050F8204C58300190C9E764
:102B500050F8200C50F8784CF8E70379462BE2D176
:102B600043794F2BDFD18379522BDCD1C379002BF2
:102B7000D9D10193014CB5E7EC5A0100945A0100F8
:102B800010B50446FFF76EFE2378472BA4F1200210
:102B900004D0836823BB8260012010BD63784E2B74
:102BA000F7D1A378552BF4D1E378432BF1D12379D6
:102BB000432BEED163792B2BEBD1A3792B2BE8D1CF
:102BC000E379012BE5D854F8043C0133012B44F898
:102BD000043CE1D1836844F8083C8260012010BDC8
:102BE000FFF712F908B5FFF73DFE836883B393F84A
:102BF0002020472A04D00022826003F1200008BD73
:102C000093F821204E2AF6D193F82220552AF2D1AA
:102C100093F82320432AEED193F82420432AEAD1C3
:102C200093F825202B2AE6D193F826202B2AE2D1EF
:102C300093F82720012ADED8DA69013ADA61002AFE
:102C4000DBD19A69826000229A6103F1200008BDFD
:102C5000FFF7DAF809F0A8BC704700BF704700BF63
:102C600000487047D85A010010B50446FFF7F2FF3C
:102C7000204610BD704700BF00207047814211D030
:102C800008B5406803782A2B0AD049680B782A2BAC
:102C900008BF01310AF0A8FAB0FA80F0400908BD77
:102CA000002008BD0120704770B5036884B000247F
:102CB0009E69009410231546029312688DF8044013
:102CC0006B460394B0479DF8043003F00603062BCF
:102CD00003BF009B2B600120204604B070BD00BFE5
:102CE000009890420CBF06200120704710B5034B9E
:102CF00003600446FFF7BEFF204610BD585B01008D
:102D000010B5054B03600446FFF7B4FF2046FFF7FC
:102D1000A1FF204610BD00BF585B010038B5154625
:102D20001C46FFF7ABFF20B1082206232560E260B6
:102D3000237138BDF0B583B01746089D0A990B9CE6
:102D40008D4206460BD019463046FFF797FF18B163
:102D5000012325602771A371002003B0F0BD0999FC
:102D60000193FFF78BFF18B10020677103B0F0BD2E
:102D7000019BE8E72DE9F04117461C4606460D4643
:102D8000FFF77CFF08B9032C01D9BDE8F0812B685F
:102D90003A46314628465B69BDE8F041184700BF16
:102DA00070B44C1E4B2C2CD8DFE804F03C3C3C3C6F
:102DB0002B2B2B2B26263C26262626262626262689
:102DC0002626262B27272727272727273C26262680
:102DD00026262B26273D3C2B3C27273D2B2B262622
:102DE000263C3C3C3C3C263C3C263C2B2B262626C9
:102DF0002B2B2B2626263C3CCAB144698569AC4264
:102E000002DB002070BC704704EB44050669013406
:102E1000AD00446174190CD071556260A360204606
:102E200070BC70471AB1002BE7D11846EAE710468C
:102E3000E8E72046E6E700BF2DE9F047C368B2F1B6
:102E4000000A04460F461A7815BF4FF01C084FF0D1
:102E500019084FF01D094FF01A0914BF1E261B2632
:102E60000D4612E0562A1BD04B2A22D1236BE1607B
:102E700006332363314600231A462046FFF790FFAE
:102E80002860A0B1E3681A78051D722A03F10101D8
:102E9000E8D1226B01330932E36022634146EAE75D
:102EA000226B01330932E36022634946E3E7BDE860
:102EB000F087BAF1000F01D1462A02D02846BDE8BA
:102EC000F087BD42FAD01D201E211C2207E01B2BDB
:102ED0000BD0192B00D13A700437BD42EED03F68B9
:102EE0003B781A2BF3D13870F6E73970F4E700BF5E
:102EF00010B4C3681C78522C0A460FD04F2C03D054
:102F000008465DF8044B7047016B033101632021D3
:102F10000133C3605DF8044B002341E7016B0231CC
:102F200001631F21F4E700BF002A4CD070B50546AD
:102F30000E4614462378013B4B2B2AD8DFE803F0DA
:102F40003535353E2929262635353535353535355E
:102F5000353535353535352935353535353535352D
:102F600035352E2E353529353535352A3535353536
:102F70002926353535353535353535353535352928
:102F800029352A2A2A2A293535353535A468002CD1
:102F9000D0D170BD6468002CCCD1FAE76268137898
:102FA000052B03D13368013333606268314628460C
:102FB000FFF7BAFFA468002CBCD1EAE72B68013305
:102FC0002B606268F2E770477AB32DE9F0410D4655
:102FD0000446D0F80011AF184FF0000809E00B4686
:102FE000BD4201F10101C4F80011E65484F8046106
:102FF00019D0FF2915F8016BF1D1D4F8083184F804
:10300000FF80D4F80C2120469847D4F820310133B2
:10301000C4F8203100230121BD42C4F80011E65458
:1030200084F80461E5D1BDE8F081704730B40368ED
:103030001A786E2A044616D0A2F1300109291CD84C
:10304000002500200133236000EB800002EB4000EC
:103050001A78A2F130010929A0F13000F2D905B1A6
:10306000404230BC7047591C01605A78A2F13003CD
:10307000092B02D80B460125E3E70020F1E700BF4A
:1030800043698269934214DA03EB430201699200B7
:1030900010B501338C18436108D041238B540C3098
:1030A000FFF7C4FF23466060184610BD234618464C
:1030B00010BD00231846704710B5C3681A785F2A00
:1030C00004460DD06E2A0FD00C30FFF7AFFF013051
:1030D0000AD4E3681A785F2A06D10133E36010BD91
:1030E00001330020E36010BD4FF0FF3010BD00BF82
:1030F00038B5C3681A78542A01D0002038BD01338E
:10310000C3600446FFF7D8FF051EF6DBA26A6369B9
:10311000A16901328B42A262EFDA03EB430221691B
:103120000133920063618B18E7D0052088545D60FD
:10313000184638BD70B504460C30FFF777FF061E01
:103140004EDDE56863685B1B9E422CDCA268AB1910
:103150005207E36004D5AA5D242A04BF0133E3606B
:10316000092E0CDD08221F49284609F049FD30B917
:103170002B7A2E2B1AD05F2B18D0242B16D06369F4
:10318000A26993420FDA03EB4302216901339200F3
:1031900063618B1807D035B10020885418465D60F4
:1031A0009E60E06270BD0020E06270BD6B7A4E2BC5
:1031B000E5D1236B6269A16916339E1B8A4226639F
:1031C000F1DA02EB420321699B000132C818626107
:1031D000E9D00025CD54044A426015238360E3E71B
:1031E000002070BDE4620100F062010038B5C368E0
:1031F0001A78422A0D4610D104460133E360204676
:10320000FFF798FF2A4603464B212046FFF7C8FDEB
:10321000E3681A78422A0546EFD0284638BD00BF39
:10322000C2681378532B02D00021084670472DE95D
:10323000F041531CC36053788BB1931CC360547826
:103240005F2C2DD10023026A93421CD2826AC1698D
:10325000013251F8231082620846BDE8F0811C4615
:10326000836803F00803002B14BF012500250ED04E
:103270004D4B742203F1A80101E013F81C2F944276
:1032800037D08B42F9D100210846BDE8F0810029F2
:10329000EED0C3681B78433B012B98BF0125E7E7BD
:1032A000A4F13005EBB2092B79D800210DE0303BB9
:1032B0009942E8D8C2681478511C1CB1C1601478D6
:1032C0005F2C14D0A4F130051946EDB2A4F14102EF
:1032D00001EBC103092DD2B204EB8303E7D9192A0C
:1032E000D1D801EBC10204EB8203373BE0E70133A5
:1032F000A9E75C69002C49D0426981698A4243DAB6
:1033000002EB4206D0F810E0D3F81880B600013284
:103310001EEB0607426140D04FF0180C0EF806C0B5
:103320003E467C60C7F80880C66245B3DE681C690B
:10333000036B91422344036324DD02EB42010569E0
:10334000890001326B18426125D018226A5419464F
:103350005E609C60C3681B78422B7FF47DAF04469F
:10336000FFF744FF00288ED0236A626A934210DA86
:10337000E1695A1C41F82300014622626CE75E684D
:103380009C68D5E70021E5E70026CDE78169426921
:10339000CBE7014660E71946DCE73E46C4E7A4F107
:1033A0004103192B81D95BE7AC5B010038B50446BA
:1033B00029B9C3681A7832B15A1CC26019786829D1
:1033C00019D0762901D0002038BD04F10C0528461B
:1033D000FFF72CFEE3681A785F2AF4D10133E3602B
:1033E0002846FFF723FEE3681A785F2AEBD1013302
:1033F000E360012038BD04F10C00FFF717FEF2E78F
:10340000D0F810310246C3B15A680B68906870B1A9
:1034100002782F2A0DD1002B04DC09E002782F2A34
:1034200007D143B18068013B0028F7D1704770474E
:1034300001D0002070474068704701211846C2F84B
:1034400018117047002941D038B505460C4623783D
:103450004B2B27D8DFE803F02E26262626302E2BEE
:103460002B262626262626262626262626262626F7
:103470002E26262626262626262626262626262EDC
:10348000262626262E262626262E2B2626262626C7
:1034900026262626262626262E2E2626262E2E2EA4
:1034A00026262E2E61682846FFF7CCFF18B9A4689F
:1034B000002CCCD1002038BD211D2846FFF7A0FFED
:1034C0000028F7D003782F2BF4D138BD00207047A7
:1034D000F0B55368946801330B44A34283B015469A
:1034E0000E46074613D8EC680CB103B0F0BD95E862
:1034F000090032463946184406F00AFB2B686A6810
:1035000033449C546B681E446E6003B0F0BDD268B7
:10351000002AEAD11CB9022B4FF0020402D9640040
:10352000A342FCD82146286809F026FC10B1286087
:10353000AC60D8E70190286809F036F8019B2B6051
:1035400001226B60AB60EA60CFE700BF2DE9F04776
:10355000C5682A7882B000238A420446019300F0AD
:10356000C8810F4601AE23E0662B5AD0A3F130028A
:10357000092A00F2F881204601F0A8FA0546002841
:1035800049D0E3681B78492B00F0B4800246C4F8A8
:10359000348000232E212046FFF702FC30600028F3
:1035A0003BD0E5682B78BB4200F1080600F0638150
:1035B0004FF00109D4F83480C4F834902B784C2BA8
:1035C00070D0542B78D0732BCED16B78722B00F047
:1035D0003C81702B00F05581204601F0B5F905467D
:1035E000C8B10378312B6CD0322B3ED16B68032BE2
:1035F00011D8DFE803F08E411010742BECD16B78FA
:103600006C2BE9D1204600F0E1FDE5686B7881463E
:10361000002B40F0B381C4F83480002002B0BDE834
:10362000F0876B78702BD7D1AB1CE360AB78542B51
:103630006BD02046FFF740FD6FF0004320F00042C2
:103640009A42E8D001306369A2699342E3DA2269C1
:10365000591C03EB4303616112EB8301DBD00625A8
:1036600002F823500A46486091E7332BD3D1E36830
:103670001A785F2A00F060814FF00009204600F0C0
:103680009DF90346B9F1000F05D0024638212046C6
:10369000FFF786FB03462A4636212046FFF780FBCC
:1036A000024603E0204601F05FFE0246C4F8348083
:1036B000002A7FF46EAFB0E72046FFF719FD0246FF
:1036C000F4E7D0F804A0226BDAF80830DAF80090BA
:1036D000B549023B13442363484609F085FD0028A1
:1036E00000F0E180DAF80C30032B94D8DFE803F027
:1036F00011955F19204600F045FB2A460346042138
:103700002046FFF74DFB0246D0E70335E560002079
:1037100099E72A46002335212046FFF741FB024660
:10372000C4E7B9F1000F3FF476AFA049484609F06D
:103730005BFD002800F0BC8099F800306E2B7FF410
:103740006AAF99F80130772B02D0612B7FF463AF19
:103750005F212046FFF7FAFE8146204600F036FD45
:10376000E3681A78452A824600F0D780702A00F074
:10377000EB80692A7FF44FAF5B786C2B7FF44BAF03
:10378000204600F01BF9034652463B212046FFF736
:1037900007FB4A4603463A212046FFF701FB2A462B
:1037A000034639212046FFF7FBFA02467EE7B9F1CE
:1037B000000F3FF430AF6B681B685A78632A00F043
:1037C0008A80204600F0FAF882467949484609F096
:1037D0000BFD002879D07749484609F005FD28B14E
:1037E0004846754909F000FD002857D1204601F0F0
:1037F0006DF9E3681B78492B814600F092804B46B7
:10380000524638212046FFF7CBFA2A460346372195
:103810002046FFF7C5FA024648E7B9F1000F3FF42A
:103820002BAF99F80030702B02D06D2B7FF424AFB2
:1038300099F801209A427FF41FAFE3681A785F2A53
:1038400000F08E804FF0010918E70235E560204650
:1038500000F0BCFC0546204601F038F9E3681B780F
:10386000492B82464ED003462A4649462046FFF75A
:1038700097FA02461AE701980135E56002B0BDE803
:10388000F0870235E560204600F098F800230246F4
:103890004A212046FFF784FA024607E7204600F057
:1038A0008DF88146ABE7204600F090FC0346F2E637
:1038B000204600F083F88146204600F07FF88246DB
:1038C000204600F07BF803465EE745212046FFF7DF
:1038D0003DFE814693E71B78A3F16302012A03D9D9
:1038E000723B012B3FF66DAF204600F06FFC824625
:1038F0006BE701351A462E21C56002B0BDE8F047DE
:10390000FFF74EBA204600F03DFA52460346042126
:103910002046FFF745FA0346A6E70133E36000239C
:1039200032E7204600F02EFA4A460346042120469C
:10393000FFF736FA814662E70133E360452120460E
:10394000FFF704FE0346A6E65A78692A7FF463AEC1
:103950000233E36045212046FFF7F8FD034613E7F5
:103960000133E36088E66F2B16D0692B7FF445AEF8
:103970006B786C2B7FF430AE4FF000090235452197
:10398000E5602046FFF7E2FD4A4603463021204627
:10399000FFF706FA024689E66B786E2B7FF41CAEC1
:1039A0000235E560E7E500BFD06701001463010060
:1039B000086301000C63010010630100C1680B780B
:1039C0004C2B6BD0542B6BD0732B2DE9F04104465C
:1039D00024D0662B0FD0A3F13002092A00F29A817D
:1039E000204601F073F80546A8B1E3681B78492B1F
:1039F0006DD0BDE8F0814B78702B2FD0204600F0C1
:103A0000A3FF054638B10378312B4BD0322B16D0AB
:103A1000332B00F024810020BDE8F0814B78722B1D
:103A200060D0702BEAD10231C160FFF7C7FF0023DD
:103A300002464A212046BDE8F041FFF7B1B96B6864
:103A4000032BE8D801A252F823F000BF193B000075
:103A5000193C0000173A0000173A00008B1CC360A5
:103A60008B78542B54D0FFF727FB6FF0004320F0E6
:103A700000429A42CFD0421C6369A1698B42CADAE4
:103A800003EB430120690133890063614318C2D00D
:103A9000062444545A601846BDE8F08101F064BC25
:103AA000FFF726BB4768226BBB683E68B049023B04
:103AB00013442363304609F097FB002800F0DB80B5
:103AC000FB68032BA7D8DFE803F027BA722F204644
:103AD00000F058F92A46034604212046BDE8F0418B
:103AE000FFF75EB90231C16000F070FB0546204669
:103AF00000F0ECFFE3681B78492B064600F0DF80FE
:103B000003462A4620460121BDE8F041FFF748B9A7
:103B10000331C1600022AFE72A4620460023352149
:103B2000BDE8F041FFF73CB9002E3FF474AF914976
:103B3000304609F059FB002800F0A18033786E2B45
:103B40007FF469AF7378772B02D0612B7FF463AF7A
:103B50005F212046FFF7FAFC0646204600F036FBC0
:103B6000E36819784529074600F0B980702900F00C
:103B7000C58069297FF44FAF5B786C2B7FF44BAF26
:103B80002046FFF71BFF03463A463B212046FFF73E
:103B900007F9324603463A212046FFF701F92A4643
:103BA000034639212046BDE8F041FFF7F9B8002E61
:103BB0003FF431AF6B681B685A78632A72D0204695
:103BC000FFF7FCFE07466C49304609F00DFB002864
:103BD00062D06A49304609F007FB28B1304668498F
:103BE00009F002FB002875D1204600F06FFFE36862
:103BF0001B78492B064676D033463A463821204674
:103C0000FFF7CEF82A46034637212046BDE8F041AB
:103C1000FFF7C6B80133E36000262046FFF7CEFE6B
:103C200003462EB1024638212046FFF7B9F8034675
:103C30002A4620463621BDE8F041FFF7B1B8002EF4
:103C4000EAD03378702B01D06D2BE5D172789A428F
:103C5000E2D1E3681A785F2ADCD00126DDE7E36869
:103C60001A785F2AD8D10133E36045212046FFF757
:103C70006DFC0346DCE7204600F0A8FAD7E72046B3
:103C8000FFF79CFE06462046FFF798FE07462046B3
:103C9000FFF794FE034677E745212046FFF756FCE1
:103CA0000646A9E71B78A3F16302012A02D9723BF9
:103CB000012B84D8204600F089FA074683E7204686
:103CC00000F060F83246034604212046FFF768F80A
:103CD000034616E72046FFF771FE06468CE70133E0
:103CE000E360002350E7204600F04CF832460346DC
:103CF00004212046FFF754F806467DE75A78692AE2
:103D00007FF489AE0233E36045212046FFF71EFCB5
:103D1000034639E76F2B14D0692B19D14B786C2BE4
:103D20007FF46CAE00250231E16020464521FFF7AB
:103D30000DFC2A46034630212046BDE8F041FFF73E
:103D40002FB84B786E2B7FF459AE0231C16047E635
:103D5000742B7FF453AE4B786C2B7FF44FAE00F096
:103D600035FAE1684B780546002B3FF454AEDAE7AC
:103D7000D067010014630100086301000C630100B7
:103D800010630100C1680B78493B012B57D82DE91E
:103D9000F0414A1CC2604B78D0F82C80452B82B091
:103DA00004464ED002AD002145F8041D0127493BD1
:103DB0000F2B3BD8DFE803F035353A183A3A3A3A58
:103DC0003A3A3A3A3A3A3A080132666BE260676345
:103DD0002046FFF7F3FDE36866631A78452A2AD088
:103DE000002002B0BDE8F081204601F0BDFA064691
:103DF00000232F2132462046002EF1D0FEF7D0FFBF
:103E0000286000F108050028EAD0E2681378452B05
:103E1000CDD10198C4F82C800132E26002B0BDE837
:103E2000F0812046FFF7AEFF0646E1E7204600F0AE
:103E3000CDF90646DCE70133E3600646D8E700200B
:103E4000704702310023C1601A462F2102B0BDE83D
:103E5000F041FEF7A5BF00BF2DE9F043C26813781B
:103E60004E3B83B005460C2B69D8DFE803F01B6896
:103E70006868685968166868686807000132002138
:103E8000C26000F099FFEB6819784529064600F0FA
:103E90009C80002003B0BDE8F08300F017FE03B063
:103EA000BDE8F0830132C26001A90122FEF7C4FF20
:103EB00081460028EDD000212846FFF719F8EA686E
:103EC000B44E147880460027002C00F0EE80442C7D
:103ED00000F0D780A4F13003DBB21C2B40F2AD80A0
:103EE000A4F16103DBB2192B40F2AC80552C00F039
:103EF000E280532C00F0E880492C00F0DE80542C46
:103F000000F01981452C00F04B814D2C40F0CD8004
:103F1000002F00F0CA80531CEB6054781A46D3E798
:103F20005378742B29D00021FFF77AF9EB681B78BE
:103F3000492B044647D0204603B0BDE8F08300F08B
:103F4000C5FDEB681B78492B0446F4D10028A0D0AE
:103F50002B6A6A6A93429CDAE9695A1C41F8230089
:103F600028462A62FFF70EFF224603460421284610
:103F7000FEF716FF03B0BDE8F083436981690232A2
:103F80008B42C260C0F2AA800024284600F09EFD49
:103F90002246034601212846FEF702FF2B6BEA6802
:103FA00003332B631378492B0446C4D100283FF414
:103FB00070AF2B6A6A6A9342BFF66BAFE9695A1C0D
:103FC00041F823002A622846CCE75A1CEA60597857
:103FD000732900F09880642900F0B1802846FFF72B
:103FE0003BFF0446002800F08A800378452B00F050
:103FF0008680472B00F083804FF0FF37EB681A78FC
:104000005F2A00F0B3807B1C79D06B69AA69934268
:1040100077DA03EB43022969013392006B618B1855
:1040200003D0462088549F605C60324628460221B7
:10403000FEF7B6FE03B0BDE8F08326FA03F3D90716
:104040007FF54EAF284600F041FD4FB301210346F6
:104050003A462846FEF7A4FE0746532C1DD0EA68D0
:104060001478452C3FF436AFFFB12B6A6A6A93424D
:104070001BDAEA6942F823700133EA682B6214788C
:1040800022E7537803F0DF03542B28460AD000F0D0
:104090001DFD002FDAD10746E1E7EA68147813E73F
:1040A0000746DAE700F092F8F3E70020C9F80000CD
:1040B00003B0BDE8F0832846E9E7002FF5D0284695
:1040C000FFF760FE0421C2E701212846FFF7A8F8A8
:1040D000002FBBD1EA6807461478F5E603EB4301ED
:1040E00000698900013342186B613FF44DAF002332
:1040F0004354294C546003239360144645E72346F8
:1041000093E7002391E79A1CEA609A785F2A37D0F8
:104110006B69AA699342F4DA03EB4302296901331C
:1041200092006B618B18ECD000248C541B485860B3
:104130000E229A6079E72846FEF7DAFFA9E70233F4
:10414000EB602846FEF7B8FF071EFFF6A2AE284632
:10415000FFF782FE044600283FF457AF0378452B53
:104160003FF453AF472B3FF450AF47E728460133A6
:1041700040F80C3FFEF75AFF0028BFF644AF88E630
:104180002846033340F80C3FFEF750FF0028BFDA03
:104190007FE600BFFF0308102863010018630100D9
:1041A000C9F80070002F3FF474AEB8F1000F04D0CE
:1041B000019BC8F80430CDF80480EB681A78452AD2
:1041C0007FF467AE0133EB60019868E62DE9F043B8
:1041D000C1680B78722B83B0044655D0562B53D050
:1041E0004B2B51D0A3F130024A2A00F28A80DFE83B
:1041F00012F0B200B200B200B200B200B200B200DF
:10420000B200B200B20088008800880088008800F0
:1042100088008800B8008800E10003018800EF00F2
:10422000F500880088008800880088007501B200C9
:104230008D019B018800A901B7010F02D8018800F8
:10424000880088008800B200880088008800880004
:1042500088008800EA01EA01EA01EA01EA01EA01CC
:10426000EA01EA01EA01EA018800EA01EA01EA0159
:10427000EA01880088008800EA01EA019800EA0162
:10428000EA01EA01EA01EA01002201A92046FEF75B
:10429000D3FD0546002834D0E3681B78462B204622
:1042A00034D0FFF793FF286058B303781F3B012BEE
:1042B00030D9019A2AB3236A616A8B4221DAE06914
:1042C00040F82320019D591C2846216203B0BDE817
:1042D000F0830123656B63632046FFF76FFB656323
:1042E0000246002342212046FEF75AFD0546019072
:1042F00038B1E3681A7822B15A1CE2601B78452B6A
:104300001ED00025284603B0BDE8F08300F034FD40
:104310002860C9E7019A436842602A6801922B60CD
:10432000C7E70131E1602046FEF704FF00230246A3
:1043300028212046FEF734FD05460190002DE0D0EF
:10434000236A626A9342DCDAE1695A1C41F823501D
:10435000019D2262D6E72046FFF77EFD05460190CB
:10436000ECE7481CE0604B785F2B00F07582303B37
:10437000092B00F27F8203460133E3601A78303A5A
:10438000092AF9D96269A1698A4211DA02EB42016C
:104390002669890001327518626109D01A1A07D09E
:1043A000002777546860AA601A785F2A00F0C982F3
:1043B0000025A9E00131E1602046FFF707FF002357
:1043C000024625212046FEF7EBFC05460190B5E7A5
:1043D000204600F0D1FC05460190AFE70131E160D5
:1043E0002046FFF7F3FE0023024626212046FEF773
:1043F000D7FC05460190A1E74B1CE3604B78002BEE
:104400003FF47FAF8B1CE3604B78463B302B3FF68D
:1044100078AF01A252F823F0E74700000343000001
:104420000343000003430000034300000343000074
:104430000343000003430000034300000343000064
:104440000343000003430000034300000343000054
:10445000D342000003430000034300000343000075
:104460000343000003430000034300000343000034
:104470000343000003430000034300000343000024
:1044800003430000BD470000034300000343000056
:104490009F470000D9460000AD46000003430000DE
:1044A000814600005546000003430000034300001E
:1044B000034300000343000077470000034300006C
:1044C0005F47000003430000034300003F47000034
:1044D000D342000003430000054700000131E160C2
:1044E0002046FFF773FE054600283FF461AF2046E3
:1044F000FFF76CFE00283FF45BAF03462A462B21F2
:104500002046FEF74DFC0546019517E70131E160B5
:104510002046FFF75BFE0023024624212046FEF7DB
:104520003FFC0546019009E70131E1602046FFF7B5
:104530004DFE0023024622212046FEF731FC0546AF
:104540000190FBE60131E1602046FFF73FFE0023CA
:10455000024623212046FEF723FC05460190EDE6A6
:104560004B78A3F13002092A05D95F2B03D0413BD8
:10457000192B00F28C8100212046FEF751FEE368E2
:1045800001901B78492B05467FF4BCAE2046FFF70F
:10459000F9FB2A46034604212046FEF701FC0546A6
:1045A000B2E70131E1602046FEF7C4FD01902046EC
:1045B000FFF70CFE019B024621212046FEF7F0FB8F
:1045C00005460190BAE6613BB74F6269A56903EB06
:1045D00083039B0007F1C400AA42184480F238818B
:1045E00002EB4206D4F810E0B60001321EEB0605DD
:1045F000626100F02D8127223B440EF8062068609E
:10460000226BD3F8C83001311344E160236379E6AB
:104610002046FEF76DFDE66801903378492B05468C
:104620007FF48CAEA36B002B40F0508100283FF448
:1046300068AE236A626A9342BFF663AEE1695A1CB0
:1046400041F8230022622046019DFFF79BFB2A468A
:104650000346A0E76369A269934280F2F98003EB05
:1046600043012269890001335518636100F0F0802D
:104670008E4B272050546B60236B0833236341E635
:104680006369A269934280F2E38003EB43012269EC
:10469000890001335518636100F0DA80844B2720CC
:1046A00050546B60236B043323632BE66369A26968
:1046B000934280F2CD8003EB4301226989000133EC
:1046C0005518636100F0C4807A4B272050546B600A
:1046D000236B0933236315E66369A269934280F271
:1046E000B78003EB430122698900013355186361E8
:1046F00000F0AE80704B272050546B60236B0A3360
:104700002363FFE58B785F2B00F0FF802046FEF7E8
:10471000B7FC0546002D3FF4F7AEE3681A785F2A30
:104720007FF446AE0133E3602046FFF74FFD2A4693
:1047300003462D212046FEF733FB0546E4E6636978
:10474000A269934280F2848003EB430122698900CD
:104750000133551863617BD02720584B8AE72046E8
:10476000FFF734FD002302464A212046FEF718FBDE
:1047700005460190E2E56369A269934268DA03EBBA
:1047800043012269890001335518636160D04C4BA5
:10479000272050546B60236B11332363B2E56369A8
:1047A000A269934254DA03EB430122698900013381
:1047B000551863614CD02720424B87E76369A26993
:1047C0009342BFF69EAD03EB430221699200013391
:1047D0008D1863613FF495AD00238B543A486860AF
:1047E0000423AB608EE56369A269934280F2848002
:1047F000256903EB4300800001332A182C266361EE
:1048000001922E548B78303BDBB2092B94BF0123ED
:104810000023138173D915462046FFF7D7FC019B6F
:1048200068605B68002B3FF46CAD04F10C00FEF790
:10483000FDFBE268137843B1531CE3601378A3F1E6
:104840007303B3FA83F35B091BB2019D6B8159E5D6
:10485000002301935B68FFDE00250130E060204605
:10486000FFF7B4FC2A4603462A212046FEF798FAB1
:10487000054649E60123656B63632046FFF79EF812
:104880006563054600283FF493ADE3688CE5204658
:10489000FFF7E2FA0546019000283FF432AD0378B5
:1048A000182B7FF44DAD2DE5AC5B0100DC5E010003
:1048B000B45E0100785E0100A05E0100C85E0100E8
:1048C000F05E01008C5E01002C6301002046D4F8EC
:1048D0001490D4F82080A76A256BFFF753FAE2689A
:1048E0001278492A1CD02563E660C4F81490C4F8F5
:1048F0002080A762019D21E500231B70FFDE04F1EB
:104900000C00FEF793FB019D86E703310123666BE4
:10491000E16063632046FFF751F866630546F9E6F8
:10492000019B002B3FF4EDAC226A616A8A42BFF61C
:10493000E8ACE569511C45F82230019A2162034632
:1049400029E6184689E700BFF8B5C3681E78844693
:1049500026B35A1CC2605A781E78002A59D09A1C75
:10496000C260762E044693F801E044D0632E16D13F
:10497000BEF1760F13D1436B856BB3FA83F35B09FA
:104980008363FFF723FCA36B0246002B53D0002365
:1049900034212046FEF704FAA563F8BDB646294C3B
:1049A0003D20002204E094BF5A1C184682422ED0BB
:1049B000831A03EBD37302EB630319016718615881
:1049C0000D78B542EFD149787145ECD1DCF814305F
:1049D000DCF8182093421ADA03EB4302DCF81010DB
:1049E00001339200CCF814308B1829D03120885430
:1049F0005F601846F8BDAEF13005EBB2092BCED89A
:104A0000FEF798FB6369A2699342014603DB00202D
:104A1000F8BD9646C3E703EB4302206901339200D9
:104A200063618318F3D00029F1D0322484545D608F
:104A300099601846F8BD33212046FEF7B1F9ABE77F
:104A40001846F8BD045F010030B5C26883B000238A
:104A50000193137843B3452B26D02E2B24D0044644
:104A600001AD15E04F2B16D0FFF7B0FB0023024637
:104A70002E21C8B12046FEF793F92860A0B1E26864
:104A8000137800F108054BB1452B07D02E2B05D02C
:104A9000522B2046E6D15378452BE5D1019818B129
:104AA000836823B103B030BD002003B030BD42683D
:104AB00011782729F6D15268117C0929F2D1516861
:104AC000226B521A22634360ECE700BFF8B5C2685C
:104AD0001378A3F130010929044620D9A3F161011B
:104AE000192925D9A3F1430101292CD94C2B00F018
:104AF0008980552B33D153786C2B32D0742B2ED127
:104B0000531CC3605378742B5BD0422B4FF00005CD
:104B10000CD129462046BDE8F840FEF767BBFEF7FA
:104B200009FBE3681B780546422BF2D02846F8BD06
:104B3000FFF70AFF054618B10378312B00F0B28069
:104B4000E3681B78F0E7C16A21B1087800286DD0CE
:104B500018286BD0432B00F0C280442B70D000206B
:104B6000F8BD531CC36053786C2BCED10232C260A7
:104B7000FFF76AFF0646002800F0DA80E268137843
:104B8000452BC2D10132E2602046FEF795FA00289B
:104B900013DB6369A26993420FDA03EB43022169D5
:104BA000920001338D18636107D045238B546E60EA
:104BB000A860236A626A93421CDBE36800251B78C5
:104BC000B2E70232C260FEF777FA0028F5DB6369CC
:104BD000A2699342F1DA03EB4302216992000133A7
:104BE0008D186361E9D047238B546860236A626A39
:104BF0009342E2DAE26942F823500133E268236229
:104C0000137891E70132C260FEF794FA0546002856
:104C1000A5D0E26813785F2B86D12046013240F898
:104C20000C2FFEF703FA00288ADA98E7206B8B68CE
:104C3000034423631378432B51D0442B7FF465AF97
:104C40005378303B052B8AD801A050F823F000BFE1
:104C5000994C0000694C0000954C00005F4B00002F
:104C6000A14C00009D4C000002276369A069951CBF
:104C70008342E56030DA03EB4300266980000133AC
:104C80003518636128D039B3082333542F71A960D4
:104C9000937849E70327E8E70127E6E70527E4E7F4
:104CA0000427E2E74268266B936810682249334480
:104CB0000733236308F098FA00287FF441AF2046B9
:104CC000FEF738FA2A46034636212046FEF768F8F2
:104CD000E36805461B7827E79378002524E7537897
:104CE000313B042B3FF63BAFDFE803F01A03201EF5
:104CF0001C0002276369A069951C8342E560EBDA1A
:104D000003EB430026698000013335186361E3D06B
:104D10000029E1D0072333542F71A960937803E76A
:104D20000127E7E70527E5E70427E3E70327E1E7AE
:104D3000E36805461B78F7E63463010070B5C36885
:104D40001A784A2A04460DD071B90D462046FFF75D
:104D50007BFE78B103462A4620462921BDE87040F3
:104D6000FEF71EB80133C3602046FFF72FFA054651
:104D70000028EBD1002070BDC3681A78462A01D004
:104D80000020704710B55A1CC2605A78592A04BFD7
:104D90000233C36001210446FFF7D0FF01462046DD
:104DA000FEF7A6F8E3681A78452A01D0002010BD66
:104DB0000133E36010BD00BF2DE9F047C3681A78E6
:104DC000472A05463BD0542A39D00E46FFF744F80F
:104DD000044628B316B1AB68DB0725D5EB681B7812
:104DE00053B3452B28D021460B78042BA3F11C028A
:104DF00000F01C81C0F01881042A00F21581496876
:104E00000029F1D12846FFF799FF224603460321E6
:104E10002846BDE8F047FDF7C3BFEB681944E960D9
:104E20000020BDE8F08764682378A3F11C02042AFF
:104E3000F9D9022B00F00A812046BDE8F087296BE2
:104E400001F114022A631A78542A73D0472AE7D151
:104E50005A1CEA605A78002AE2D09A1CEA605A7812
:104E6000413A312ADCD801A151F822F04751000023
:104E7000214E0000214E0000214E0000214E000076
:104E8000214E0000214E0000214E0000214E000066
:104E9000214E0000214E0000214E0000214E000056
:104EA000214E0000214E0000214E0000214E000046
:104EB00029510000214E00005F510000214E0000EA
:104EC00013510000214E0000214E0000214E000031
:104ED000214E0000214E0000214E0000214E000016
:104EE000214E0000214E0000214E0000214E000006
:104EF000214E0000214E0000214E0000214E0000F6
:104F0000214E0000214E0000214E0000214E0000E5
:104F1000214E0000214E0000214E0000214E0000D5
:104F2000214E0000214E0000214E0000214E0000C5
:104F3000695000005A1CEA605A78002A3FF470AFAA
:104F40009A1CEA605B78433B332B3FF669AF01A2C2
:104F500052F823F053520000214E0000214E000071
:104F60003D520000214E0000275200001152000067
:104F7000FB510000214E0000214E0000214E000098
:104F8000214E0000214E0000214E0000214E000065
:104F9000214E0000E5510000CB510000214E0000E1
:104FA000B1510000C7520000214E0000214E000008
:104FB000214E0000214E0000214E0000214E000035
:104FC000214E0000214E0000214E0000214E000025
:104FD000214E000093520000214E0000214E00009F
:104FE000214E0000214E0000DD520000214E000045
:104FF000214E0000214E0000214E0000214E0000F5
:10500000214E0000214E0000214E0000214E0000E4
:10501000214E0000214E0000214E0000214E0000D4
:105020008B510000342B0FD10021EBE64A685AB1B6
:105030001378082B03F1FF31F4D8072BF4D20129A0
:1050400002D89268002AF3D10121DBE6A268137826
:105050001C3B042B04D8526813781C3B042BFAD950
:10506000A2602046BDE8F08705F10C00FDF7DEFFE9
:1050700001287FF7D5AEEB681A78002A3FF4D0AE4E
:105080005F1CEF601B785F2B7FF4CAAE0022461EC8
:1050900090464FF040093B78002B3FF4C1AE242BE3
:1050A00000F02F813C46002104E014F8013F23B1B9
:1050B000242B02D00131B142F7DB6B69A86983422E
:1050C000BFF6ABAE286903EB430403F1010E10EB0E
:1050D0008403C5F814E03FF4A0AE00F824805F60BC
:1050E0009960EF680F44761AEF60002A00F026817D
:1050F0003F212846FDF754FE024600283FF490AEBB
:10510000002EC8DC284600233E21BDE8F047FDF70D
:1051100047BE2846FEF7A0FE00230246132128467C
:10512000BDE8F047FDF73CBE2846FEF795FE044675
:105130002846FDF7A5FF2246034616212846BDE86E
:10514000F047FDF72DBE00212846FFF735FE00236E
:10515000024617212846BDE8F047FDF721BE9A78A0
:1051600000212846002A00F0EB80DA1CEA609B78D8
:105170006E2B40F0E580FFF71FFE00230246492119
:105180002846BDE8F047FDF70BBE76212846FEF71E
:105190000DF900283FF444AE00212846FFF70CFE2D
:1051A0000023024610212846BDE8F047FDF7F8BD70
:1051B0000F3129632846FFF709F800230246092129
:1051C0002846BDE8F047FDF7EBBD0A3129632846C4
:1051D000FEF7FCFF002302460A212846BDE8F047FF
:1051E000FDF7DEBD2846FEF7F1FF002302460D2144
:1051F0002846BDE8F047FDF7D3BD2846FEF7E6FF99
:105200000023024612212846BDE8F047FDF7C8BD3D
:105210002846FEF7DBFF002302460C212846BDE8A6
:10522000F047FDF7BDBD2846FEF716FE00230246F7
:1052300014212846BDE8F047FDF7B2BD2846FEF729
:10524000C5FF002302460E212846BDE8F047FDF7C2
:10525000A7BD2846FEF7BAFF044605F10C00FDF78E
:10526000E5FE0028FFF6DCADEB681A785F2A7FF4D4
:10527000D7AD0133EB602846FEF7A8FF2B6B591D15
:1052800029630246234628460B21BDE8F047FDF777
:1052900087BD00212846FEF789F800283FF4C0ADFD
:1052A00000212846FEF782F800283FF4B9AD00211E
:1052B0002846FFF781FD0023024611212846BDE85C
:1052C000F047FDF76DBD2846FEF7C6FD00230246F8
:1052D00015212846BDE8F047FDF762BD6821284644
:1052E000FEF764F800283FF49BAD00212846FFF745
:1052F00063FD002302460F212846BDE8F047FDF775
:105300004FBD7B78532B27D05F2B23D0242B7FF4EA
:1053100087AD18466B69A9698B421FDA2C6903EBCC
:1053200043015F1C14EB81036F6117D004F82190D7
:105330005860EF680237023EEF60D6E61A46DFE6B5
:10534000FFF73AFD0023024648212846BDE8F04712
:10535000FDF726BD2E20DDE72F20DBE7EB680233CB
:10536000EB600020BDE8F087F8B5C26813784C2BDD
:1053700001D00020F8BD531CC36051785F29054659
:105380003CD05A2941D0FEF721FF0028F1D0037804
:10539000272B48D0EE6833786E2B4DD03C21452B1F
:1053A00050D0002BE5D0334601E0002CE1D0013392
:1053B000EB601C78452CF8D19C1B6B69AA69934261
:1053C0002FDA03EB43022F699200013317EB020E31
:1053D0006B6126D02EB324B30023BB547346CEF8A2
:1053E0000460CEF8084002462846FDF7D9FCEB6879
:1053F0001A78452ABDD10133EB60F8BD931CC36018
:1054000092785A2A18BF002007D10133EB6000219F
:105410002846FFF7D1FCEB681A78452AEBD000202C
:10542000F8BD0023DFE743681A7C002AB2D05A682F
:105430002B6B9B1A2B63ADE7721CEA6073783D21DE
:105440001646ACE70024B8E72DE9F04F044695B0C6
:10545000002A00F0C480D0F81831002B40F0B7804B
:1054600013780F4615464C2B01F2F381DFE813F059
:10547000760955095509C7088308D409AA09EC0912
:10548000CF075C0835080E08E707DE05B70582057B
:105490005B051807F106CA06A3067C0655062E060C
:1054A0000506B507B507B507B007B007B007B007E1
:1054B000B007B007B0077E077E07B007B0073F0709
:1054C000E207050599047E04DC037E049C039C032B
:1054D00079034F032803F1090103FD02C7024D00C0
:1054E0007A041A051F041F044A044A042304BE0256
:1054F000B1025A023302F801D101AA01F109840173
:105500008A025D011101E700BD00AE683378382BD7
:1055100065D16A68536819684878632802F0088181
:105520001178312902F0CE815368D149186807F00B
:105530005BFE726818B91378032B02F05B82394660
:10554000204603F049FAD5F80480CA49D8F8043057
:10555000D3F80090484607F047FE0646002842F080
:105560002480D4F80011FF2902F021834A1C5B2318
:10557000C4F80021635484F80431AB6839469A6852
:10558000204602F051FCD4F80011FF2902F04C83B0
:105590005D234A1CC4F80021635484F804316B680D
:1055A0001A78312A13D15B689A68012A0FD15B6897
:1055B0001B783E2B0BD1D4F80011FF2902F019847F
:1055C00029234A1CC4F80021635484F8043115B01F
:1055D000BDE8F08FB8F1000F01D0C4F810610123CD
:1055E000C4F8183115B0BDE8F08FA34E6A6802F018
:1055F0001BFC06F1080AD4F800114FF000090AE07C
:105600000B460131B245C4F8001104F8038084F858
:10561000048101F07382FF2916F8018FF0D1D4F8CC
:10562000083184F8FF90D4F80C2120469847D4F82C
:1056300020310133C4F8203101210023E2E78F4EED
:105640006A6802F0F1FB06F1050AD4F800114FF088
:1056500000090AE00B460131B245C4F8001104F814
:10566000038084F8048101F06382FF2916F8018B1E
:10567000F0D1D4F8083184F8FF90D4F80C212046FA
:105680009847D4F820310133C4F820310121002398
:10569000E2E76968FDF7D6FE4FF00009002802F046
:1056A000088203782F2B41F040834368002B01F0E0
:1056B0003C83806809F101090028F2D16B680093EE
:1056C0004FF0000B09F1FF33DA460193C4F81CB127
:1056D000009A3946204602F0A7FB019B5B4541F347
:1056E000BD80674DD4F8001105F1020809E00B46B2
:1056F0000131A845C4F80011E65484F8046101F0B2
:10570000AD80FF2915F8016BF1D1D4F8083184F888
:10571000FFA0D4F80C2120469847D4F8203101335B
:10572000C4F8203101210023E3E7564ED0F80011E0
:1057300006F11A0A4FF000090AE00B460131B245A2
:10574000C4F8001104F8038084F8048101F0C882D1
:10575000FF2916F8018FF0D1D4F8083184F8FF90B2
:10576000D4F80C2120469847D4F820310133C4F8EE
:10577000203101210023E2E7434ED0F8001106F169
:105780000E094FF0000809E00B460131B145C4F89D
:105790000011E75484F8047101F0BE80FF2916F867
:1057A000017FF1D1D4F8083184F8FF80D4F80C21BE
:1057B00020469847D4F820310133C4F82031012124
:1057C0000023E3E7314ED0F8001106F1080A4FF04C
:1057D00000090AE00B460131B245C4F8001104F893
:1057E000038084F8048101F0C780FF2916F8018F37
:1057F000F0D1D4F8083184F8FF90D4F80C21204679
:105800009847D4F820310133C4F820310121002316
:10581000E2E71F4ED0F8001106F11C0A4FF0000914
:105820000AE00B460131B245C4F8001104F80380C8
:1058300084F8048101F06280FF2916F8018FF0D10D
:10584000D4F8083184F8FF90D4F80C21204698470A
:10585000D4F820310133C4F8203101210023E2E7DC
:105860000C4ED0F8001106F11D0A4FF000091EE0A1
:1058700008630100F0640100AB65010038630100BA
:10588000C8640100936401009B6501008B65010001
:105890006B6501004B6501000B460131B245C4F850
:1058A000001104F8038084F8048101F02E80FF29A0
:1058B00016F8018FF0D1D4F8083184F8FF90D4F8AD
:1058C0000C2120469847D4F820310133C4F8203108
:1058D00001210023E2E7CE4ED0F8001106F10A0ABA
:1058E0004FF000090AE00B460131B245C4F800113F
:1058F00004F8038084F8048100F0C387FF2916F8B8
:10590000018BF0D1D4F8083184F8FF90D4F80C2141
:1059100020469847D4F820310133C4F820310121C2
:105920000023E2E76A68BB4904A807F02FFC04A83B
:1059300007F026FE00283FF44AAE04ADD4F800116B
:105940002F184FF0000809E00B460131BD42C4F8A2
:105950000011E65484F804613FF439AEFF2915F8CC
:10596000016BF1D1D4F8083184F8FF80D4F80C2110
:1059700020469847D4F820310133C4F82031012162
:105980000023E3E7A44ED0F8001106F1160A4FF009
:1059900000090AE00B460131B245C4F8001104F8D1
:1059A000038084F8048101F06280FF2916F8018FDA
:1059B000F0D1D4F8083184F8FF90D4F80C212046B7
:1059C0009847D4F820310133C4F820310121002355
:1059D000E2E7D0F800112D79FF2901F007854B1C73
:1059E000C4F80031655484F80451F0E56A6802F0A7
:1059F0001BFAAA683946204602F016FAE7E56E68F7
:105A0000AD683378312B01F0C082332B41F07484C0
:105A1000D0F80011FF2901F0AC874A1C2823C4F8F4
:105A20000021635484F8043104A97268D4F8243145
:105A3000C4F824112046394605930492FFF704FD6B
:105A4000D4F80011059BC4F82431FF2901F08087A8
:105A500029234A1CC4F80021635484F804312A46DF
:105A60003946204602F0B8FFB1E56A6802F076FFD9
:105A7000ADE56A4ED0F8001106F1090A4FF00009B1
:105A80000AE00B460131B245C4F8001104F8038066
:105A900084F8048101F06680FF2916F8018FF0D1A7
:105AA000D4F8083184F8FF90D4F80C2120469847A8
:105AB000D4F820310133C4F8203101210023E2E77A
:105AC000564ED0F8001106F1090A4FF000090AE01D
:105AD0000B460131B245C4F8001104F8038084F884
